{
	"contracts/PropCoin.sol": {
		"PropCoin": {
			"abi": [
				{
					"inputs": [],
					"stateMutability": "nonpayable",
					"type": "constructor"
				},
				{
					"anonymous": false,
					"inputs": [
						{
							"indexed": true,
							"internalType": "address",
							"name": "owner",
							"type": "address"
						},
						{
							"indexed": true,
							"internalType": "address",
							"name": "spender",
							"type": "address"
						},
						{
							"indexed": false,
							"internalType": "uint256",
							"name": "value",
							"type": "uint256"
						}
					],
					"name": "Approval",
					"type": "event"
				},
				{
					"anonymous": false,
					"inputs": [
						{
							"indexed": true,
							"internalType": "address",
							"name": "previousOwner",
							"type": "address"
						},
						{
							"indexed": true,
							"internalType": "address",
							"name": "newOwner",
							"type": "address"
						}
					],
					"name": "OwnershipTransferred",
					"type": "event"
				},
				{
					"anonymous": false,
					"inputs": [
						{
							"indexed": true,
							"internalType": "address",
							"name": "from",
							"type": "address"
						},
						{
							"indexed": true,
							"internalType": "address",
							"name": "to",
							"type": "address"
						},
						{
							"indexed": false,
							"internalType": "uint256",
							"name": "value",
							"type": "uint256"
						}
					],
					"name": "Transfer",
					"type": "event"
				},
				{
					"inputs": [
						{
							"internalType": "address",
							"name": "owner",
							"type": "address"
						},
						{
							"internalType": "address",
							"name": "spender",
							"type": "address"
						}
					],
					"name": "allowance",
					"outputs": [
						{
							"internalType": "uint256",
							"name": "",
							"type": "uint256"
						}
					],
					"stateMutability": "view",
					"type": "function"
				},
				{
					"inputs": [
						{
							"internalType": "address",
							"name": "spender",
							"type": "address"
						},
						{
							"internalType": "uint256",
							"name": "amount",
							"type": "uint256"
						}
					],
					"name": "approve",
					"outputs": [
						{
							"internalType": "bool",
							"name": "",
							"type": "bool"
						}
					],
					"stateMutability": "nonpayable",
					"type": "function"
				},
				{
					"inputs": [
						{
							"internalType": "address",
							"name": "account",
							"type": "address"
						}
					],
					"name": "balanceOf",
					"outputs": [
						{
							"internalType": "uint256",
							"name": "",
							"type": "uint256"
						}
					],
					"stateMutability": "view",
					"type": "function"
				},
				{
					"inputs": [],
					"name": "decimals",
					"outputs": [
						{
							"internalType": "uint8",
							"name": "",
							"type": "uint8"
						}
					],
					"stateMutability": "view",
					"type": "function"
				},
				{
					"inputs": [
						{
							"internalType": "address",
							"name": "spender",
							"type": "address"
						},
						{
							"internalType": "uint256",
							"name": "subtractedValue",
							"type": "uint256"
						}
					],
					"name": "decreaseAllowance",
					"outputs": [
						{
							"internalType": "bool",
							"name": "",
							"type": "bool"
						}
					],
					"stateMutability": "nonpayable",
					"type": "function"
				},
				{
					"inputs": [
						{
							"internalType": "address",
							"name": "spender",
							"type": "address"
						},
						{
							"internalType": "uint256",
							"name": "addedValue",
							"type": "uint256"
						}
					],
					"name": "increaseAllowance",
					"outputs": [
						{
							"internalType": "bool",
							"name": "",
							"type": "bool"
						}
					],
					"stateMutability": "nonpayable",
					"type": "function"
				},
				{
					"inputs": [
						{
							"internalType": "uint256",
							"name": "amount",
							"type": "uint256"
						}
					],
					"name": "mint",
					"outputs": [],
					"stateMutability": "nonpayable",
					"type": "function"
				},
				{
					"inputs": [],
					"name": "name",
					"outputs": [
						{
							"internalType": "string",
							"name": "",
							"type": "string"
						}
					],
					"stateMutability": "view",
					"type": "function"
				},
				{
					"inputs": [],
					"name": "owner",
					"outputs": [
						{
							"internalType": "address",
							"name": "",
							"type": "address"
						}
					],
					"stateMutability": "view",
					"type": "function"
				},
				{
					"inputs": [],
					"name": "renounceOwnership",
					"outputs": [],
					"stateMutability": "nonpayable",
					"type": "function"
				},
				{
					"inputs": [
						{
							"internalType": "address",
							"name": "wallet",
							"type": "address"
						}
					],
					"name": "setBackingWallet",
					"outputs": [],
					"stateMutability": "nonpayable",
					"type": "function"
				},
				{
					"inputs": [],
					"name": "symbol",
					"outputs": [
						{
							"internalType": "string",
							"name": "",
							"type": "string"
						}
					],
					"stateMutability": "view",
					"type": "function"
				},
				{
					"inputs": [],
					"name": "totalSupply",
					"outputs": [
						{
							"internalType": "uint256",
							"name": "",
							"type": "uint256"
						}
					],
					"stateMutability": "view",
					"type": "function"
				},
				{
					"inputs": [
						{
							"internalType": "address",
							"name": "to",
							"type": "address"
						},
						{
							"internalType": "uint256",
							"name": "amount",
							"type": "uint256"
						}
					],
					"name": "transfer",
					"outputs": [
						{
							"internalType": "bool",
							"name": "",
							"type": "bool"
						}
					],
					"stateMutability": "nonpayable",
					"type": "function"
				},
				{
					"inputs": [
						{
							"internalType": "address",
							"name": "from",
							"type": "address"
						},
						{
							"internalType": "address",
							"name": "to",
							"type": "address"
						},
						{
							"internalType": "uint256",
							"name": "amount",
							"type": "uint256"
						}
					],
					"name": "transferFrom",
					"outputs": [
						{
							"internalType": "bool",
							"name": "",
							"type": "bool"
						}
					],
					"stateMutability": "nonpayable",
					"type": "function"
				},
				{
					"inputs": [
						{
							"internalType": "address",
							"name": "newOwner",
							"type": "address"
						}
					],
					"name": "transferOwnership",
					"outputs": [],
					"stateMutability": "nonpayable",
					"type": "function"
				}
			],
			"devdoc": {
				"events": {
					"Approval(address,address,uint256)": {
						"details": "Emitted when the allowance of a `spender` for an `owner` is set by a call to {approve}. `value` is the new allowance."
					},
					"Transfer(address,address,uint256)": {
						"details": "Emitted when `value` tokens are moved from one account (`from`) to another (`to`). Note that `value` may be zero."
					}
				},
				"kind": "dev",
				"methods": {
					"allowance(address,address)": {
						"details": "See {IERC20-allowance}."
					},
					"approve(address,uint256)": {
						"details": "See {IERC20-approve}. NOTE: If `amount` is the maximum `uint256`, the allowance is not updated on `transferFrom`. This is semantically equivalent to an infinite approval. Requirements: - `spender` cannot be the zero address."
					},
					"balanceOf(address)": {
						"details": "See {IERC20-balanceOf}."
					},
					"decimals()": {
						"details": "Returns the number of decimals used to get its user representation. For example, if `decimals` equals `2`, a balance of `505` tokens should be displayed to a user as `5.05` (`505 / 10 ** 2`). Tokens usually opt for a value of 18, imitating the relationship between Ether and Wei. This is the default value returned by this function, unless it's overridden. NOTE: This information is only used for _display_ purposes: it in no way affects any of the arithmetic of the contract, including {IERC20-balanceOf} and {IERC20-transfer}."
					},
					"decreaseAllowance(address,uint256)": {
						"details": "Atomically decreases the allowance granted to `spender` by the caller. This is an alternative to {approve} that can be used as a mitigation for problems described in {IERC20-approve}. Emits an {Approval} event indicating the updated allowance. Requirements: - `spender` cannot be the zero address. - `spender` must have allowance for the caller of at least `subtractedValue`."
					},
					"increaseAllowance(address,uint256)": {
						"details": "Atomically increases the allowance granted to `spender` by the caller. This is an alternative to {approve} that can be used as a mitigation for problems described in {IERC20-approve}. Emits an {Approval} event indicating the updated allowance. Requirements: - `spender` cannot be the zero address."
					},
					"name()": {
						"details": "Returns the name of the token."
					},
					"owner()": {
						"details": "Returns the address of the current owner."
					},
					"renounceOwnership()": {
						"details": "Leaves the contract without owner. It will not be possible to call `onlyOwner` functions. Can only be called by the current owner. NOTE: Renouncing ownership will leave the contract without an owner, thereby disabling any functionality that is only available to the owner."
					},
					"symbol()": {
						"details": "Returns the symbol of the token, usually a shorter version of the name."
					},
					"totalSupply()": {
						"details": "See {IERC20-totalSupply}."
					},
					"transfer(address,uint256)": {
						"details": "See {IERC20-transfer}. Requirements: - `to` cannot be the zero address. - the caller must have a balance of at least `amount`."
					},
					"transferFrom(address,address,uint256)": {
						"details": "See {IERC20-transferFrom}. Emits an {Approval} event indicating the updated allowance. This is not required by the EIP. See the note at the beginning of {ERC20}. NOTE: Does not update the allowance if the current allowance is the maximum `uint256`. Requirements: - `from` and `to` cannot be the zero address. - `from` must have a balance of at least `amount`. - the caller must have allowance for ``from``'s tokens of at least `amount`."
					},
					"transferOwnership(address)": {
						"details": "Transfers ownership of the contract to a new account (`newOwner`). Can only be called by the current owner."
					}
				},
				"version": 1
			},
			"evm": {
				"assembly": "    /* \"contracts/PropCoin.sol\":399:1046  contract PropCoin is ERC20, Ownable {... */\n  mstore(0x40, 0x80)\n    /* \"contracts/PropCoin.sol\":515:563  constructor() ERC20(\"PropCoin\", \"PROP\") {... */\n  callvalue\n  dup1\n  iszero\n  tag_1\n  jumpi\n  0x00\n  dup1\n  revert\ntag_1:\n  pop\n    /* \"https://github.com/OpenZeppelin/openzeppelin-contracts/blob/master/contracts/token/ERC20/ERC20.sol\":1980:2093  constructor(string memory name_, string memory symbol_) {... */\n  mload(0x40)\n  dup1\n  0x40\n  add\n  0x40\n  mstore\n  dup1\n  0x08\n  dup2\n  mstore\n  0x20\n  add\n  shl(0xc1, 0x283937b821b7b4b7)\n  dup2\n  mstore\n  pop\n  mload(0x40)\n  dup1\n  0x40\n  add\n  0x40\n  mstore\n  dup1\n  0x04\n  dup2\n  mstore\n  0x20\n  add\n  shl(0xe4, 0x050524f5)\n  dup2\n  mstore\n  pop\n    /* \"https://github.com/OpenZeppelin/openzeppelin-contracts/blob/master/contracts/token/ERC20/ERC20.sol\":2054:2059  name_ */\n  dup2\n    /* \"https://github.com/OpenZeppelin/openzeppelin-contracts/blob/master/contracts/token/ERC20/ERC20.sol\":2046:2051  _name */\n  0x03\n    /* \"https://github.com/OpenZeppelin/openzeppelin-contracts/blob/master/contracts/token/ERC20/ERC20.sol\":2046:2059  _name = name_ */\n  swap1\n  dup2\n  tag_6\n  swap2\n  swap1\n  tag_7\n  jump\t// in\ntag_6:\n  pop\n    /* \"https://github.com/OpenZeppelin/openzeppelin-contracts/blob/master/contracts/token/ERC20/ERC20.sol\":2069:2076  _symbol */\n  0x04\n    /* \"https://github.com/OpenZeppelin/openzeppelin-contracts/blob/master/contracts/token/ERC20/ERC20.sol\":2069:2086  _symbol = symbol_ */\n  tag_8\n    /* \"https://github.com/OpenZeppelin/openzeppelin-contracts/blob/master/contracts/token/ERC20/ERC20.sol\":2079:2086  symbol_ */\n  dup3\n    /* \"https://github.com/OpenZeppelin/openzeppelin-contracts/blob/master/contracts/token/ERC20/ERC20.sol\":2069:2076  _symbol */\n  dup3\n    /* \"https://github.com/OpenZeppelin/openzeppelin-contracts/blob/master/contracts/token/ERC20/ERC20.sol\":2069:2086  _symbol = symbol_ */\n  tag_7\n  jump\t// in\ntag_8:\n  pop\n    /* \"https://github.com/OpenZeppelin/openzeppelin-contracts/blob/master/contracts/token/ERC20/ERC20.sol\":1980:2093  constructor(string memory name_, string memory symbol_) {... */\n  pop\n  pop\n    /* \"https://github.com/OpenZeppelin/openzeppelin-contracts/blob/master/contracts/access/Ownable.sol\":936:968  _transferOwnership(_msgSender()) */\n  tag_10\n    /* \"https://github.com/OpenZeppelin/openzeppelin-contracts/blob/master/contracts/access/Ownable.sol\":955:967  _msgSender() */\n  tag_11\n    /* \"https://github.com/OpenZeppelin/openzeppelin-contracts/blob/master/contracts/access/Ownable.sol\":955:965  _msgSender */\n  shl(0x20, tag_12)\n    /* \"https://github.com/OpenZeppelin/openzeppelin-contracts/blob/master/contracts/access/Ownable.sol\":955:967  _msgSender() */\n  0x20\n  shr\n  jump\t// in\ntag_11:\n    /* \"https://github.com/OpenZeppelin/openzeppelin-contracts/blob/master/contracts/access/Ownable.sol\":936:954  _transferOwnership */\n  tag_13\n    /* \"https://github.com/OpenZeppelin/openzeppelin-contracts/blob/master/contracts/access/Ownable.sol\":936:968  _transferOwnership(_msgSender()) */\n  jump\t// in\ntag_10:\n    /* \"contracts/PropCoin.sol\":399:1046  contract PropCoin is ERC20, Ownable {... */\n  jump(tag_23)\n    /* \"https://github.com/OpenZeppelin/openzeppelin-contracts/blob/master/contracts/utils/Context.sol\":640:736  function _msgSender() internal view virtual returns (address) {... */\ntag_12:\n    /* \"https://github.com/OpenZeppelin/openzeppelin-contracts/blob/master/contracts/utils/Context.sol\":719:729  msg.sender */\n  caller\n  swap1\n    /* \"https://github.com/OpenZeppelin/openzeppelin-contracts/blob/master/contracts/utils/Context.sol\":640:736  function _msgSender() internal view virtual returns (address) {... */\n  jump\t// out\n    /* \"https://github.com/OpenZeppelin/openzeppelin-contracts/blob/master/contracts/access/Ownable.sol\":2426:2613  function _transferOwnership(address newOwner) internal virtual {... */\ntag_13:\n    /* \"https://github.com/OpenZeppelin/openzeppelin-contracts/blob/master/contracts/access/Ownable.sol\":2518:2524  _owner */\n  0x05\n  dup1\n  sload\n  sub(shl(0xa0, 0x01), 0x01)\n    /* \"https://github.com/OpenZeppelin/openzeppelin-contracts/blob/master/contracts/access/Ownable.sol\":2534:2551  _owner = newOwner */\n  dup4\n  dup2\n  and\n  not(sub(shl(0xa0, 0x01), 0x01))\n  dup4\n  and\n  dup2\n  or\n  swap1\n  swap4\n  sstore\n    /* \"https://github.com/OpenZeppelin/openzeppelin-contracts/blob/master/contracts/access/Ownable.sol\":2566:2606  OwnershipTransferred(oldOwner, newOwner) */\n  mload(0x40)\n    /* \"https://github.com/OpenZeppelin/openzeppelin-contracts/blob/master/contracts/access/Ownable.sol\":2518:2524  _owner */\n  swap2\n  and\n  swap2\n    /* \"https://github.com/OpenZeppelin/openzeppelin-contracts/blob/master/contracts/access/Ownable.sol\":2534:2551  _owner = newOwner */\n  swap1\n    /* \"https://github.com/OpenZeppelin/openzeppelin-contracts/blob/master/contracts/access/Ownable.sol\":2518:2524  _owner */\n  dup3\n  swap1\n    /* \"https://github.com/OpenZeppelin/openzeppelin-contracts/blob/master/contracts/access/Ownable.sol\":2566:2606  OwnershipTransferred(oldOwner, newOwner) */\n  0x8be0079c531659141344cd1fd0a4f28419497f9722a3daafe3b4186f6b6457e0\n  swap1\n    /* \"https://github.com/OpenZeppelin/openzeppelin-contracts/blob/master/contracts/access/Ownable.sol\":2499:2515  address oldOwner */\n  0x00\n  swap1\n    /* \"https://github.com/OpenZeppelin/openzeppelin-contracts/blob/master/contracts/access/Ownable.sol\":2566:2606  OwnershipTransferred(oldOwner, newOwner) */\n  log3\n    /* \"https://github.com/OpenZeppelin/openzeppelin-contracts/blob/master/contracts/access/Ownable.sol\":2489:2613  {... */\n  pop\n    /* \"https://github.com/OpenZeppelin/openzeppelin-contracts/blob/master/contracts/access/Ownable.sol\":2426:2613  function _transferOwnership(address newOwner) internal virtual {... */\n  pop\n  jump\t// out\n    /* \"#utility.yul\":14:141   */\ntag_18:\n    /* \"#utility.yul\":75:85   */\n  0x4e487b71\n    /* \"#utility.yul\":70:73   */\n  0xe0\n    /* \"#utility.yul\":66:86   */\n  shl\n    /* \"#utility.yul\":63:64   */\n  0x00\n    /* \"#utility.yul\":56:87   */\n  mstore\n    /* \"#utility.yul\":106:110   */\n  0x41\n    /* \"#utility.yul\":103:104   */\n  0x04\n    /* \"#utility.yul\":96:111   */\n  mstore\n    /* \"#utility.yul\":130:134   */\n  0x24\n    /* \"#utility.yul\":127:128   */\n  0x00\n    /* \"#utility.yul\":120:135   */\n  revert\n    /* \"#utility.yul\":146:526   */\ntag_19:\n    /* \"#utility.yul\":225:226   */\n  0x01\n    /* \"#utility.yul\":221:233   */\n  dup2\n  dup2\n  shr\n  swap1\n    /* \"#utility.yul\":268:280   */\n  dup3\n  and\n  dup1\n    /* \"#utility.yul\":289:350   */\n  tag_26\n  jumpi\n    /* \"#utility.yul\":343:347   */\n  0x7f\n    /* \"#utility.yul\":335:341   */\n  dup3\n    /* \"#utility.yul\":331:348   */\n  and\n    /* \"#utility.yul\":321:348   */\n  swap2\n  pop\n    /* \"#utility.yul\":289:350   */\ntag_26:\n    /* \"#utility.yul\":396:398   */\n  0x20\n    /* \"#utility.yul\":388:394   */\n  dup3\n    /* \"#utility.yul\":385:399   */\n  lt\n    /* \"#utility.yul\":365:383   */\n  dup2\n    /* \"#utility.yul\":362:400   */\n  sub\n    /* \"#utility.yul\":359:520   */\n  tag_27\n  jumpi\n    /* \"#utility.yul\":442:452   */\n  0x4e487b71\n    /* \"#utility.yul\":437:440   */\n  0xe0\n    /* \"#utility.yul\":433:453   */\n  shl\n    /* \"#utility.yul\":430:431   */\n  0x00\n    /* \"#utility.yul\":423:454   */\n  mstore\n    /* \"#utility.yul\":477:481   */\n  0x22\n    /* \"#utility.yul\":474:475   */\n  0x04\n    /* \"#utility.yul\":467:482   */\n  mstore\n    /* \"#utility.yul\":505:509   */\n  0x24\n    /* \"#utility.yul\":502:503   */\n  0x00\n    /* \"#utility.yul\":495:510   */\n  revert\n    /* \"#utility.yul\":359:520   */\ntag_27:\n  pop\n    /* \"#utility.yul\":146:526   */\n  swap2\n  swap1\n  pop\n  jump\t// out\n    /* \"#utility.yul\":657:1202   */\ntag_21:\n    /* \"#utility.yul\":759:761   */\n  0x1f\n    /* \"#utility.yul\":754:757   */\n  dup3\n    /* \"#utility.yul\":751:762   */\n  gt\n    /* \"#utility.yul\":748:1196   */\n  iszero\n  tag_30\n  jumpi\n    /* \"#utility.yul\":795:796   */\n  0x00\n    /* \"#utility.yul\":820:825   */\n  dup2\n    /* \"#utility.yul\":816:818   */\n  dup2\n    /* \"#utility.yul\":809:826   */\n  mstore\n    /* \"#utility.yul\":865:869   */\n  0x20\n    /* \"#utility.yul\":861:863   */\n  dup2\n    /* \"#utility.yul\":851:870   */\n  keccak256\n    /* \"#utility.yul\":935:937   */\n  0x1f\n    /* \"#utility.yul\":923:933   */\n  dup6\n    /* \"#utility.yul\":919:938   */\n  add\n    /* \"#utility.yul\":916:917   */\n  0x05\n    /* \"#utility.yul\":912:939   */\n  shr\n    /* \"#utility.yul\":906:910   */\n  dup2\n    /* \"#utility.yul\":902:940   */\n  add\n    /* \"#utility.yul\":971:975   */\n  0x20\n    /* \"#utility.yul\":959:969   */\n  dup7\n    /* \"#utility.yul\":956:976   */\n  lt\n    /* \"#utility.yul\":953:1000   */\n  iszero\n  tag_31\n  jumpi\n  pop\n    /* \"#utility.yul\":994:998   */\n  dup1\n    /* \"#utility.yul\":953:1000   */\ntag_31:\n    /* \"#utility.yul\":1049:1051   */\n  0x1f\n    /* \"#utility.yul\":1044:1047   */\n  dup6\n    /* \"#utility.yul\":1040:1052   */\n  add\n    /* \"#utility.yul\":1037:1038   */\n  0x05\n    /* \"#utility.yul\":1033:1053   */\n  shr\n    /* \"#utility.yul\":1027:1031   */\n  dup3\n    /* \"#utility.yul\":1023:1054   */\n  add\n    /* \"#utility.yul\":1013:1054   */\n  swap2\n  pop\n    /* \"#utility.yul\":1104:1186   */\ntag_32:\n    /* \"#utility.yul\":1122:1124   */\n  dup2\n    /* \"#utility.yul\":1115:1120   */\n  dup2\n    /* \"#utility.yul\":1112:1125   */\n  lt\n    /* \"#utility.yul\":1104:1186   */\n  iszero\n  tag_34\n  jumpi\n    /* \"#utility.yul\":1167:1184   */\n  dup3\n  dup2\n  sstore\n    /* \"#utility.yul\":1148:1149   */\n  0x01\n    /* \"#utility.yul\":1137:1150   */\n  add\n    /* \"#utility.yul\":1104:1186   */\n  jump(tag_32)\ntag_34:\n    /* \"#utility.yul\":1108:1111   */\n  pop\n  pop\n  pop\n    /* \"#utility.yul\":748:1196   */\ntag_30:\n    /* \"#utility.yul\":657:1202   */\n  pop\n  pop\n  pop\n  jump\t// out\n    /* \"#utility.yul\":1378:2730   */\ntag_7:\n    /* \"#utility.yul\":1498:1508   */\n  dup2\n  mload\n  sub(shl(0x40, 0x01), 0x01)\n    /* \"#utility.yul\":1520:1550   */\n  dup2\n  gt\n    /* \"#utility.yul\":1517:1573   */\n  iszero\n  tag_38\n  jumpi\n    /* \"#utility.yul\":1553:1571   */\n  tag_38\n  tag_18\n  jump\t// in\ntag_38:\n    /* \"#utility.yul\":1582:1679   */\n  tag_39\n    /* \"#utility.yul\":1672:1678   */\n  dup2\n    /* \"#utility.yul\":1632:1670   */\n  tag_40\n    /* \"#utility.yul\":1664:1668   */\n  dup5\n    /* \"#utility.yul\":1658:1669   */\n  sload\n    /* \"#utility.yul\":1632:1670   */\n  tag_19\n  jump\t// in\ntag_40:\n    /* \"#utility.yul\":1626:1630   */\n  dup5\n    /* \"#utility.yul\":1582:1679   */\n  tag_21\n  jump\t// in\ntag_39:\n    /* \"#utility.yul\":1734:1738   */\n  0x20\n  dup1\n    /* \"#utility.yul\":1798:1800   */\n  0x1f\n    /* \"#utility.yul\":1787:1801   */\n  dup4\n  gt\n    /* \"#utility.yul\":1815:1816   */\n  0x01\n    /* \"#utility.yul\":1810:2473   */\n  dup2\n  eq\n  tag_42\n  jumpi\n    /* \"#utility.yul\":2517:2518   */\n  0x00\n    /* \"#utility.yul\":2534:2540   */\n  dup5\n    /* \"#utility.yul\":2531:2620   */\n  iszero\n  tag_43\n  jumpi\n  pop\n    /* \"#utility.yul\":2586:2605   */\n  dup6\n  dup4\n  add\n    /* \"#utility.yul\":2580:2606   */\n  mload\n    /* \"#utility.yul\":2531:2620   */\ntag_43:\n  not(0x00)\n    /* \"#utility.yul\":1335:1336   */\n  0x03\n    /* \"#utility.yul\":1331:1342   */\n  dup7\n  swap1\n  shl\n    /* \"#utility.yul\":1327:1351   */\n  shr\n    /* \"#utility.yul\":1323:1352   */\n  not\n    /* \"#utility.yul\":1313:1353   */\n  and\n    /* \"#utility.yul\":1359:1360   */\n  0x01\n    /* \"#utility.yul\":1355:1366   */\n  dup6\n  swap1\n  shl\n    /* \"#utility.yul\":1310:1367   */\n  or\n    /* \"#utility.yul\":2633:2714   */\n  dup6\n  sstore\n    /* \"#utility.yul\":1780:2724   */\n  jump(tag_34)\n    /* \"#utility.yul\":1810:2473   */\ntag_42:\n    /* \"#utility.yul\":604:605   */\n  0x00\n    /* \"#utility.yul\":597:611   */\n  dup6\n  dup2\n  mstore\n    /* \"#utility.yul\":641:645   */\n  0x20\n    /* \"#utility.yul\":628:646   */\n  dup2\n  keccak256\n  not(0x1f)\n    /* \"#utility.yul\":1846:1866   */\n  dup7\n  and\n  swap2\n    /* \"#utility.yul\":1964:2200   */\ntag_46:\n    /* \"#utility.yul\":1978:1985   */\n  dup3\n    /* \"#utility.yul\":1975:1976   */\n  dup2\n    /* \"#utility.yul\":1972:1986   */\n  lt\n    /* \"#utility.yul\":1964:2200   */\n  iszero\n  tag_48\n  jumpi\n    /* \"#utility.yul\":2067:2086   */\n  dup9\n  dup7\n  add\n    /* \"#utility.yul\":2061:2087   */\n  mload\n    /* \"#utility.yul\":2046:2088   */\n  dup3\n  sstore\n    /* \"#utility.yul\":2159:2186   */\n  swap5\n  dup5\n  add\n  swap5\n    /* \"#utility.yul\":2127:2128   */\n  0x01\n    /* \"#utility.yul\":2115:2129   */\n  swap1\n  swap2\n  add\n  swap1\n    /* \"#utility.yul\":1994:2013   */\n  dup5\n  add\n    /* \"#utility.yul\":1964:2200   */\n  jump(tag_46)\ntag_48:\n    /* \"#utility.yul\":1968:1971   */\n  pop\n    /* \"#utility.yul\":2228:2234   */\n  dup6\n    /* \"#utility.yul\":2219:2226   */\n  dup3\n    /* \"#utility.yul\":2216:2235   */\n  lt\n    /* \"#utility.yul\":2213:2414   */\n  iszero\n  tag_49\n  jumpi\n    /* \"#utility.yul\":2289:2308   */\n  dup8\n  dup6\n  add\n    /* \"#utility.yul\":2283:2309   */\n  mload\n  not(0x00)\n    /* \"#utility.yul\":2372:2373   */\n  0x03\n    /* \"#utility.yul\":2368:2382   */\n  dup9\n  swap1\n  shl\n    /* \"#utility.yul\":2384:2387   */\n  0xf8\n    /* \"#utility.yul\":2364:2388   */\n  and\n    /* \"#utility.yul\":2360:2397   */\n  shr\n    /* \"#utility.yul\":2356:2398   */\n  not\n    /* \"#utility.yul\":2341:2399   */\n  and\n    /* \"#utility.yul\":2326:2400   */\n  dup2\n  sstore\n    /* \"#utility.yul\":2213:2414   */\ntag_49:\n  pop\n  pop\n  pop\n  pop\n  pop\n    /* \"#utility.yul\":2460:2461   */\n  0x01\n    /* \"#utility.yul\":2444:2458   */\n  swap1\n  dup2\n  shl\n    /* \"#utility.yul\":2440:2462   */\n  add\n    /* \"#utility.yul\":2427:2463   */\n  swap1\n  sstore\n  pop\n    /* \"#utility.yul\":1378:2730   */\n  jump\t// out\ntag_23:\n    /* \"contracts/PropCoin.sol\":399:1046  contract PropCoin is ERC20, Ownable {... */\n  dataSize(sub_0)\n  dup1\n  dataOffset(sub_0)\n  0x00\n  codecopy\n  0x00\n  return\nstop\n\nsub_0: assembly {\n        /* \"contracts/PropCoin.sol\":399:1046  contract PropCoin is ERC20, Ownable {... */\n      mstore(0x40, 0x80)\n      callvalue\n      dup1\n      iszero\n      tag_1\n      jumpi\n      0x00\n      dup1\n      revert\n    tag_1:\n      pop\n      jumpi(tag_2, lt(calldatasize, 0x04))\n      shr(0xe0, calldataload(0x00))\n      dup1\n      0x8da5cb5b\n      gt\n      tag_19\n      jumpi\n      dup1\n      0xa9059cbb\n      gt\n      tag_20\n      jumpi\n      dup1\n      0xa9059cbb\n      eq\n      tag_15\n      jumpi\n      dup1\n      0xdd62ed3e\n      eq\n      tag_16\n      jumpi\n      dup1\n      0xe443b72a\n      eq\n      tag_17\n      jumpi\n      dup1\n      0xf2fde38b\n      eq\n      tag_18\n      jumpi\n      0x00\n      dup1\n      revert\n    tag_20:\n      dup1\n      0x8da5cb5b\n      eq\n      tag_11\n      jumpi\n      dup1\n      0x95d89b41\n      eq\n      tag_12\n      jumpi\n      dup1\n      0xa0712d68\n      eq\n      tag_13\n      jumpi\n      dup1\n      0xa457c2d7\n      eq\n      tag_14\n      jumpi\n      0x00\n      dup1\n      revert\n    tag_19:\n      dup1\n      0x313ce567\n      gt\n      tag_21\n      jumpi\n      dup1\n      0x313ce567\n      eq\n      tag_7\n      jumpi\n      dup1\n      0x39509351\n      eq\n      tag_8\n      jumpi\n      dup1\n      0x70a08231\n      eq\n      tag_9\n      jumpi\n      dup1\n      0x715018a6\n      eq\n      tag_10\n      jumpi\n      0x00\n      dup1\n      revert\n    tag_21:\n      dup1\n      0x06fdde03\n      eq\n      tag_3\n      jumpi\n      dup1\n      0x095ea7b3\n      eq\n      tag_4\n      jumpi\n      dup1\n      0x18160ddd\n      eq\n      tag_5\n      jumpi\n      dup1\n      0x23b872dd\n      eq\n      tag_6\n      jumpi\n    tag_2:\n      0x00\n      dup1\n      revert\n        /* \"https://github.com/OpenZeppelin/openzeppelin-contracts/blob/master/contracts/token/ERC20/ERC20.sol\":2158:2256  function name() public view virtual override returns (string memory) {... */\n    tag_3:\n      tag_22\n      tag_23\n      jump\t// in\n    tag_22:\n      mload(0x40)\n      tag_24\n      swap2\n      swap1\n      tag_25\n      jump\t// in\n    tag_24:\n      mload(0x40)\n      dup1\n      swap2\n      sub\n      swap1\n      return\n        /* \"https://github.com/OpenZeppelin/openzeppelin-contracts/blob/master/contracts/token/ERC20/ERC20.sol\":4444:4641  function approve(address spender, uint256 amount) public virtual override returns (bool) {... */\n    tag_4:\n      tag_26\n      tag_27\n      calldatasize\n      0x04\n      tag_28\n      jump\t// in\n    tag_27:\n      tag_29\n      jump\t// in\n    tag_26:\n      mload(0x40)\n        /* \"#utility.yul\":1272:1286   */\n      swap1\n      iszero\n        /* \"#utility.yul\":1265:1287   */\n      iszero\n        /* \"#utility.yul\":1247:1288   */\n      dup2\n      mstore\n        /* \"#utility.yul\":1235:1237   */\n      0x20\n        /* \"#utility.yul\":1220:1238   */\n      add\n        /* \"https://github.com/OpenZeppelin/openzeppelin-contracts/blob/master/contracts/token/ERC20/ERC20.sol\":4444:4641  function approve(address spender, uint256 amount) public virtual override returns (bool) {... */\n      tag_24\n        /* \"#utility.yul\":1107:1294   */\n      jump\n        /* \"https://github.com/OpenZeppelin/openzeppelin-contracts/blob/master/contracts/token/ERC20/ERC20.sol\":3255:3361  function totalSupply() public view virtual override returns (uint256) {... */\n    tag_5:\n        /* \"https://github.com/OpenZeppelin/openzeppelin-contracts/blob/master/contracts/token/ERC20/ERC20.sol\":3342:3354  _totalSupply */\n      sload(0x02)\n        /* \"https://github.com/OpenZeppelin/openzeppelin-contracts/blob/master/contracts/token/ERC20/ERC20.sol\":3255:3361  function totalSupply() public view virtual override returns (uint256) {... */\n    tag_32:\n      mload(0x40)\n        /* \"#utility.yul\":1445:1470   */\n      swap1\n      dup2\n      mstore\n        /* \"#utility.yul\":1433:1435   */\n      0x20\n        /* \"#utility.yul\":1418:1436   */\n      add\n        /* \"https://github.com/OpenZeppelin/openzeppelin-contracts/blob/master/contracts/token/ERC20/ERC20.sol\":3255:3361  function totalSupply() public view virtual override returns (uint256) {... */\n      tag_24\n        /* \"#utility.yul\":1299:1476   */\n      jump\n        /* \"https://github.com/OpenZeppelin/openzeppelin-contracts/blob/master/contracts/token/ERC20/ERC20.sol\":5203:5459  function transferFrom(address from, address to, uint256 amount) public virtual override returns (bool) {... */\n    tag_6:\n      tag_26\n      tag_37\n      calldatasize\n      0x04\n      tag_38\n      jump\t// in\n    tag_37:\n      tag_39\n      jump\t// in\n        /* \"https://github.com/OpenZeppelin/openzeppelin-contracts/blob/master/contracts/token/ERC20/ERC20.sol\":3104:3195  function decimals() public view virtual override returns (uint8) {... */\n    tag_7:\n      mload(0x40)\n        /* \"https://github.com/OpenZeppelin/openzeppelin-contracts/blob/master/contracts/token/ERC20/ERC20.sol\":3186:3188  18 */\n      0x12\n        /* \"#utility.yul\":1956:1992   */\n      dup2\n      mstore\n        /* \"#utility.yul\":1944:1946   */\n      0x20\n        /* \"#utility.yul\":1929:1947   */\n      add\n        /* \"https://github.com/OpenZeppelin/openzeppelin-contracts/blob/master/contracts/token/ERC20/ERC20.sol\":3104:3195  function decimals() public view virtual override returns (uint8) {... */\n      tag_24\n        /* \"#utility.yul\":1814:1998   */\n      jump\n        /* \"https://github.com/OpenZeppelin/openzeppelin-contracts/blob/master/contracts/token/ERC20/ERC20.sol\":5854:6088  function increaseAllowance(address spender, uint256 addedValue) public virtual returns (bool) {... */\n    tag_8:\n      tag_26\n      tag_46\n      calldatasize\n      0x04\n      tag_28\n      jump\t// in\n    tag_46:\n      tag_47\n      jump\t// in\n        /* \"https://github.com/OpenZeppelin/openzeppelin-contracts/blob/master/contracts/token/ERC20/ERC20.sol\":3419:3544  function balanceOf(address account) public view virtual override returns (uint256) {... */\n    tag_9:\n      tag_32\n      tag_50\n      calldatasize\n      0x04\n      tag_51\n      jump\t// in\n    tag_50:\n      sub(shl(0xa0, 0x01), 0x01)\n        /* \"https://github.com/OpenZeppelin/openzeppelin-contracts/blob/master/contracts/token/ERC20/ERC20.sol\":3519:3537  _balances[account] */\n      and\n        /* \"https://github.com/OpenZeppelin/openzeppelin-contracts/blob/master/contracts/token/ERC20/ERC20.sol\":3493:3500  uint256 */\n      0x00\n        /* \"https://github.com/OpenZeppelin/openzeppelin-contracts/blob/master/contracts/token/ERC20/ERC20.sol\":3519:3537  _balances[account] */\n      swap1\n      dup2\n      mstore\n      0x20\n      dup2\n      swap1\n      mstore\n      0x40\n      swap1\n      keccak256\n      sload\n      swap1\n        /* \"https://github.com/OpenZeppelin/openzeppelin-contracts/blob/master/contracts/token/ERC20/ERC20.sol\":3419:3544  function balanceOf(address account) public view virtual override returns (uint256) {... */\n      jump\n        /* \"https://github.com/OpenZeppelin/openzeppelin-contracts/blob/master/contracts/access/Ownable.sol\":1824:1925  function renounceOwnership() public virtual onlyOwner {... */\n    tag_10:\n      tag_54\n      tag_55\n      jump\t// in\n    tag_54:\n      stop\n        /* \"https://github.com/OpenZeppelin/openzeppelin-contracts/blob/master/contracts/access/Ownable.sol\":1201:1286  function owner() public view virtual returns (address) {... */\n    tag_11:\n        /* \"https://github.com/OpenZeppelin/openzeppelin-contracts/blob/master/contracts/access/Ownable.sol\":1273:1279  _owner */\n      sload(0x05)\n        /* \"https://github.com/OpenZeppelin/openzeppelin-contracts/blob/master/contracts/access/Ownable.sol\":1201:1286  function owner() public view virtual returns (address) {... */\n      mload(0x40)\n      sub(shl(0xa0, 0x01), 0x01)\n        /* \"https://github.com/OpenZeppelin/openzeppelin-contracts/blob/master/contracts/access/Ownable.sol\":1273:1279  _owner */\n      swap1\n      swap2\n      and\n        /* \"#utility.yul\":2340:2391   */\n      dup2\n      mstore\n        /* \"#utility.yul\":2328:2330   */\n      0x20\n        /* \"#utility.yul\":2313:2331   */\n      add\n        /* \"https://github.com/OpenZeppelin/openzeppelin-contracts/blob/master/contracts/access/Ownable.sol\":1201:1286  function owner() public view virtual returns (address) {... */\n      tag_24\n        /* \"#utility.yul\":2194:2397   */\n      jump\n        /* \"https://github.com/OpenZeppelin/openzeppelin-contracts/blob/master/contracts/token/ERC20/ERC20.sol\":2369:2471  function symbol() public view virtual override returns (string memory) {... */\n    tag_12:\n      tag_22\n      tag_61\n      jump\t// in\n        /* \"contracts/PropCoin.sol\":681:1041  function mint(uint256 amount) external onlyOwner {... */\n    tag_13:\n      tag_54\n      tag_64\n      calldatasize\n      0x04\n      tag_65\n      jump\t// in\n    tag_64:\n      tag_66\n      jump\t// in\n        /* \"https://github.com/OpenZeppelin/openzeppelin-contracts/blob/master/contracts/token/ERC20/ERC20.sol\":6575:7002  function decreaseAllowance(address spender, uint256 subtractedValue) public virtual returns (bool) {... */\n    tag_14:\n      tag_26\n      tag_68\n      calldatasize\n      0x04\n      tag_28\n      jump\t// in\n    tag_68:\n      tag_69\n      jump\t// in\n        /* \"https://github.com/OpenZeppelin/openzeppelin-contracts/blob/master/contracts/token/ERC20/ERC20.sol\":3740:3929  function transfer(address to, uint256 amount) public virtual override returns (bool) {... */\n    tag_15:\n      tag_26\n      tag_72\n      calldatasize\n      0x04\n      tag_28\n      jump\t// in\n    tag_72:\n      tag_73\n      jump\t// in\n        /* \"https://github.com/OpenZeppelin/openzeppelin-contracts/blob/master/contracts/token/ERC20/ERC20.sol\":3987:4136  function allowance(address owner, address spender) public view virtual override returns (uint256) {... */\n    tag_16:\n      tag_32\n      tag_76\n      calldatasize\n      0x04\n      tag_77\n      jump\t// in\n    tag_76:\n      tag_78\n      jump\t// in\n        /* \"contracts/PropCoin.sol\":571:673  function setBackingWallet(address wallet) external onlyOwner {... */\n    tag_17:\n      tag_54\n      tag_81\n      calldatasize\n      0x04\n      tag_51\n      jump\t// in\n    tag_81:\n      tag_82\n      jump\t// in\n        /* \"https://github.com/OpenZeppelin/openzeppelin-contracts/blob/master/contracts/access/Ownable.sol\":2074:2272  function transferOwnership(address newOwner) public virtual onlyOwner {... */\n    tag_18:\n      tag_54\n      tag_84\n      calldatasize\n      0x04\n      tag_51\n      jump\t// in\n    tag_84:\n      tag_85\n      jump\t// in\n        /* \"https://github.com/OpenZeppelin/openzeppelin-contracts/blob/master/contracts/token/ERC20/ERC20.sol\":2158:2256  function name() public view virtual override returns (string memory) {... */\n    tag_23:\n        /* \"https://github.com/OpenZeppelin/openzeppelin-contracts/blob/master/contracts/token/ERC20/ERC20.sol\":2212:2225  string memory */\n      0x60\n        /* \"https://github.com/OpenZeppelin/openzeppelin-contracts/blob/master/contracts/token/ERC20/ERC20.sol\":2244:2249  _name */\n      0x03\n        /* \"https://github.com/OpenZeppelin/openzeppelin-contracts/blob/master/contracts/token/ERC20/ERC20.sol\":2237:2249  return _name */\n      dup1\n      sload\n      tag_87\n      swap1\n      tag_88\n      jump\t// in\n    tag_87:\n      dup1\n      0x1f\n      add\n      0x20\n      dup1\n      swap2\n      div\n      mul\n      0x20\n      add\n      mload(0x40)\n      swap1\n      dup2\n      add\n      0x40\n      mstore\n      dup1\n      swap3\n      swap2\n      swap1\n      dup2\n      dup2\n      mstore\n      0x20\n      add\n      dup3\n      dup1\n      sload\n      tag_89\n      swap1\n      tag_88\n      jump\t// in\n    tag_89:\n      dup1\n      iszero\n      tag_90\n      jumpi\n      dup1\n      0x1f\n      lt\n      tag_91\n      jumpi\n      0x0100\n      dup1\n      dup4\n      sload\n      div\n      mul\n      dup4\n      mstore\n      swap2\n      0x20\n      add\n      swap2\n      jump(tag_90)\n    tag_91:\n      dup3\n      add\n      swap2\n      swap1\n      0x00\n      mstore\n      keccak256(0x00, 0x20)\n      swap1\n    tag_92:\n      dup2\n      sload\n      dup2\n      mstore\n      swap1\n      0x01\n      add\n      swap1\n      0x20\n      add\n      dup1\n      dup4\n      gt\n      tag_92\n      jumpi\n      dup3\n      swap1\n      sub\n      0x1f\n      and\n      dup3\n      add\n      swap2\n    tag_90:\n      pop\n      pop\n      pop\n      pop\n      pop\n      swap1\n      pop\n        /* \"https://github.com/OpenZeppelin/openzeppelin-contracts/blob/master/contracts/token/ERC20/ERC20.sol\":2158:2256  function name() public view virtual override returns (string memory) {... */\n      swap1\n      jump\t// out\n        /* \"https://github.com/OpenZeppelin/openzeppelin-contracts/blob/master/contracts/token/ERC20/ERC20.sol\":4444:4641  function approve(address spender, uint256 amount) public virtual override returns (bool) {... */\n    tag_29:\n        /* \"https://github.com/OpenZeppelin/openzeppelin-contracts/blob/master/contracts/token/ERC20/ERC20.sol\":4527:4531  bool */\n      0x00\n        /* \"https://github.com/OpenZeppelin/openzeppelin-contracts/blob/master/contracts/utils/Context.sol\":719:729  msg.sender */\n      caller\n        /* \"https://github.com/OpenZeppelin/openzeppelin-contracts/blob/master/contracts/token/ERC20/ERC20.sol\":4581:4613  _approve(owner, spender, amount) */\n      tag_96\n        /* \"https://github.com/OpenZeppelin/openzeppelin-contracts/blob/master/contracts/utils/Context.sol\":719:729  msg.sender */\n      dup2\n        /* \"https://github.com/OpenZeppelin/openzeppelin-contracts/blob/master/contracts/token/ERC20/ERC20.sol\":4597:4604  spender */\n      dup6\n        /* \"https://github.com/OpenZeppelin/openzeppelin-contracts/blob/master/contracts/token/ERC20/ERC20.sol\":4606:4612  amount */\n      dup6\n        /* \"https://github.com/OpenZeppelin/openzeppelin-contracts/blob/master/contracts/token/ERC20/ERC20.sol\":4581:4589  _approve */\n      tag_97\n        /* \"https://github.com/OpenZeppelin/openzeppelin-contracts/blob/master/contracts/token/ERC20/ERC20.sol\":4581:4613  _approve(owner, spender, amount) */\n      jump\t// in\n    tag_96:\n        /* \"https://github.com/OpenZeppelin/openzeppelin-contracts/blob/master/contracts/token/ERC20/ERC20.sol\":4630:4634  true */\n      0x01\n        /* \"https://github.com/OpenZeppelin/openzeppelin-contracts/blob/master/contracts/token/ERC20/ERC20.sol\":4623:4634  return true */\n      swap2\n      pop\n      pop\n        /* \"https://github.com/OpenZeppelin/openzeppelin-contracts/blob/master/contracts/token/ERC20/ERC20.sol\":4444:4641  function approve(address spender, uint256 amount) public virtual override returns (bool) {... */\n    tag_93:\n      swap3\n      swap2\n      pop\n      pop\n      jump\t// out\n        /* \"https://github.com/OpenZeppelin/openzeppelin-contracts/blob/master/contracts/token/ERC20/ERC20.sol\":5203:5459  function transferFrom(address from, address to, uint256 amount) public virtual override returns (bool) {... */\n    tag_39:\n        /* \"https://github.com/OpenZeppelin/openzeppelin-contracts/blob/master/contracts/token/ERC20/ERC20.sol\":5300:5304  bool */\n      0x00\n        /* \"https://github.com/OpenZeppelin/openzeppelin-contracts/blob/master/contracts/utils/Context.sol\":719:729  msg.sender */\n      caller\n        /* \"https://github.com/OpenZeppelin/openzeppelin-contracts/blob/master/contracts/token/ERC20/ERC20.sol\":5356:5394  _spendAllowance(from, spender, amount) */\n      tag_101\n        /* \"https://github.com/OpenZeppelin/openzeppelin-contracts/blob/master/contracts/token/ERC20/ERC20.sol\":5372:5376  from */\n      dup6\n        /* \"https://github.com/OpenZeppelin/openzeppelin-contracts/blob/master/contracts/utils/Context.sol\":719:729  msg.sender */\n      dup3\n        /* \"https://github.com/OpenZeppelin/openzeppelin-contracts/blob/master/contracts/token/ERC20/ERC20.sol\":5387:5393  amount */\n      dup6\n        /* \"https://github.com/OpenZeppelin/openzeppelin-contracts/blob/master/contracts/token/ERC20/ERC20.sol\":5356:5371  _spendAllowance */\n      tag_102\n        /* \"https://github.com/OpenZeppelin/openzeppelin-contracts/blob/master/contracts/token/ERC20/ERC20.sol\":5356:5394  _spendAllowance(from, spender, amount) */\n      jump\t// in\n    tag_101:\n        /* \"https://github.com/OpenZeppelin/openzeppelin-contracts/blob/master/contracts/token/ERC20/ERC20.sol\":5404:5431  _transfer(from, to, amount) */\n      tag_103\n        /* \"https://github.com/OpenZeppelin/openzeppelin-contracts/blob/master/contracts/token/ERC20/ERC20.sol\":5414:5418  from */\n      dup6\n        /* \"https://github.com/OpenZeppelin/openzeppelin-contracts/blob/master/contracts/token/ERC20/ERC20.sol\":5420:5422  to */\n      dup6\n        /* \"https://github.com/OpenZeppelin/openzeppelin-contracts/blob/master/contracts/token/ERC20/ERC20.sol\":5424:5430  amount */\n      dup6\n        /* \"https://github.com/OpenZeppelin/openzeppelin-contracts/blob/master/contracts/token/ERC20/ERC20.sol\":5404:5413  _transfer */\n      tag_104\n        /* \"https://github.com/OpenZeppelin/openzeppelin-contracts/blob/master/contracts/token/ERC20/ERC20.sol\":5404:5431  _transfer(from, to, amount) */\n      jump\t// in\n    tag_103:\n      pop\n        /* \"https://github.com/OpenZeppelin/openzeppelin-contracts/blob/master/contracts/token/ERC20/ERC20.sol\":5448:5452  true */\n      0x01\n      swap5\n        /* \"https://github.com/OpenZeppelin/openzeppelin-contracts/blob/master/contracts/token/ERC20/ERC20.sol\":5203:5459  function transferFrom(address from, address to, uint256 amount) public virtual override returns (bool) {... */\n      swap4\n      pop\n      pop\n      pop\n      pop\n      jump\t// out\n        /* \"https://github.com/OpenZeppelin/openzeppelin-contracts/blob/master/contracts/token/ERC20/ERC20.sol\":5854:6088  function increaseAllowance(address spender, uint256 addedValue) public virtual returns (bool) {... */\n    tag_47:\n        /* \"https://github.com/OpenZeppelin/openzeppelin-contracts/blob/master/contracts/token/ERC20/ERC20.sol\":5942:5946  bool */\n      0x00\n        /* \"https://github.com/OpenZeppelin/openzeppelin-contracts/blob/master/contracts/utils/Context.sol\":719:729  msg.sender */\n      caller\n        /* \"https://github.com/OpenZeppelin/openzeppelin-contracts/blob/master/contracts/token/ERC20/ERC20.sol\":5996:6060  _approve(owner, spender, allowance(owner, spender) + addedValue) */\n      tag_96\n        /* \"https://github.com/OpenZeppelin/openzeppelin-contracts/blob/master/contracts/utils/Context.sol\":719:729  msg.sender */\n      dup2\n        /* \"https://github.com/OpenZeppelin/openzeppelin-contracts/blob/master/contracts/token/ERC20/ERC20.sol\":6012:6019  spender */\n      dup6\n        /* \"https://github.com/OpenZeppelin/openzeppelin-contracts/blob/master/contracts/token/ERC20/ERC20.sol\":6049:6059  addedValue */\n      dup6\n        /* \"https://github.com/OpenZeppelin/openzeppelin-contracts/blob/master/contracts/token/ERC20/ERC20.sol\":6021:6046  allowance(owner, spender) */\n      tag_109\n        /* \"https://github.com/OpenZeppelin/openzeppelin-contracts/blob/master/contracts/utils/Context.sol\":719:729  msg.sender */\n      dup4\n        /* \"https://github.com/OpenZeppelin/openzeppelin-contracts/blob/master/contracts/token/ERC20/ERC20.sol\":6012:6019  spender */\n      dup4\n        /* \"https://github.com/OpenZeppelin/openzeppelin-contracts/blob/master/contracts/token/ERC20/ERC20.sol\":6021:6030  allowance */\n      tag_78\n        /* \"https://github.com/OpenZeppelin/openzeppelin-contracts/blob/master/contracts/token/ERC20/ERC20.sol\":6021:6046  allowance(owner, spender) */\n      jump\t// in\n    tag_109:\n        /* \"https://github.com/OpenZeppelin/openzeppelin-contracts/blob/master/contracts/token/ERC20/ERC20.sol\":6021:6059  allowance(owner, spender) + addedValue */\n      tag_110\n      swap2\n      swap1\n      tag_111\n      jump\t// in\n    tag_110:\n        /* \"https://github.com/OpenZeppelin/openzeppelin-contracts/blob/master/contracts/token/ERC20/ERC20.sol\":5996:6004  _approve */\n      tag_97\n        /* \"https://github.com/OpenZeppelin/openzeppelin-contracts/blob/master/contracts/token/ERC20/ERC20.sol\":5996:6060  _approve(owner, spender, allowance(owner, spender) + addedValue) */\n      jump\t// in\n        /* \"https://github.com/OpenZeppelin/openzeppelin-contracts/blob/master/contracts/access/Ownable.sol\":1824:1925  function renounceOwnership() public virtual onlyOwner {... */\n    tag_55:\n        /* \"https://github.com/OpenZeppelin/openzeppelin-contracts/blob/master/contracts/access/Ownable.sol\":1094:1107  _checkOwner() */\n      tag_114\n        /* \"https://github.com/OpenZeppelin/openzeppelin-contracts/blob/master/contracts/access/Ownable.sol\":1094:1105  _checkOwner */\n      tag_115\n        /* \"https://github.com/OpenZeppelin/openzeppelin-contracts/blob/master/contracts/access/Ownable.sol\":1094:1107  _checkOwner() */\n      jump\t// in\n    tag_114:\n        /* \"https://github.com/OpenZeppelin/openzeppelin-contracts/blob/master/contracts/access/Ownable.sol\":1888:1918  _transferOwnership(address(0)) */\n      tag_117\n        /* \"https://github.com/OpenZeppelin/openzeppelin-contracts/blob/master/contracts/access/Ownable.sol\":1915:1916  0 */\n      0x00\n        /* \"https://github.com/OpenZeppelin/openzeppelin-contracts/blob/master/contracts/access/Ownable.sol\":1888:1906  _transferOwnership */\n      tag_118\n        /* \"https://github.com/OpenZeppelin/openzeppelin-contracts/blob/master/contracts/access/Ownable.sol\":1888:1918  _transferOwnership(address(0)) */\n      jump\t// in\n    tag_117:\n        /* \"https://github.com/OpenZeppelin/openzeppelin-contracts/blob/master/contracts/access/Ownable.sol\":1824:1925  function renounceOwnership() public virtual onlyOwner {... */\n      jump\t// out\n        /* \"https://github.com/OpenZeppelin/openzeppelin-contracts/blob/master/contracts/token/ERC20/ERC20.sol\":2369:2471  function symbol() public view virtual override returns (string memory) {... */\n    tag_61:\n        /* \"https://github.com/OpenZeppelin/openzeppelin-contracts/blob/master/contracts/token/ERC20/ERC20.sol\":2425:2438  string memory */\n      0x60\n        /* \"https://github.com/OpenZeppelin/openzeppelin-contracts/blob/master/contracts/token/ERC20/ERC20.sol\":2457:2464  _symbol */\n      0x04\n        /* \"https://github.com/OpenZeppelin/openzeppelin-contracts/blob/master/contracts/token/ERC20/ERC20.sol\":2450:2464  return _symbol */\n      dup1\n      sload\n      tag_87\n      swap1\n      tag_88\n      jump\t// in\n        /* \"contracts/PropCoin.sol\":681:1041  function mint(uint256 amount) external onlyOwner {... */\n    tag_66:\n        /* \"https://github.com/OpenZeppelin/openzeppelin-contracts/blob/master/contracts/access/Ownable.sol\":1094:1107  _checkOwner() */\n      tag_127\n        /* \"https://github.com/OpenZeppelin/openzeppelin-contracts/blob/master/contracts/access/Ownable.sol\":1094:1105  _checkOwner */\n      tag_115\n        /* \"https://github.com/OpenZeppelin/openzeppelin-contracts/blob/master/contracts/access/Ownable.sol\":1094:1107  _checkOwner() */\n      jump\t// in\n    tag_127:\n        /* \"contracts/PropCoin.sol\":879:892  backingWallet */\n      sload(0x06)\n        /* \"contracts/PropCoin.sol\":864:893  usdt.balanceOf(backingWallet) */\n      mload(0x40)\n      shl(0xe0, 0x70a08231)\n      dup2\n      mstore\n      sub(shl(0xa0, 0x01), 0x01)\n        /* \"contracts/PropCoin.sol\":879:892  backingWallet */\n      swap1\n      swap2\n      and\n        /* \"contracts/PropCoin.sol\":864:893  usdt.balanceOf(backingWallet) */\n      0x04\n      dup3\n      add\n        /* \"#utility.yul\":2340:2391   */\n      mstore\n        /* \"contracts/PropCoin.sol\":770:812  0x55d398326f99059fF775485246999027B3197955 */\n      0x55d398326f99059ff775485246999027b3197955\n      swap1\n        /* \"contracts/PropCoin.sol\":897:903  amount */\n      dup3\n      swap1\n        /* \"contracts/PropCoin.sol\":770:812  0x55d398326f99059fF775485246999027B3197955 */\n      dup3\n      swap1\n        /* \"contracts/PropCoin.sol\":864:878  usdt.balanceOf */\n      0x70a08231\n      swap1\n        /* \"#utility.yul\":2313:2331   */\n      0x24\n      add\n        /* \"contracts/PropCoin.sol\":864:893  usdt.balanceOf(backingWallet) */\n      0x20\n      mload(0x40)\n      dup1\n      dup4\n      sub\n      dup2\n      dup7\n      gas\n      staticcall\n      iszero\n      dup1\n      iszero\n      tag_131\n      jumpi\n      returndatasize\n      0x00\n      dup1\n      returndatacopy\n      revert(0x00, returndatasize)\n    tag_131:\n      pop\n      pop\n      pop\n      pop\n      mload(0x40)\n      returndatasize\n      not(0x1f)\n      0x1f\n      dup3\n      add\n      and\n      dup3\n      add\n      dup1\n      0x40\n      mstore\n      pop\n      dup2\n      add\n      swap1\n      tag_132\n      swap2\n      swap1\n      tag_133\n      jump\t// in\n    tag_132:\n        /* \"contracts/PropCoin.sol\":864:903  usdt.balanceOf(backingWallet) >= amount */\n      lt\n      iszero\n        /* \"contracts/PropCoin.sol\":856:928  require(usdt.balanceOf(backingWallet) >= amount, \"Insufficient backing\") */\n      tag_134\n      jumpi\n      mload(0x40)\n      shl(0xe5, 0x461bcd)\n      dup2\n      mstore\n        /* \"#utility.yul\":3855:3857   */\n      0x20\n        /* \"contracts/PropCoin.sol\":856:928  require(usdt.balanceOf(backingWallet) >= amount, \"Insufficient backing\") */\n      0x04\n      dup3\n      add\n        /* \"#utility.yul\":3837:3858   */\n      mstore\n        /* \"#utility.yul\":3894:3896   */\n      0x14\n        /* \"#utility.yul\":3874:3892   */\n      0x24\n      dup3\n      add\n        /* \"#utility.yul\":3867:3897   */\n      mstore\n      shl(0x60, 0x496e73756666696369656e74206261636b696e67)\n        /* \"#utility.yul\":3913:3931   */\n      0x44\n      dup3\n      add\n        /* \"#utility.yul\":3906:3956   */\n      mstore\n        /* \"#utility.yul\":3973:3991   */\n      0x64\n      add\n        /* \"contracts/PropCoin.sol\":856:928  require(usdt.balanceOf(backingWallet) >= amount, \"Insufficient backing\") */\n    tag_135:\n      mload(0x40)\n      dup1\n      swap2\n      sub\n      swap1\n      revert\n    tag_134:\n        /* \"contracts/PropCoin.sol\":963:976  backingWallet */\n      sload(0x06)\n        /* \"contracts/PropCoin.sol\":941:997  usdt.safeTransferFrom(backingWallet, msg.sender, amount) */\n      tag_137\n      swap1\n      sub(shl(0xa0, 0x01), 0x01)\n        /* \"contracts/PropCoin.sol\":941:962  usdt.safeTransferFrom */\n      dup4\n      dup2\n      and\n      swap2\n        /* \"contracts/PropCoin.sol\":963:976  backingWallet */\n      and\n        /* \"contracts/PropCoin.sol\":978:988  msg.sender */\n      caller\n        /* \"contracts/PropCoin.sol\":990:996  amount */\n      dup6\n        /* \"contracts/PropCoin.sol\":941:962  usdt.safeTransferFrom */\n      tag_138\n        /* \"contracts/PropCoin.sol\":941:997  usdt.safeTransferFrom(backingWallet, msg.sender, amount) */\n      jump\t// in\n    tag_137:\n        /* \"contracts/PropCoin.sol\":1008:1033  _mint(msg.sender, amount) */\n      tag_139\n        /* \"contracts/PropCoin.sol\":1014:1024  msg.sender */\n      caller\n        /* \"contracts/PropCoin.sol\":1026:1032  amount */\n      dup4\n        /* \"contracts/PropCoin.sol\":1008:1013  _mint */\n      tag_140\n        /* \"contracts/PropCoin.sol\":1008:1033  _mint(msg.sender, amount) */\n      jump\t// in\n    tag_139:\n        /* \"contracts/PropCoin.sol\":730:1041  {... */\n      pop\n        /* \"contracts/PropCoin.sol\":681:1041  function mint(uint256 amount) external onlyOwner {... */\n      pop\n      jump\t// out\n        /* \"https://github.com/OpenZeppelin/openzeppelin-contracts/blob/master/contracts/token/ERC20/ERC20.sol\":6575:7002  function decreaseAllowance(address spender, uint256 subtractedValue) public virtual returns (bool) {... */\n    tag_69:\n        /* \"https://github.com/OpenZeppelin/openzeppelin-contracts/blob/master/contracts/token/ERC20/ERC20.sol\":6668:6672  bool */\n      0x00\n        /* \"https://github.com/OpenZeppelin/openzeppelin-contracts/blob/master/contracts/utils/Context.sol\":719:729  msg.sender */\n      caller\n        /* \"https://github.com/OpenZeppelin/openzeppelin-contracts/blob/master/contracts/token/ERC20/ERC20.sol\":6668:6672  bool */\n      dup2\n        /* \"https://github.com/OpenZeppelin/openzeppelin-contracts/blob/master/contracts/token/ERC20/ERC20.sol\":6749:6774  allowance(owner, spender) */\n      tag_143\n        /* \"https://github.com/OpenZeppelin/openzeppelin-contracts/blob/master/contracts/utils/Context.sol\":719:729  msg.sender */\n      dup3\n        /* \"https://github.com/OpenZeppelin/openzeppelin-contracts/blob/master/contracts/token/ERC20/ERC20.sol\":6766:6773  spender */\n      dup7\n        /* \"https://github.com/OpenZeppelin/openzeppelin-contracts/blob/master/contracts/token/ERC20/ERC20.sol\":6749:6758  allowance */\n      tag_78\n        /* \"https://github.com/OpenZeppelin/openzeppelin-contracts/blob/master/contracts/token/ERC20/ERC20.sol\":6749:6774  allowance(owner, spender) */\n      jump\t// in\n    tag_143:\n        /* \"https://github.com/OpenZeppelin/openzeppelin-contracts/blob/master/contracts/token/ERC20/ERC20.sol\":6722:6774  uint256 currentAllowance = allowance(owner, spender) */\n      swap1\n      pop\n        /* \"https://github.com/OpenZeppelin/openzeppelin-contracts/blob/master/contracts/token/ERC20/ERC20.sol\":6812:6827  subtractedValue */\n      dup4\n        /* \"https://github.com/OpenZeppelin/openzeppelin-contracts/blob/master/contracts/token/ERC20/ERC20.sol\":6792:6808  currentAllowance */\n      dup2\n        /* \"https://github.com/OpenZeppelin/openzeppelin-contracts/blob/master/contracts/token/ERC20/ERC20.sol\":6792:6827  currentAllowance >= subtractedValue */\n      lt\n      iszero\n        /* \"https://github.com/OpenZeppelin/openzeppelin-contracts/blob/master/contracts/token/ERC20/ERC20.sol\":6784:6869  require(currentAllowance >= subtractedValue, \"ERC20: decreased allowance below zero\") */\n      tag_144\n      jumpi\n      mload(0x40)\n      shl(0xe5, 0x461bcd)\n      dup2\n      mstore\n        /* \"#utility.yul\":4204:4206   */\n      0x20\n        /* \"https://github.com/OpenZeppelin/openzeppelin-contracts/blob/master/contracts/token/ERC20/ERC20.sol\":6784:6869  require(currentAllowance >= subtractedValue, \"ERC20: decreased allowance below zero\") */\n      0x04\n      dup3\n      add\n        /* \"#utility.yul\":4186:4207   */\n      mstore\n        /* \"#utility.yul\":4243:4245   */\n      0x25\n        /* \"#utility.yul\":4223:4241   */\n      0x24\n      dup3\n      add\n        /* \"#utility.yul\":4216:4246   */\n      mstore\n        /* \"#utility.yul\":4282:4316   */\n      0x45524332303a2064656372656173656420616c6c6f77616e63652062656c6f77\n        /* \"#utility.yul\":4262:4280   */\n      0x44\n      dup3\n      add\n        /* \"#utility.yul\":4255:4317   */\n      mstore\n      shl(0xd8, 0x207a65726f)\n        /* \"#utility.yul\":4333:4351   */\n      0x64\n      dup3\n      add\n        /* \"#utility.yul\":4326:4361   */\n      mstore\n        /* \"#utility.yul\":4378:4397   */\n      0x84\n      add\n        /* \"https://github.com/OpenZeppelin/openzeppelin-contracts/blob/master/contracts/token/ERC20/ERC20.sol\":6784:6869  require(currentAllowance >= subtractedValue, \"ERC20: decreased allowance below zero\") */\n      tag_135\n        /* \"#utility.yul\":4002:4403   */\n      jump\n        /* \"https://github.com/OpenZeppelin/openzeppelin-contracts/blob/master/contracts/token/ERC20/ERC20.sol\":6784:6869  require(currentAllowance >= subtractedValue, \"ERC20: decreased allowance below zero\") */\n    tag_144:\n        /* \"https://github.com/OpenZeppelin/openzeppelin-contracts/blob/master/contracts/token/ERC20/ERC20.sol\":6903:6963  _approve(owner, spender, currentAllowance - subtractedValue) */\n      tag_103\n        /* \"https://github.com/OpenZeppelin/openzeppelin-contracts/blob/master/contracts/token/ERC20/ERC20.sol\":6912:6917  owner */\n      dup3\n        /* \"https://github.com/OpenZeppelin/openzeppelin-contracts/blob/master/contracts/token/ERC20/ERC20.sol\":6919:6926  spender */\n      dup7\n        /* \"https://github.com/OpenZeppelin/openzeppelin-contracts/blob/master/contracts/token/ERC20/ERC20.sol\":6947:6962  subtractedValue */\n      dup7\n        /* \"https://github.com/OpenZeppelin/openzeppelin-contracts/blob/master/contracts/token/ERC20/ERC20.sol\":6928:6944  currentAllowance */\n      dup5\n        /* \"https://github.com/OpenZeppelin/openzeppelin-contracts/blob/master/contracts/token/ERC20/ERC20.sol\":6928:6962  currentAllowance - subtractedValue */\n      sub\n        /* \"https://github.com/OpenZeppelin/openzeppelin-contracts/blob/master/contracts/token/ERC20/ERC20.sol\":6903:6911  _approve */\n      tag_97\n        /* \"https://github.com/OpenZeppelin/openzeppelin-contracts/blob/master/contracts/token/ERC20/ERC20.sol\":6903:6963  _approve(owner, spender, currentAllowance - subtractedValue) */\n      jump\t// in\n        /* \"https://github.com/OpenZeppelin/openzeppelin-contracts/blob/master/contracts/token/ERC20/ERC20.sol\":3740:3929  function transfer(address to, uint256 amount) public virtual override returns (bool) {... */\n    tag_73:\n        /* \"https://github.com/OpenZeppelin/openzeppelin-contracts/blob/master/contracts/token/ERC20/ERC20.sol\":3819:3823  bool */\n      0x00\n        /* \"https://github.com/OpenZeppelin/openzeppelin-contracts/blob/master/contracts/utils/Context.sol\":719:729  msg.sender */\n      caller\n        /* \"https://github.com/OpenZeppelin/openzeppelin-contracts/blob/master/contracts/token/ERC20/ERC20.sol\":3873:3901  _transfer(owner, to, amount) */\n      tag_96\n        /* \"https://github.com/OpenZeppelin/openzeppelin-contracts/blob/master/contracts/utils/Context.sol\":719:729  msg.sender */\n      dup2\n        /* \"https://github.com/OpenZeppelin/openzeppelin-contracts/blob/master/contracts/token/ERC20/ERC20.sol\":3890:3892  to */\n      dup6\n        /* \"https://github.com/OpenZeppelin/openzeppelin-contracts/blob/master/contracts/token/ERC20/ERC20.sol\":3894:3900  amount */\n      dup6\n        /* \"https://github.com/OpenZeppelin/openzeppelin-contracts/blob/master/contracts/token/ERC20/ERC20.sol\":3873:3882  _transfer */\n      tag_104\n        /* \"https://github.com/OpenZeppelin/openzeppelin-contracts/blob/master/contracts/token/ERC20/ERC20.sol\":3873:3901  _transfer(owner, to, amount) */\n      jump\t// in\n        /* \"https://github.com/OpenZeppelin/openzeppelin-contracts/blob/master/contracts/token/ERC20/ERC20.sol\":3987:4136  function allowance(address owner, address spender) public view virtual override returns (uint256) {... */\n    tag_78:\n      sub(shl(0xa0, 0x01), 0x01)\n        /* \"https://github.com/OpenZeppelin/openzeppelin-contracts/blob/master/contracts/token/ERC20/ERC20.sol\":4102:4120  _allowances[owner] */\n      swap2\n      dup3\n      and\n        /* \"https://github.com/OpenZeppelin/openzeppelin-contracts/blob/master/contracts/token/ERC20/ERC20.sol\":4076:4083  uint256 */\n      0x00\n        /* \"https://github.com/OpenZeppelin/openzeppelin-contracts/blob/master/contracts/token/ERC20/ERC20.sol\":4102:4120  _allowances[owner] */\n      swap1\n      dup2\n      mstore\n        /* \"https://github.com/OpenZeppelin/openzeppelin-contracts/blob/master/contracts/token/ERC20/ERC20.sol\":4102:4113  _allowances */\n      0x01\n        /* \"https://github.com/OpenZeppelin/openzeppelin-contracts/blob/master/contracts/token/ERC20/ERC20.sol\":4102:4120  _allowances[owner] */\n      0x20\n      swap1\n      dup2\n      mstore\n      0x40\n      dup1\n      dup4\n      keccak256\n        /* \"https://github.com/OpenZeppelin/openzeppelin-contracts/blob/master/contracts/token/ERC20/ERC20.sol\":4102:4129  _allowances[owner][spender] */\n      swap4\n      swap1\n      swap5\n      and\n      dup3\n      mstore\n      swap2\n      swap1\n      swap2\n      mstore\n      keccak256\n      sload\n      swap1\n        /* \"https://github.com/OpenZeppelin/openzeppelin-contracts/blob/master/contracts/token/ERC20/ERC20.sol\":3987:4136  function allowance(address owner, address spender) public view virtual override returns (uint256) {... */\n      jump\t// out\n        /* \"contracts/PropCoin.sol\":571:673  function setBackingWallet(address wallet) external onlyOwner {... */\n    tag_82:\n        /* \"https://github.com/OpenZeppelin/openzeppelin-contracts/blob/master/contracts/access/Ownable.sol\":1094:1107  _checkOwner() */\n      tag_153\n        /* \"https://github.com/OpenZeppelin/openzeppelin-contracts/blob/master/contracts/access/Ownable.sol\":1094:1105  _checkOwner */\n      tag_115\n        /* \"https://github.com/OpenZeppelin/openzeppelin-contracts/blob/master/contracts/access/Ownable.sol\":1094:1107  _checkOwner() */\n      jump\t// in\n    tag_153:\n        /* \"contracts/PropCoin.sol\":643:656  backingWallet */\n      0x06\n        /* \"contracts/PropCoin.sol\":643:665  backingWallet = wallet */\n      dup1\n      sload\n      not(sub(shl(0xa0, 0x01), 0x01))\n      and\n      sub(shl(0xa0, 0x01), 0x01)\n      swap3\n      swap1\n      swap3\n      and\n      swap2\n      swap1\n      swap2\n      or\n      swap1\n      sstore\n        /* \"contracts/PropCoin.sol\":571:673  function setBackingWallet(address wallet) external onlyOwner {... */\n      jump\t// out\n        /* \"https://github.com/OpenZeppelin/openzeppelin-contracts/blob/master/contracts/access/Ownable.sol\":2074:2272  function transferOwnership(address newOwner) public virtual onlyOwner {... */\n    tag_85:\n        /* \"https://github.com/OpenZeppelin/openzeppelin-contracts/blob/master/contracts/access/Ownable.sol\":1094:1107  _checkOwner() */\n      tag_156\n        /* \"https://github.com/OpenZeppelin/openzeppelin-contracts/blob/master/contracts/access/Ownable.sol\":1094:1105  _checkOwner */\n      tag_115\n        /* \"https://github.com/OpenZeppelin/openzeppelin-contracts/blob/master/contracts/access/Ownable.sol\":1094:1107  _checkOwner() */\n      jump\t// in\n    tag_156:\n      sub(shl(0xa0, 0x01), 0x01)\n        /* \"https://github.com/OpenZeppelin/openzeppelin-contracts/blob/master/contracts/access/Ownable.sol\":2162:2184  newOwner != address(0) */\n      dup2\n      and\n        /* \"https://github.com/OpenZeppelin/openzeppelin-contracts/blob/master/contracts/access/Ownable.sol\":2154:2227  require(newOwner != address(0), \"Ownable: new owner is the zero address\") */\n      tag_158\n      jumpi\n      mload(0x40)\n      shl(0xe5, 0x461bcd)\n      dup2\n      mstore\n        /* \"#utility.yul\":4610:4612   */\n      0x20\n        /* \"https://github.com/OpenZeppelin/openzeppelin-contracts/blob/master/contracts/access/Ownable.sol\":2154:2227  require(newOwner != address(0), \"Ownable: new owner is the zero address\") */\n      0x04\n      dup3\n      add\n        /* \"#utility.yul\":4592:4613   */\n      mstore\n        /* \"#utility.yul\":4649:4651   */\n      0x26\n        /* \"#utility.yul\":4629:4647   */\n      0x24\n      dup3\n      add\n        /* \"#utility.yul\":4622:4652   */\n      mstore\n        /* \"#utility.yul\":4688:4722   */\n      0x4f776e61626c653a206e6577206f776e657220697320746865207a65726f2061\n        /* \"#utility.yul\":4668:4686   */\n      0x44\n      dup3\n      add\n        /* \"#utility.yul\":4661:4723   */\n      mstore\n      shl(0xd0, 0x646472657373)\n        /* \"#utility.yul\":4739:4757   */\n      0x64\n      dup3\n      add\n        /* \"#utility.yul\":4732:4768   */\n      mstore\n        /* \"#utility.yul\":4785:4804   */\n      0x84\n      add\n        /* \"https://github.com/OpenZeppelin/openzeppelin-contracts/blob/master/contracts/access/Ownable.sol\":2154:2227  require(newOwner != address(0), \"Ownable: new owner is the zero address\") */\n      tag_135\n        /* \"#utility.yul\":4408:4810   */\n      jump\n        /* \"https://github.com/OpenZeppelin/openzeppelin-contracts/blob/master/contracts/access/Ownable.sol\":2154:2227  require(newOwner != address(0), \"Ownable: new owner is the zero address\") */\n    tag_158:\n        /* \"https://github.com/OpenZeppelin/openzeppelin-contracts/blob/master/contracts/access/Ownable.sol\":2237:2265  _transferOwnership(newOwner) */\n      tag_161\n        /* \"https://github.com/OpenZeppelin/openzeppelin-contracts/blob/master/contracts/access/Ownable.sol\":2256:2264  newOwner */\n      dup2\n        /* \"https://github.com/OpenZeppelin/openzeppelin-contracts/blob/master/contracts/access/Ownable.sol\":2237:2255  _transferOwnership */\n      tag_118\n        /* \"https://github.com/OpenZeppelin/openzeppelin-contracts/blob/master/contracts/access/Ownable.sol\":2237:2265  _transferOwnership(newOwner) */\n      jump\t// in\n    tag_161:\n        /* \"https://github.com/OpenZeppelin/openzeppelin-contracts/blob/master/contracts/access/Ownable.sol\":2074:2272  function transferOwnership(address newOwner) public virtual onlyOwner {... */\n      pop\n      jump\t// out\n        /* \"https://github.com/OpenZeppelin/openzeppelin-contracts/blob/master/contracts/token/ERC20/ERC20.sol\":10457:10797  function _approve(address owner, address spender, uint256 amount) internal virtual {... */\n    tag_97:\n      sub(shl(0xa0, 0x01), 0x01)\n        /* \"https://github.com/OpenZeppelin/openzeppelin-contracts/blob/master/contracts/token/ERC20/ERC20.sol\":10558:10577  owner != address(0) */\n      dup4\n      and\n        /* \"https://github.com/OpenZeppelin/openzeppelin-contracts/blob/master/contracts/token/ERC20/ERC20.sol\":10550:10618  require(owner != address(0), \"ERC20: approve from the zero address\") */\n      tag_164\n      jumpi\n      mload(0x40)\n      shl(0xe5, 0x461bcd)\n      dup2\n      mstore\n        /* \"#utility.yul\":5017:5019   */\n      0x20\n        /* \"https://github.com/OpenZeppelin/openzeppelin-contracts/blob/master/contracts/token/ERC20/ERC20.sol\":10550:10618  require(owner != address(0), \"ERC20: approve from the zero address\") */\n      0x04\n      dup3\n      add\n        /* \"#utility.yul\":4999:5020   */\n      mstore\n        /* \"#utility.yul\":5056:5058   */\n      0x24\n        /* \"#utility.yul\":5036:5054   */\n      dup1\n      dup3\n      add\n        /* \"#utility.yul\":5029:5059   */\n      mstore\n        /* \"#utility.yul\":5095:5129   */\n      0x45524332303a20617070726f76652066726f6d20746865207a65726f20616464\n        /* \"#utility.yul\":5075:5093   */\n      0x44\n      dup3\n      add\n        /* \"#utility.yul\":5068:5130   */\n      mstore\n      shl(0xe0, 0x72657373)\n        /* \"#utility.yul\":5146:5164   */\n      0x64\n      dup3\n      add\n        /* \"#utility.yul\":5139:5173   */\n      mstore\n        /* \"#utility.yul\":5190:5209   */\n      0x84\n      add\n        /* \"https://github.com/OpenZeppelin/openzeppelin-contracts/blob/master/contracts/token/ERC20/ERC20.sol\":10550:10618  require(owner != address(0), \"ERC20: approve from the zero address\") */\n      tag_135\n        /* \"#utility.yul\":4815:5215   */\n      jump\n        /* \"https://github.com/OpenZeppelin/openzeppelin-contracts/blob/master/contracts/token/ERC20/ERC20.sol\":10550:10618  require(owner != address(0), \"ERC20: approve from the zero address\") */\n    tag_164:\n      sub(shl(0xa0, 0x01), 0x01)\n        /* \"https://github.com/OpenZeppelin/openzeppelin-contracts/blob/master/contracts/token/ERC20/ERC20.sol\":10636:10657  spender != address(0) */\n      dup3\n      and\n        /* \"https://github.com/OpenZeppelin/openzeppelin-contracts/blob/master/contracts/token/ERC20/ERC20.sol\":10628:10696  require(spender != address(0), \"ERC20: approve to the zero address\") */\n      tag_167\n      jumpi\n      mload(0x40)\n      shl(0xe5, 0x461bcd)\n      dup2\n      mstore\n        /* \"#utility.yul\":5422:5424   */\n      0x20\n        /* \"https://github.com/OpenZeppelin/openzeppelin-contracts/blob/master/contracts/token/ERC20/ERC20.sol\":10628:10696  require(spender != address(0), \"ERC20: approve to the zero address\") */\n      0x04\n      dup3\n      add\n        /* \"#utility.yul\":5404:5425   */\n      mstore\n        /* \"#utility.yul\":5461:5463   */\n      0x22\n        /* \"#utility.yul\":5441:5459   */\n      0x24\n      dup3\n      add\n        /* \"#utility.yul\":5434:5464   */\n      mstore\n        /* \"#utility.yul\":5500:5534   */\n      0x45524332303a20617070726f766520746f20746865207a65726f206164647265\n        /* \"#utility.yul\":5480:5498   */\n      0x44\n      dup3\n      add\n        /* \"#utility.yul\":5473:5535   */\n      mstore\n      shl(0xf0, 0x7373)\n        /* \"#utility.yul\":5551:5569   */\n      0x64\n      dup3\n      add\n        /* \"#utility.yul\":5544:5576   */\n      mstore\n        /* \"#utility.yul\":5593:5612   */\n      0x84\n      add\n        /* \"https://github.com/OpenZeppelin/openzeppelin-contracts/blob/master/contracts/token/ERC20/ERC20.sol\":10628:10696  require(spender != address(0), \"ERC20: approve to the zero address\") */\n      tag_135\n        /* \"#utility.yul\":5220:5618   */\n      jump\n        /* \"https://github.com/OpenZeppelin/openzeppelin-contracts/blob/master/contracts/token/ERC20/ERC20.sol\":10628:10696  require(spender != address(0), \"ERC20: approve to the zero address\") */\n    tag_167:\n      sub(shl(0xa0, 0x01), 0x01)\n        /* \"https://github.com/OpenZeppelin/openzeppelin-contracts/blob/master/contracts/token/ERC20/ERC20.sol\":10707:10725  _allowances[owner] */\n      dup4\n      dup2\n      and\n      0x00\n      dup2\n      dup2\n      mstore\n        /* \"https://github.com/OpenZeppelin/openzeppelin-contracts/blob/master/contracts/token/ERC20/ERC20.sol\":10707:10718  _allowances */\n      0x01\n        /* \"https://github.com/OpenZeppelin/openzeppelin-contracts/blob/master/contracts/token/ERC20/ERC20.sol\":10707:10725  _allowances[owner] */\n      0x20\n      swap1\n      dup2\n      mstore\n      0x40\n      dup1\n      dup4\n      keccak256\n        /* \"https://github.com/OpenZeppelin/openzeppelin-contracts/blob/master/contracts/token/ERC20/ERC20.sol\":10707:10734  _allowances[owner][spender] */\n      swap5\n      dup8\n      and\n      dup1\n      dup5\n      mstore\n      swap5\n      dup3\n      mstore\n      swap2\n      dup3\n      swap1\n      keccak256\n        /* \"https://github.com/OpenZeppelin/openzeppelin-contracts/blob/master/contracts/token/ERC20/ERC20.sol\":10707:10743  _allowances[owner][spender] = amount */\n      dup6\n      swap1\n      sstore\n        /* \"https://github.com/OpenZeppelin/openzeppelin-contracts/blob/master/contracts/token/ERC20/ERC20.sol\":10758:10790  Approval(owner, spender, amount) */\n      swap1\n      mload\n        /* \"#utility.yul\":1445:1470   */\n      dup5\n      dup2\n      mstore\n        /* \"https://github.com/OpenZeppelin/openzeppelin-contracts/blob/master/contracts/token/ERC20/ERC20.sol\":10758:10790  Approval(owner, spender, amount) */\n      0x8c5be1e5ebec7d5bd14f71427d1e84f3dd0314c0f7b2291e5b200ac8c7c3b925\n      swap2\n        /* \"#utility.yul\":1418:1436   */\n      add\n        /* \"https://github.com/OpenZeppelin/openzeppelin-contracts/blob/master/contracts/token/ERC20/ERC20.sol\":10758:10790  Approval(owner, spender, amount) */\n      mload(0x40)\n      dup1\n      swap2\n      sub\n      swap1\n      log3\n        /* \"https://github.com/OpenZeppelin/openzeppelin-contracts/blob/master/contracts/token/ERC20/ERC20.sol\":10457:10797  function _approve(address owner, address spender, uint256 amount) internal virtual {... */\n      pop\n      pop\n      pop\n      jump\t// out\n        /* \"https://github.com/OpenZeppelin/openzeppelin-contracts/blob/master/contracts/token/ERC20/ERC20.sol\":11078:11489  function _spendAllowance(address owner, address spender, uint256 amount) internal virtual {... */\n    tag_102:\n        /* \"https://github.com/OpenZeppelin/openzeppelin-contracts/blob/master/contracts/token/ERC20/ERC20.sol\":11178:11202  uint256 currentAllowance */\n      0x00\n        /* \"https://github.com/OpenZeppelin/openzeppelin-contracts/blob/master/contracts/token/ERC20/ERC20.sol\":11205:11230  allowance(owner, spender) */\n      tag_172\n        /* \"https://github.com/OpenZeppelin/openzeppelin-contracts/blob/master/contracts/token/ERC20/ERC20.sol\":11215:11220  owner */\n      dup5\n        /* \"https://github.com/OpenZeppelin/openzeppelin-contracts/blob/master/contracts/token/ERC20/ERC20.sol\":11222:11229  spender */\n      dup5\n        /* \"https://github.com/OpenZeppelin/openzeppelin-contracts/blob/master/contracts/token/ERC20/ERC20.sol\":11205:11214  allowance */\n      tag_78\n        /* \"https://github.com/OpenZeppelin/openzeppelin-contracts/blob/master/contracts/token/ERC20/ERC20.sol\":11205:11230  allowance(owner, spender) */\n      jump\t// in\n    tag_172:\n        /* \"https://github.com/OpenZeppelin/openzeppelin-contracts/blob/master/contracts/token/ERC20/ERC20.sol\":11178:11230  uint256 currentAllowance = allowance(owner, spender) */\n      swap1\n      pop\n      not(0x00)\n        /* \"https://github.com/OpenZeppelin/openzeppelin-contracts/blob/master/contracts/token/ERC20/ERC20.sol\":11244:11260  currentAllowance */\n      dup2\n        /* \"https://github.com/OpenZeppelin/openzeppelin-contracts/blob/master/contracts/token/ERC20/ERC20.sol\":11244:11281  currentAllowance != type(uint256).max */\n      eq\n        /* \"https://github.com/OpenZeppelin/openzeppelin-contracts/blob/master/contracts/token/ERC20/ERC20.sol\":11240:11483  if (currentAllowance != type(uint256).max) {... */\n      tag_177\n      jumpi\n        /* \"https://github.com/OpenZeppelin/openzeppelin-contracts/blob/master/contracts/token/ERC20/ERC20.sol\":11325:11331  amount */\n      dup2\n        /* \"https://github.com/OpenZeppelin/openzeppelin-contracts/blob/master/contracts/token/ERC20/ERC20.sol\":11305:11321  currentAllowance */\n      dup2\n        /* \"https://github.com/OpenZeppelin/openzeppelin-contracts/blob/master/contracts/token/ERC20/ERC20.sol\":11305:11331  currentAllowance >= amount */\n      lt\n      iszero\n        /* \"https://github.com/OpenZeppelin/openzeppelin-contracts/blob/master/contracts/token/ERC20/ERC20.sol\":11297:11365  require(currentAllowance >= amount, \"ERC20: insufficient allowance\") */\n      tag_174\n      jumpi\n      mload(0x40)\n      shl(0xe5, 0x461bcd)\n      dup2\n      mstore\n        /* \"#utility.yul\":5825:5827   */\n      0x20\n        /* \"https://github.com/OpenZeppelin/openzeppelin-contracts/blob/master/contracts/token/ERC20/ERC20.sol\":11297:11365  require(currentAllowance >= amount, \"ERC20: insufficient allowance\") */\n      0x04\n      dup3\n      add\n        /* \"#utility.yul\":5807:5828   */\n      mstore\n        /* \"#utility.yul\":5864:5866   */\n      0x1d\n        /* \"#utility.yul\":5844:5862   */\n      0x24\n      dup3\n      add\n        /* \"#utility.yul\":5837:5867   */\n      mstore\n        /* \"#utility.yul\":5903:5934   */\n      0x45524332303a20696e73756666696369656e7420616c6c6f77616e6365000000\n        /* \"#utility.yul\":5883:5901   */\n      0x44\n      dup3\n      add\n        /* \"#utility.yul\":5876:5935   */\n      mstore\n        /* \"#utility.yul\":5952:5970   */\n      0x64\n      add\n        /* \"https://github.com/OpenZeppelin/openzeppelin-contracts/blob/master/contracts/token/ERC20/ERC20.sol\":11297:11365  require(currentAllowance >= amount, \"ERC20: insufficient allowance\") */\n      tag_135\n        /* \"#utility.yul\":5623:5976   */\n      jump\n        /* \"https://github.com/OpenZeppelin/openzeppelin-contracts/blob/master/contracts/token/ERC20/ERC20.sol\":11297:11365  require(currentAllowance >= amount, \"ERC20: insufficient allowance\") */\n    tag_174:\n        /* \"https://github.com/OpenZeppelin/openzeppelin-contracts/blob/master/contracts/token/ERC20/ERC20.sol\":11407:11458  _approve(owner, spender, currentAllowance - amount) */\n      tag_177\n        /* \"https://github.com/OpenZeppelin/openzeppelin-contracts/blob/master/contracts/token/ERC20/ERC20.sol\":11416:11421  owner */\n      dup5\n        /* \"https://github.com/OpenZeppelin/openzeppelin-contracts/blob/master/contracts/token/ERC20/ERC20.sol\":11423:11430  spender */\n      dup5\n        /* \"https://github.com/OpenZeppelin/openzeppelin-contracts/blob/master/contracts/token/ERC20/ERC20.sol\":11451:11457  amount */\n      dup5\n        /* \"https://github.com/OpenZeppelin/openzeppelin-contracts/blob/master/contracts/token/ERC20/ERC20.sol\":11432:11448  currentAllowance */\n      dup5\n        /* \"https://github.com/OpenZeppelin/openzeppelin-contracts/blob/master/contracts/token/ERC20/ERC20.sol\":11432:11457  currentAllowance - amount */\n      sub\n        /* \"https://github.com/OpenZeppelin/openzeppelin-contracts/blob/master/contracts/token/ERC20/ERC20.sol\":11407:11415  _approve */\n      tag_97\n        /* \"https://github.com/OpenZeppelin/openzeppelin-contracts/blob/master/contracts/token/ERC20/ERC20.sol\":11407:11458  _approve(owner, spender, currentAllowance - amount) */\n      jump\t// in\n    tag_177:\n        /* \"https://github.com/OpenZeppelin/openzeppelin-contracts/blob/master/contracts/token/ERC20/ERC20.sol\":11168:11489  {... */\n      pop\n        /* \"https://github.com/OpenZeppelin/openzeppelin-contracts/blob/master/contracts/token/ERC20/ERC20.sol\":11078:11489  function _spendAllowance(address owner, address spender, uint256 amount) internal virtual {... */\n      pop\n      pop\n      pop\n      jump\t// out\n        /* \"https://github.com/OpenZeppelin/openzeppelin-contracts/blob/master/contracts/token/ERC20/ERC20.sol\":7456:8244  function _transfer(address from, address to, uint256 amount) internal virtual {... */\n    tag_104:\n      sub(shl(0xa0, 0x01), 0x01)\n        /* \"https://github.com/OpenZeppelin/openzeppelin-contracts/blob/master/contracts/token/ERC20/ERC20.sol\":7552:7570  from != address(0) */\n      dup4\n      and\n        /* \"https://github.com/OpenZeppelin/openzeppelin-contracts/blob/master/contracts/token/ERC20/ERC20.sol\":7544:7612  require(from != address(0), \"ERC20: transfer from the zero address\") */\n      tag_179\n      jumpi\n      mload(0x40)\n      shl(0xe5, 0x461bcd)\n      dup2\n      mstore\n        /* \"#utility.yul\":6183:6185   */\n      0x20\n        /* \"https://github.com/OpenZeppelin/openzeppelin-contracts/blob/master/contracts/token/ERC20/ERC20.sol\":7544:7612  require(from != address(0), \"ERC20: transfer from the zero address\") */\n      0x04\n      dup3\n      add\n        /* \"#utility.yul\":6165:6186   */\n      mstore\n        /* \"#utility.yul\":6222:6224   */\n      0x25\n        /* \"#utility.yul\":6202:6220   */\n      0x24\n      dup3\n      add\n        /* \"#utility.yul\":6195:6225   */\n      mstore\n        /* \"#utility.yul\":6261:6295   */\n      0x45524332303a207472616e736665722066726f6d20746865207a65726f206164\n        /* \"#utility.yul\":6241:6259   */\n      0x44\n      dup3\n      add\n        /* \"#utility.yul\":6234:6296   */\n      mstore\n      shl(0xd8, 0x6472657373)\n        /* \"#utility.yul\":6312:6330   */\n      0x64\n      dup3\n      add\n        /* \"#utility.yul\":6305:6340   */\n      mstore\n        /* \"#utility.yul\":6357:6376   */\n      0x84\n      add\n        /* \"https://github.com/OpenZeppelin/openzeppelin-contracts/blob/master/contracts/token/ERC20/ERC20.sol\":7544:7612  require(from != address(0), \"ERC20: transfer from the zero address\") */\n      tag_135\n        /* \"#utility.yul\":5981:6382   */\n      jump\n        /* \"https://github.com/OpenZeppelin/openzeppelin-contracts/blob/master/contracts/token/ERC20/ERC20.sol\":7544:7612  require(from != address(0), \"ERC20: transfer from the zero address\") */\n    tag_179:\n      sub(shl(0xa0, 0x01), 0x01)\n        /* \"https://github.com/OpenZeppelin/openzeppelin-contracts/blob/master/contracts/token/ERC20/ERC20.sol\":7630:7646  to != address(0) */\n      dup3\n      and\n        /* \"https://github.com/OpenZeppelin/openzeppelin-contracts/blob/master/contracts/token/ERC20/ERC20.sol\":7622:7686  require(to != address(0), \"ERC20: transfer to the zero address\") */\n      tag_182\n      jumpi\n      mload(0x40)\n      shl(0xe5, 0x461bcd)\n      dup2\n      mstore\n        /* \"#utility.yul\":6589:6591   */\n      0x20\n        /* \"https://github.com/OpenZeppelin/openzeppelin-contracts/blob/master/contracts/token/ERC20/ERC20.sol\":7622:7686  require(to != address(0), \"ERC20: transfer to the zero address\") */\n      0x04\n      dup3\n      add\n        /* \"#utility.yul\":6571:6592   */\n      mstore\n        /* \"#utility.yul\":6628:6630   */\n      0x23\n        /* \"#utility.yul\":6608:6626   */\n      0x24\n      dup3\n      add\n        /* \"#utility.yul\":6601:6631   */\n      mstore\n        /* \"#utility.yul\":6667:6701   */\n      0x45524332303a207472616e7366657220746f20746865207a65726f2061646472\n        /* \"#utility.yul\":6647:6665   */\n      0x44\n      dup3\n      add\n        /* \"#utility.yul\":6640:6702   */\n      mstore\n      shl(0xe8, 0x657373)\n        /* \"#utility.yul\":6718:6736   */\n      0x64\n      dup3\n      add\n        /* \"#utility.yul\":6711:6744   */\n      mstore\n        /* \"#utility.yul\":6761:6780   */\n      0x84\n      add\n        /* \"https://github.com/OpenZeppelin/openzeppelin-contracts/blob/master/contracts/token/ERC20/ERC20.sol\":7622:7686  require(to != address(0), \"ERC20: transfer to the zero address\") */\n      tag_135\n        /* \"#utility.yul\":6387:6786   */\n      jump\n        /* \"https://github.com/OpenZeppelin/openzeppelin-contracts/blob/master/contracts/token/ERC20/ERC20.sol\":7622:7686  require(to != address(0), \"ERC20: transfer to the zero address\") */\n    tag_182:\n      sub(shl(0xa0, 0x01), 0x01)\n        /* \"https://github.com/OpenZeppelin/openzeppelin-contracts/blob/master/contracts/token/ERC20/ERC20.sol\":7768:7783  _balances[from] */\n      dup4\n      and\n        /* \"https://github.com/OpenZeppelin/openzeppelin-contracts/blob/master/contracts/token/ERC20/ERC20.sol\":7746:7765  uint256 fromBalance */\n      0x00\n        /* \"https://github.com/OpenZeppelin/openzeppelin-contracts/blob/master/contracts/token/ERC20/ERC20.sol\":7768:7783  _balances[from] */\n      swap1\n      dup2\n      mstore\n      0x20\n      dup2\n      swap1\n      mstore\n      0x40\n      swap1\n      keccak256\n      sload\n        /* \"https://github.com/OpenZeppelin/openzeppelin-contracts/blob/master/contracts/token/ERC20/ERC20.sol\":7801:7822  fromBalance >= amount */\n      dup2\n      dup2\n      lt\n      iszero\n        /* \"https://github.com/OpenZeppelin/openzeppelin-contracts/blob/master/contracts/token/ERC20/ERC20.sol\":7793:7865  require(fromBalance >= amount, \"ERC20: transfer amount exceeds balance\") */\n      tag_187\n      jumpi\n      mload(0x40)\n      shl(0xe5, 0x461bcd)\n      dup2\n      mstore\n        /* \"#utility.yul\":6993:6995   */\n      0x20\n        /* \"https://github.com/OpenZeppelin/openzeppelin-contracts/blob/master/contracts/token/ERC20/ERC20.sol\":7793:7865  require(fromBalance >= amount, \"ERC20: transfer amount exceeds balance\") */\n      0x04\n      dup3\n      add\n        /* \"#utility.yul\":6975:6996   */\n      mstore\n        /* \"#utility.yul\":7032:7034   */\n      0x26\n        /* \"#utility.yul\":7012:7030   */\n      0x24\n      dup3\n      add\n        /* \"#utility.yul\":7005:7035   */\n      mstore\n        /* \"#utility.yul\":7071:7105   */\n      0x45524332303a207472616e7366657220616d6f756e7420657863656564732062\n        /* \"#utility.yul\":7051:7069   */\n      0x44\n      dup3\n      add\n        /* \"#utility.yul\":7044:7106   */\n      mstore\n      shl(0xd0, 0x616c616e6365)\n        /* \"#utility.yul\":7122:7140   */\n      0x64\n      dup3\n      add\n        /* \"#utility.yul\":7115:7151   */\n      mstore\n        /* \"#utility.yul\":7168:7187   */\n      0x84\n      add\n        /* \"https://github.com/OpenZeppelin/openzeppelin-contracts/blob/master/contracts/token/ERC20/ERC20.sol\":7793:7865  require(fromBalance >= amount, \"ERC20: transfer amount exceeds balance\") */\n      tag_135\n        /* \"#utility.yul\":6791:7193   */\n      jump\n        /* \"https://github.com/OpenZeppelin/openzeppelin-contracts/blob/master/contracts/token/ERC20/ERC20.sol\":7793:7865  require(fromBalance >= amount, \"ERC20: transfer amount exceeds balance\") */\n    tag_187:\n      sub(shl(0xa0, 0x01), 0x01)\n        /* \"https://github.com/OpenZeppelin/openzeppelin-contracts/blob/master/contracts/token/ERC20/ERC20.sol\":7899:7914  _balances[from] */\n      dup5\n      dup2\n      and\n        /* \"https://github.com/OpenZeppelin/openzeppelin-contracts/blob/master/contracts/token/ERC20/ERC20.sol\":7899:7908  _balances */\n      0x00\n        /* \"https://github.com/OpenZeppelin/openzeppelin-contracts/blob/master/contracts/token/ERC20/ERC20.sol\":7899:7914  _balances[from] */\n      dup2\n      dup2\n      mstore\n      0x20\n      dup2\n      dup2\n      mstore\n      0x40\n      dup1\n      dup4\n      keccak256\n        /* \"https://github.com/OpenZeppelin/openzeppelin-contracts/blob/master/contracts/token/ERC20/ERC20.sol\":7917:7937  fromBalance - amount */\n      dup8\n      dup8\n      sub\n        /* \"https://github.com/OpenZeppelin/openzeppelin-contracts/blob/master/contracts/token/ERC20/ERC20.sol\":7899:7937  _balances[from] = fromBalance - amount */\n      swap1\n      sstore\n        /* \"https://github.com/OpenZeppelin/openzeppelin-contracts/blob/master/contracts/token/ERC20/ERC20.sol\":8114:8127  _balances[to] */\n      swap4\n      dup8\n      and\n      dup1\n      dup4\n      mstore\n      swap2\n      dup5\n      swap1\n      keccak256\n        /* \"https://github.com/OpenZeppelin/openzeppelin-contracts/blob/master/contracts/token/ERC20/ERC20.sol\":8114:8137  _balances[to] += amount */\n      dup1\n      sload\n      dup8\n      add\n      swap1\n      sstore\n        /* \"https://github.com/OpenZeppelin/openzeppelin-contracts/blob/master/contracts/token/ERC20/ERC20.sol\":8163:8189  Transfer(from, to, amount) */\n      swap3\n      mload\n        /* \"#utility.yul\":1445:1470   */\n      dup6\n      dup2\n      mstore\n        /* \"https://github.com/OpenZeppelin/openzeppelin-contracts/blob/master/contracts/token/ERC20/ERC20.sol\":8114:8127  _balances[to] */\n      swap1\n      swap3\n        /* \"https://github.com/OpenZeppelin/openzeppelin-contracts/blob/master/contracts/token/ERC20/ERC20.sol\":8163:8189  Transfer(from, to, amount) */\n      0xddf252ad1be2c89b69c2b068fc378daa952ba7f163c4a11628f55a4df523b3ef\n      swap2\n        /* \"#utility.yul\":1418:1436   */\n      add\n        /* \"https://github.com/OpenZeppelin/openzeppelin-contracts/blob/master/contracts/token/ERC20/ERC20.sol\":8163:8189  Transfer(from, to, amount) */\n      mload(0x40)\n      dup1\n      swap2\n      sub\n      swap1\n      log3\n        /* \"https://github.com/OpenZeppelin/openzeppelin-contracts/blob/master/contracts/token/ERC20/ERC20.sol\":8200:8237  _afterTokenTransfer(from, to, amount) */\n      tag_177\n        /* \"https://github.com/OpenZeppelin/openzeppelin-contracts/blob/master/contracts/token/ERC20/ERC20.sol\":12073:12164  function _beforeTokenTransfer(address from, address to, uint256 amount) internal virtual {} */\n      jump\n        /* \"https://github.com/OpenZeppelin/openzeppelin-contracts/blob/master/contracts/access/Ownable.sol\":1359:1489  function _checkOwner() internal view virtual {... */\n    tag_115:\n        /* \"https://github.com/OpenZeppelin/openzeppelin-contracts/blob/master/contracts/access/Ownable.sol\":1273:1279  _owner */\n      and(sub(shl(0xa0, 0x01), 0x01), sload(0x05))\n        /* \"https://github.com/OpenZeppelin/openzeppelin-contracts/blob/master/contracts/utils/Context.sol\":719:729  msg.sender */\n      caller\n        /* \"https://github.com/OpenZeppelin/openzeppelin-contracts/blob/master/contracts/access/Ownable.sol\":1422:1445  owner() == _msgSender() */\n      eq\n        /* \"https://github.com/OpenZeppelin/openzeppelin-contracts/blob/master/contracts/access/Ownable.sol\":1414:1482  require(owner() == _msgSender(), \"Ownable: caller is not the owner\") */\n      tag_117\n      jumpi\n      mload(0x40)\n      shl(0xe5, 0x461bcd)\n      dup2\n      mstore\n        /* \"#utility.yul\":7400:7402   */\n      0x20\n        /* \"https://github.com/OpenZeppelin/openzeppelin-contracts/blob/master/contracts/access/Ownable.sol\":1414:1482  require(owner() == _msgSender(), \"Ownable: caller is not the owner\") */\n      0x04\n      dup3\n      add\n        /* \"#utility.yul\":7382:7403   */\n      dup2\n      swap1\n      mstore\n        /* \"#utility.yul\":7419:7437   */\n      0x24\n      dup3\n      add\n        /* \"#utility.yul\":7412:7442   */\n      mstore\n        /* \"#utility.yul\":7478:7512   */\n      0x4f776e61626c653a2063616c6c6572206973206e6f7420746865206f776e6572\n        /* \"#utility.yul\":7458:7476   */\n      0x44\n      dup3\n      add\n        /* \"#utility.yul\":7451:7513   */\n      mstore\n        /* \"#utility.yul\":7530:7548   */\n      0x64\n      add\n        /* \"https://github.com/OpenZeppelin/openzeppelin-contracts/blob/master/contracts/access/Ownable.sol\":1414:1482  require(owner() == _msgSender(), \"Ownable: caller is not the owner\") */\n      tag_135\n        /* \"#utility.yul\":7198:7554   */\n      jump\n        /* \"https://github.com/OpenZeppelin/openzeppelin-contracts/blob/master/contracts/access/Ownable.sol\":2426:2613  function _transferOwnership(address newOwner) internal virtual {... */\n    tag_118:\n        /* \"https://github.com/OpenZeppelin/openzeppelin-contracts/blob/master/contracts/access/Ownable.sol\":2518:2524  _owner */\n      0x05\n      dup1\n      sload\n      sub(shl(0xa0, 0x01), 0x01)\n        /* \"https://github.com/OpenZeppelin/openzeppelin-contracts/blob/master/contracts/access/Ownable.sol\":2534:2551  _owner = newOwner */\n      dup4\n      dup2\n      and\n      not(sub(shl(0xa0, 0x01), 0x01))\n      dup4\n      and\n      dup2\n      or\n      swap1\n      swap4\n      sstore\n        /* \"https://github.com/OpenZeppelin/openzeppelin-contracts/blob/master/contracts/access/Ownable.sol\":2566:2606  OwnershipTransferred(oldOwner, newOwner) */\n      mload(0x40)\n        /* \"https://github.com/OpenZeppelin/openzeppelin-contracts/blob/master/contracts/access/Ownable.sol\":2518:2524  _owner */\n      swap2\n      and\n      swap2\n        /* \"https://github.com/OpenZeppelin/openzeppelin-contracts/blob/master/contracts/access/Ownable.sol\":2534:2551  _owner = newOwner */\n      swap1\n        /* \"https://github.com/OpenZeppelin/openzeppelin-contracts/blob/master/contracts/access/Ownable.sol\":2518:2524  _owner */\n      dup3\n      swap1\n        /* \"https://github.com/OpenZeppelin/openzeppelin-contracts/blob/master/contracts/access/Ownable.sol\":2566:2606  OwnershipTransferred(oldOwner, newOwner) */\n      0x8be0079c531659141344cd1fd0a4f28419497f9722a3daafe3b4186f6b6457e0\n      swap1\n        /* \"https://github.com/OpenZeppelin/openzeppelin-contracts/blob/master/contracts/access/Ownable.sol\":2499:2515  address oldOwner */\n      0x00\n      swap1\n        /* \"https://github.com/OpenZeppelin/openzeppelin-contracts/blob/master/contracts/access/Ownable.sol\":2566:2606  OwnershipTransferred(oldOwner, newOwner) */\n      log3\n        /* \"https://github.com/OpenZeppelin/openzeppelin-contracts/blob/master/contracts/access/Ownable.sol\":2489:2613  {... */\n      pop\n        /* \"https://github.com/OpenZeppelin/openzeppelin-contracts/blob/master/contracts/access/Ownable.sol\":2426:2613  function _transferOwnership(address newOwner) internal virtual {... */\n      pop\n      jump\t// out\n        /* \"https://github.com/OpenZeppelin/openzeppelin-contracts/blob/master/contracts/token/ERC20/utils/SafeERC20.sol\":1355:1558  function safeTransferFrom(IERC20 token, address from, address to, uint256 value) internal {... */\n    tag_138:\n        /* \"https://github.com/OpenZeppelin/openzeppelin-contracts/blob/master/contracts/token/ERC20/utils/SafeERC20.sol\":1482:1550  abi.encodeWithSelector(token.transferFrom.selector, from, to, value) */\n      0x40\n      dup1\n      mload\n      sub(shl(0xa0, 0x01), 0x01)\n        /* \"#utility.yul\":7817:7832   */\n      dup6\n      dup2\n      and\n        /* \"https://github.com/OpenZeppelin/openzeppelin-contracts/blob/master/contracts/token/ERC20/utils/SafeERC20.sol\":1482:1550  abi.encodeWithSelector(token.transferFrom.selector, from, to, value) */\n      0x24\n      dup4\n      add\n        /* \"#utility.yul\":7799:7833   */\n      mstore\n        /* \"#utility.yul\":7869:7884   */\n      dup5\n      and\n        /* \"#utility.yul\":7849:7867   */\n      0x44\n      dup3\n      add\n        /* \"#utility.yul\":7842:7885   */\n      mstore\n        /* \"#utility.yul\":7901:7919   */\n      0x64\n      dup1\n      dup3\n      add\n        /* \"#utility.yul\":7894:7928   */\n      dup5\n      swap1\n      mstore\n        /* \"https://github.com/OpenZeppelin/openzeppelin-contracts/blob/master/contracts/token/ERC20/utils/SafeERC20.sol\":1482:1550  abi.encodeWithSelector(token.transferFrom.selector, from, to, value) */\n      dup3\n      mload\n      dup1\n      dup4\n      sub\n      swap1\n      swap2\n      add\n      dup2\n      mstore\n        /* \"#utility.yul\":7734:7752   */\n      0x84\n      swap1\n      swap2\n      add\n        /* \"https://github.com/OpenZeppelin/openzeppelin-contracts/blob/master/contracts/token/ERC20/utils/SafeERC20.sol\":1482:1550  abi.encodeWithSelector(token.transferFrom.selector, from, to, value) */\n      swap1\n      swap2\n      mstore\n      0x20\n      dup2\n      add\n      dup1\n      mload\n      sub(shl(0xe0, 0x01), 0x01)\n      and\n      shl(0xe0, 0x23b872dd)\n      or\n      swap1\n      mstore\n        /* \"https://github.com/OpenZeppelin/openzeppelin-contracts/blob/master/contracts/token/ERC20/utils/SafeERC20.sol\":1455:1551  _callOptionalReturn(token, abi.encodeWithSelector(token.transferFrom.selector, from, to, value)) */\n      tag_177\n      swap1\n        /* \"https://github.com/OpenZeppelin/openzeppelin-contracts/blob/master/contracts/token/ERC20/utils/SafeERC20.sol\":1475:1480  token */\n      dup6\n      swap1\n        /* \"https://github.com/OpenZeppelin/openzeppelin-contracts/blob/master/contracts/token/ERC20/utils/SafeERC20.sol\":1455:1474  _callOptionalReturn */\n      tag_204\n        /* \"https://github.com/OpenZeppelin/openzeppelin-contracts/blob/master/contracts/token/ERC20/utils/SafeERC20.sol\":1455:1551  _callOptionalReturn(token, abi.encodeWithSelector(token.transferFrom.selector, from, to, value)) */\n      jump\t// in\n        /* \"https://github.com/OpenZeppelin/openzeppelin-contracts/blob/master/contracts/token/ERC20/ERC20.sol\":8520:9055  function _mint(address account, uint256 amount) internal virtual {... */\n    tag_140:\n      sub(shl(0xa0, 0x01), 0x01)\n        /* \"https://github.com/OpenZeppelin/openzeppelin-contracts/blob/master/contracts/token/ERC20/ERC20.sol\":8603:8624  account != address(0) */\n      dup3\n      and\n        /* \"https://github.com/OpenZeppelin/openzeppelin-contracts/blob/master/contracts/token/ERC20/ERC20.sol\":8595:8660  require(account != address(0), \"ERC20: mint to the zero address\") */\n      tag_206\n      jumpi\n      mload(0x40)\n      shl(0xe5, 0x461bcd)\n      dup2\n      mstore\n        /* \"#utility.yul\":8141:8143   */\n      0x20\n        /* \"https://github.com/OpenZeppelin/openzeppelin-contracts/blob/master/contracts/token/ERC20/ERC20.sol\":8595:8660  require(account != address(0), \"ERC20: mint to the zero address\") */\n      0x04\n      dup3\n      add\n        /* \"#utility.yul\":8123:8144   */\n      mstore\n        /* \"#utility.yul\":8180:8182   */\n      0x1f\n        /* \"#utility.yul\":8160:8178   */\n      0x24\n      dup3\n      add\n        /* \"#utility.yul\":8153:8183   */\n      mstore\n        /* \"#utility.yul\":8219:8252   */\n      0x45524332303a206d696e7420746f20746865207a65726f206164647265737300\n        /* \"#utility.yul\":8199:8217   */\n      0x44\n      dup3\n      add\n        /* \"#utility.yul\":8192:8253   */\n      mstore\n        /* \"#utility.yul\":8270:8288   */\n      0x64\n      add\n        /* \"https://github.com/OpenZeppelin/openzeppelin-contracts/blob/master/contracts/token/ERC20/ERC20.sol\":8595:8660  require(account != address(0), \"ERC20: mint to the zero address\") */\n      tag_135\n        /* \"#utility.yul\":7939:8294   */\n      jump\n        /* \"https://github.com/OpenZeppelin/openzeppelin-contracts/blob/master/contracts/token/ERC20/ERC20.sol\":8595:8660  require(account != address(0), \"ERC20: mint to the zero address\") */\n    tag_206:\n        /* \"https://github.com/OpenZeppelin/openzeppelin-contracts/blob/master/contracts/token/ERC20/ERC20.sol\":8747:8753  amount */\n      dup1\n        /* \"https://github.com/OpenZeppelin/openzeppelin-contracts/blob/master/contracts/token/ERC20/ERC20.sol\":8731:8743  _totalSupply */\n      0x02\n      0x00\n        /* \"https://github.com/OpenZeppelin/openzeppelin-contracts/blob/master/contracts/token/ERC20/ERC20.sol\":8731:8753  _totalSupply += amount */\n      dup3\n      dup3\n      sload\n      tag_210\n      swap2\n      swap1\n      tag_111\n      jump\t// in\n    tag_210:\n      swap1\n      swap2\n      sstore\n      pop\n      pop\n      sub(shl(0xa0, 0x01), 0x01)\n        /* \"https://github.com/OpenZeppelin/openzeppelin-contracts/blob/master/contracts/token/ERC20/ERC20.sol\":8899:8917  _balances[account] */\n      dup3\n      and\n        /* \"https://github.com/OpenZeppelin/openzeppelin-contracts/blob/master/contracts/token/ERC20/ERC20.sol\":8899:8908  _balances */\n      0x00\n        /* \"https://github.com/OpenZeppelin/openzeppelin-contracts/blob/master/contracts/token/ERC20/ERC20.sol\":8899:8917  _balances[account] */\n      dup2\n      dup2\n      mstore\n      0x20\n      dup2\n      dup2\n      mstore\n      0x40\n      dup1\n      dup4\n      keccak256\n        /* \"https://github.com/OpenZeppelin/openzeppelin-contracts/blob/master/contracts/token/ERC20/ERC20.sol\":8899:8927  _balances[account] += amount */\n      dup1\n      sload\n      dup7\n      add\n      swap1\n      sstore\n        /* \"https://github.com/OpenZeppelin/openzeppelin-contracts/blob/master/contracts/token/ERC20/ERC20.sol\":8952:8989  Transfer(address(0), account, amount) */\n      mload\n        /* \"#utility.yul\":1445:1470   */\n      dup5\n      dup2\n      mstore\n        /* \"https://github.com/OpenZeppelin/openzeppelin-contracts/blob/master/contracts/token/ERC20/ERC20.sol\":8952:8989  Transfer(address(0), account, amount) */\n      0xddf252ad1be2c89b69c2b068fc378daa952ba7f163c4a11628f55a4df523b3ef\n      swap2\n        /* \"#utility.yul\":1418:1436   */\n      add\n        /* \"https://github.com/OpenZeppelin/openzeppelin-contracts/blob/master/contracts/token/ERC20/ERC20.sol\":8952:8989  Transfer(address(0), account, amount) */\n      mload(0x40)\n      dup1\n      swap2\n      sub\n      swap1\n      log3\n        /* \"contracts/PropCoin.sol\":730:1041  {... */\n      pop\n        /* \"contracts/PropCoin.sol\":681:1041  function mint(uint256 amount) external onlyOwner {... */\n      pop\n      jump\t// out\n        /* \"https://github.com/OpenZeppelin/openzeppelin-contracts/blob/master/contracts/token/ERC20/ERC20.sol\":12073:12164  function _beforeTokenTransfer(address from, address to, uint256 amount) internal virtual {} */\n    tag_186:\n      pop\n      pop\n      pop\n      jump\t// out\n        /* \"https://github.com/OpenZeppelin/openzeppelin-contracts/blob/master/contracts/token/ERC20/utils/SafeERC20.sol\":5173:5815  function _callOptionalReturn(IERC20 token, bytes memory data) private {... */\n    tag_204:\n        /* \"https://github.com/OpenZeppelin/openzeppelin-contracts/blob/master/contracts/token/ERC20/utils/SafeERC20.sol\":5592:5615  bytes memory returndata */\n      0x00\n        /* \"https://github.com/OpenZeppelin/openzeppelin-contracts/blob/master/contracts/token/ERC20/utils/SafeERC20.sol\":5618:5687  address(token).functionCall(data, \"SafeERC20: low-level call failed\") */\n      tag_216\n        /* \"https://github.com/OpenZeppelin/openzeppelin-contracts/blob/master/contracts/token/ERC20/utils/SafeERC20.sol\":5646:5650  data */\n      dup3\n        /* \"https://github.com/OpenZeppelin/openzeppelin-contracts/blob/master/contracts/token/ERC20/utils/SafeERC20.sol\":5618:5687  address(token).functionCall(data, \"SafeERC20: low-level call failed\") */\n      mload(0x40)\n      dup1\n      0x40\n      add\n      0x40\n      mstore\n      dup1\n      0x20\n      dup2\n      mstore\n      0x20\n      add\n      0x5361666545524332303a206c6f772d6c6576656c2063616c6c206661696c6564\n      dup2\n      mstore\n      pop\n        /* \"https://github.com/OpenZeppelin/openzeppelin-contracts/blob/master/contracts/token/ERC20/utils/SafeERC20.sol\":5626:5631  token */\n      dup6\n      sub(shl(0xa0, 0x01), 0x01)\n        /* \"https://github.com/OpenZeppelin/openzeppelin-contracts/blob/master/contracts/token/ERC20/utils/SafeERC20.sol\":5618:5645  address(token).functionCall */\n      and\n      tag_217\n      swap1\n        /* \"https://github.com/OpenZeppelin/openzeppelin-contracts/blob/master/contracts/token/ERC20/utils/SafeERC20.sol\":5618:5687  address(token).functionCall(data, \"SafeERC20: low-level call failed\") */\n      swap3\n      swap2\n      swap1\n      0xffffffff\n      and\n      jump\t// in\n    tag_216:\n        /* \"https://github.com/OpenZeppelin/openzeppelin-contracts/blob/master/contracts/token/ERC20/utils/SafeERC20.sol\":5592:5687  bytes memory returndata = address(token).functionCall(data, \"SafeERC20: low-level call failed\") */\n      swap1\n      pop\n        /* \"https://github.com/OpenZeppelin/openzeppelin-contracts/blob/master/contracts/token/ERC20/utils/SafeERC20.sol\":5705:5715  returndata */\n      dup1\n        /* \"https://github.com/OpenZeppelin/openzeppelin-contracts/blob/master/contracts/token/ERC20/utils/SafeERC20.sol\":5705:5722  returndata.length */\n      mload\n        /* \"https://github.com/OpenZeppelin/openzeppelin-contracts/blob/master/contracts/token/ERC20/utils/SafeERC20.sol\":5726:5727  0 */\n      0x00\n        /* \"https://github.com/OpenZeppelin/openzeppelin-contracts/blob/master/contracts/token/ERC20/utils/SafeERC20.sol\":5705:5727  returndata.length == 0 */\n      eq\n        /* \"https://github.com/OpenZeppelin/openzeppelin-contracts/blob/master/contracts/token/ERC20/utils/SafeERC20.sol\":5705:5761  returndata.length == 0 || abi.decode(returndata, (bool)) */\n      dup1\n      tag_219\n      jumpi\n      pop\n        /* \"https://github.com/OpenZeppelin/openzeppelin-contracts/blob/master/contracts/token/ERC20/utils/SafeERC20.sol\":5742:5752  returndata */\n      dup1\n        /* \"https://github.com/OpenZeppelin/openzeppelin-contracts/blob/master/contracts/token/ERC20/utils/SafeERC20.sol\":5731:5761  abi.decode(returndata, (bool)) */\n      dup1\n      0x20\n      add\n      swap1\n      mload\n      dup2\n      add\n      swap1\n      tag_219\n      swap2\n      swap1\n      tag_220\n      jump\t// in\n    tag_219:\n        /* \"https://github.com/OpenZeppelin/openzeppelin-contracts/blob/master/contracts/token/ERC20/utils/SafeERC20.sol\":5697:5808  require(returndata.length == 0 || abi.decode(returndata, (bool)), \"SafeERC20: ERC20 operation did not succeed\") */\n      tag_186\n      jumpi\n      mload(0x40)\n      shl(0xe5, 0x461bcd)\n      dup2\n      mstore\n        /* \"#utility.yul\":8783:8785   */\n      0x20\n        /* \"https://github.com/OpenZeppelin/openzeppelin-contracts/blob/master/contracts/token/ERC20/utils/SafeERC20.sol\":5697:5808  require(returndata.length == 0 || abi.decode(returndata, (bool)), \"SafeERC20: ERC20 operation did not succeed\") */\n      0x04\n      dup3\n      add\n        /* \"#utility.yul\":8765:8786   */\n      mstore\n        /* \"#utility.yul\":8822:8824   */\n      0x2a\n        /* \"#utility.yul\":8802:8820   */\n      0x24\n      dup3\n      add\n        /* \"#utility.yul\":8795:8825   */\n      mstore\n        /* \"#utility.yul\":8861:8895   */\n      0x5361666545524332303a204552433230206f7065726174696f6e20646964206e\n        /* \"#utility.yul\":8841:8859   */\n      0x44\n      dup3\n      add\n        /* \"#utility.yul\":8834:8896   */\n      mstore\n      shl(0xb2, 0x1bdd081cdd58d8d95959)\n        /* \"#utility.yul\":8912:8930   */\n      0x64\n      dup3\n      add\n        /* \"#utility.yul\":8905:8945   */\n      mstore\n        /* \"#utility.yul\":8962:8981   */\n      0x84\n      add\n        /* \"https://github.com/OpenZeppelin/openzeppelin-contracts/blob/master/contracts/token/ERC20/utils/SafeERC20.sol\":5697:5808  require(returndata.length == 0 || abi.decode(returndata, (bool)), \"SafeERC20: ERC20 operation did not succeed\") */\n      tag_135\n        /* \"#utility.yul\":8581:8987   */\n      jump\n        /* \"https://github.com/OpenZeppelin/openzeppelin-contracts/blob/master/contracts/utils/Address.sol\":4109:4332  function functionCall(... */\n    tag_217:\n        /* \"https://github.com/OpenZeppelin/openzeppelin-contracts/blob/master/contracts/utils/Address.sol\":4242:4254  bytes memory */\n      0x60\n        /* \"https://github.com/OpenZeppelin/openzeppelin-contracts/blob/master/contracts/utils/Address.sol\":4273:4325  functionCallWithValue(target, data, 0, errorMessage) */\n      tag_225\n        /* \"https://github.com/OpenZeppelin/openzeppelin-contracts/blob/master/contracts/utils/Address.sol\":4295:4301  target */\n      dup5\n        /* \"https://github.com/OpenZeppelin/openzeppelin-contracts/blob/master/contracts/utils/Address.sol\":4303:4307  data */\n      dup5\n        /* \"https://github.com/OpenZeppelin/openzeppelin-contracts/blob/master/contracts/utils/Address.sol\":4309:4310  0 */\n      0x00\n        /* \"https://github.com/OpenZeppelin/openzeppelin-contracts/blob/master/contracts/utils/Address.sol\":4312:4324  errorMessage */\n      dup6\n        /* \"https://github.com/OpenZeppelin/openzeppelin-contracts/blob/master/contracts/utils/Address.sol\":4273:4294  functionCallWithValue */\n      tag_226\n        /* \"https://github.com/OpenZeppelin/openzeppelin-contracts/blob/master/contracts/utils/Address.sol\":4273:4325  functionCallWithValue(target, data, 0, errorMessage) */\n      jump\t// in\n    tag_225:\n        /* \"https://github.com/OpenZeppelin/openzeppelin-contracts/blob/master/contracts/utils/Address.sol\":4266:4325  return functionCallWithValue(target, data, 0, errorMessage) */\n      swap5\n        /* \"https://github.com/OpenZeppelin/openzeppelin-contracts/blob/master/contracts/utils/Address.sol\":4109:4332  function functionCall(... */\n      swap4\n      pop\n      pop\n      pop\n      pop\n      jump\t// out\n        /* \"https://github.com/OpenZeppelin/openzeppelin-contracts/blob/master/contracts/utils/Address.sol\":5166:5612  function functionCallWithValue(... */\n    tag_226:\n        /* \"https://github.com/OpenZeppelin/openzeppelin-contracts/blob/master/contracts/utils/Address.sol\":5331:5343  bytes memory */\n      0x60\n        /* \"https://github.com/OpenZeppelin/openzeppelin-contracts/blob/master/contracts/utils/Address.sol\":5388:5393  value */\n      dup3\n        /* \"https://github.com/OpenZeppelin/openzeppelin-contracts/blob/master/contracts/utils/Address.sol\":5363:5384  address(this).balance */\n      selfbalance\n        /* \"https://github.com/OpenZeppelin/openzeppelin-contracts/blob/master/contracts/utils/Address.sol\":5363:5393  address(this).balance >= value */\n      lt\n      iszero\n        /* \"https://github.com/OpenZeppelin/openzeppelin-contracts/blob/master/contracts/utils/Address.sol\":5355:5436  require(address(this).balance >= value, \"Address: insufficient balance for call\") */\n      tag_228\n      jumpi\n      mload(0x40)\n      shl(0xe5, 0x461bcd)\n      dup2\n      mstore\n        /* \"#utility.yul\":9194:9196   */\n      0x20\n        /* \"https://github.com/OpenZeppelin/openzeppelin-contracts/blob/master/contracts/utils/Address.sol\":5355:5436  require(address(this).balance >= value, \"Address: insufficient balance for call\") */\n      0x04\n      dup3\n      add\n        /* \"#utility.yul\":9176:9197   */\n      mstore\n        /* \"#utility.yul\":9233:9235   */\n      0x26\n        /* \"#utility.yul\":9213:9231   */\n      0x24\n      dup3\n      add\n        /* \"#utility.yul\":9206:9236   */\n      mstore\n        /* \"#utility.yul\":9272:9306   */\n      0x416464726573733a20696e73756666696369656e742062616c616e636520666f\n        /* \"#utility.yul\":9252:9270   */\n      0x44\n      dup3\n      add\n        /* \"#utility.yul\":9245:9307   */\n      mstore\n      shl(0xd2, 0x1c8818d85b1b)\n        /* \"#utility.yul\":9323:9341   */\n      0x64\n      dup3\n      add\n        /* \"#utility.yul\":9316:9352   */\n      mstore\n        /* \"#utility.yul\":9369:9388   */\n      0x84\n      add\n        /* \"https://github.com/OpenZeppelin/openzeppelin-contracts/blob/master/contracts/utils/Address.sol\":5355:5436  require(address(this).balance >= value, \"Address: insufficient balance for call\") */\n      tag_135\n        /* \"#utility.yul\":8992:9394   */\n      jump\n        /* \"https://github.com/OpenZeppelin/openzeppelin-contracts/blob/master/contracts/utils/Address.sol\":5355:5436  require(address(this).balance >= value, \"Address: insufficient balance for call\") */\n    tag_228:\n        /* \"https://github.com/OpenZeppelin/openzeppelin-contracts/blob/master/contracts/utils/Address.sol\":5447:5459  bool success */\n      0x00\n        /* \"https://github.com/OpenZeppelin/openzeppelin-contracts/blob/master/contracts/utils/Address.sol\":5461:5484  bytes memory returndata */\n      dup1\n        /* \"https://github.com/OpenZeppelin/openzeppelin-contracts/blob/master/contracts/utils/Address.sol\":5488:5494  target */\n      dup7\n      sub(shl(0xa0, 0x01), 0x01)\n        /* \"https://github.com/OpenZeppelin/openzeppelin-contracts/blob/master/contracts/utils/Address.sol\":5488:5499  target.call */\n      and\n        /* \"https://github.com/OpenZeppelin/openzeppelin-contracts/blob/master/contracts/utils/Address.sol\":5507:5512  value */\n      dup6\n        /* \"https://github.com/OpenZeppelin/openzeppelin-contracts/blob/master/contracts/utils/Address.sol\":5514:5518  data */\n      dup8\n        /* \"https://github.com/OpenZeppelin/openzeppelin-contracts/blob/master/contracts/utils/Address.sol\":5488:5519  target.call{value: value}(data) */\n      mload(0x40)\n      tag_231\n      swap2\n      swap1\n      tag_232\n      jump\t// in\n    tag_231:\n      0x00\n      mload(0x40)\n      dup1\n      dup4\n      sub\n      dup2\n      dup6\n      dup8\n      gas\n      call\n      swap3\n      pop\n      pop\n      pop\n      returndatasize\n      dup1\n      0x00\n      dup2\n      eq\n      tag_235\n      jumpi\n      mload(0x40)\n      swap2\n      pop\n      and(add(returndatasize, 0x3f), not(0x1f))\n      dup3\n      add\n      0x40\n      mstore\n      returndatasize\n      dup3\n      mstore\n      returndatasize\n      0x00\n      0x20\n      dup5\n      add\n      returndatacopy\n      jump(tag_234)\n    tag_235:\n      0x60\n      swap2\n      pop\n    tag_234:\n      pop\n        /* \"https://github.com/OpenZeppelin/openzeppelin-contracts/blob/master/contracts/utils/Address.sol\":5446:5519  (bool success, bytes memory returndata) = target.call{value: value}(data) */\n      swap2\n      pop\n      swap2\n      pop\n        /* \"https://github.com/OpenZeppelin/openzeppelin-contracts/blob/master/contracts/utils/Address.sol\":5536:5605  verifyCallResultFromTarget(target, success, returndata, errorMessage) */\n      tag_236\n        /* \"https://github.com/OpenZeppelin/openzeppelin-contracts/blob/master/contracts/utils/Address.sol\":5563:5569  target */\n      dup8\n        /* \"https://github.com/OpenZeppelin/openzeppelin-contracts/blob/master/contracts/utils/Address.sol\":5571:5578  success */\n      dup4\n        /* \"https://github.com/OpenZeppelin/openzeppelin-contracts/blob/master/contracts/utils/Address.sol\":5580:5590  returndata */\n      dup4\n        /* \"https://github.com/OpenZeppelin/openzeppelin-contracts/blob/master/contracts/utils/Address.sol\":5592:5604  errorMessage */\n      dup8\n        /* \"https://github.com/OpenZeppelin/openzeppelin-contracts/blob/master/contracts/utils/Address.sol\":5536:5562  verifyCallResultFromTarget */\n      tag_237\n        /* \"https://github.com/OpenZeppelin/openzeppelin-contracts/blob/master/contracts/utils/Address.sol\":5536:5605  verifyCallResultFromTarget(target, success, returndata, errorMessage) */\n      jump\t// in\n    tag_236:\n        /* \"https://github.com/OpenZeppelin/openzeppelin-contracts/blob/master/contracts/utils/Address.sol\":5529:5605  return verifyCallResultFromTarget(target, success, returndata, errorMessage) */\n      swap8\n        /* \"https://github.com/OpenZeppelin/openzeppelin-contracts/blob/master/contracts/utils/Address.sol\":5166:5612  function functionCallWithValue(... */\n      swap7\n      pop\n      pop\n      pop\n      pop\n      pop\n      pop\n      pop\n      jump\t// out\n        /* \"https://github.com/OpenZeppelin/openzeppelin-contracts/blob/master/contracts/utils/Address.sol\":7672:8300  function verifyCallResultFromTarget(... */\n    tag_237:\n        /* \"https://github.com/OpenZeppelin/openzeppelin-contracts/blob/master/contracts/utils/Address.sol\":7852:7864  bytes memory */\n      0x60\n        /* \"https://github.com/OpenZeppelin/openzeppelin-contracts/blob/master/contracts/utils/Address.sol\":7880:7887  success */\n      dup4\n        /* \"https://github.com/OpenZeppelin/openzeppelin-contracts/blob/master/contracts/utils/Address.sol\":7876:8294  if (success) {... */\n      iszero\n      tag_239\n      jumpi\n        /* \"https://github.com/OpenZeppelin/openzeppelin-contracts/blob/master/contracts/utils/Address.sol\":7907:7917  returndata */\n      dup3\n        /* \"https://github.com/OpenZeppelin/openzeppelin-contracts/blob/master/contracts/utils/Address.sol\":7907:7924  returndata.length */\n      mload\n        /* \"https://github.com/OpenZeppelin/openzeppelin-contracts/blob/master/contracts/utils/Address.sol\":7928:7929  0 */\n      0x00\n        /* \"https://github.com/OpenZeppelin/openzeppelin-contracts/blob/master/contracts/utils/Address.sol\":7907:7929  returndata.length == 0 */\n      sub\n        /* \"https://github.com/OpenZeppelin/openzeppelin-contracts/blob/master/contracts/utils/Address.sol\":7903:8189  if (returndata.length == 0) {... */\n      tag_243\n      jumpi\n      sub(shl(0xa0, 0x01), 0x01)\n        /* \"https://github.com/OpenZeppelin/openzeppelin-contracts/blob/master/contracts/utils/Address.sol\":1702:1721  account.code.length */\n      dup6\n      and\n      extcodesize\n        /* \"https://github.com/OpenZeppelin/openzeppelin-contracts/blob/master/contracts/utils/Address.sol\":8114:8174  require(isContract(target), \"Address: call to non-contract\") */\n      tag_243\n      jumpi\n      mload(0x40)\n      shl(0xe5, 0x461bcd)\n      dup2\n      mstore\n        /* \"#utility.yul\":9893:9895   */\n      0x20\n        /* \"https://github.com/OpenZeppelin/openzeppelin-contracts/blob/master/contracts/utils/Address.sol\":8114:8174  require(isContract(target), \"Address: call to non-contract\") */\n      0x04\n      dup3\n      add\n        /* \"#utility.yul\":9875:9896   */\n      mstore\n        /* \"#utility.yul\":9932:9934   */\n      0x1d\n        /* \"#utility.yul\":9912:9930   */\n      0x24\n      dup3\n      add\n        /* \"#utility.yul\":9905:9935   */\n      mstore\n        /* \"#utility.yul\":9971:10002   */\n      0x416464726573733a2063616c6c20746f206e6f6e2d636f6e7472616374000000\n        /* \"#utility.yul\":9951:9969   */\n      0x44\n      dup3\n      add\n        /* \"#utility.yul\":9944:10003   */\n      mstore\n        /* \"#utility.yul\":10020:10038   */\n      0x64\n      add\n        /* \"https://github.com/OpenZeppelin/openzeppelin-contracts/blob/master/contracts/utils/Address.sol\":8114:8174  require(isContract(target), \"Address: call to non-contract\") */\n      tag_135\n        /* \"#utility.yul\":9691:10044   */\n      jump\n        /* \"https://github.com/OpenZeppelin/openzeppelin-contracts/blob/master/contracts/utils/Address.sol\":8114:8174  require(isContract(target), \"Address: call to non-contract\") */\n    tag_243:\n      pop\n        /* \"https://github.com/OpenZeppelin/openzeppelin-contracts/blob/master/contracts/utils/Address.sol\":8209:8219  returndata */\n      dup2\n        /* \"https://github.com/OpenZeppelin/openzeppelin-contracts/blob/master/contracts/utils/Address.sol\":8202:8219  return returndata */\n      jump(tag_225)\n        /* \"https://github.com/OpenZeppelin/openzeppelin-contracts/blob/master/contracts/utils/Address.sol\":7876:8294  if (success) {... */\n    tag_239:\n        /* \"https://github.com/OpenZeppelin/openzeppelin-contracts/blob/master/contracts/utils/Address.sol\":8250:8283  _revert(returndata, errorMessage) */\n      tag_225\n        /* \"https://github.com/OpenZeppelin/openzeppelin-contracts/blob/master/contracts/utils/Address.sol\":8258:8268  returndata */\n      dup4\n        /* \"https://github.com/OpenZeppelin/openzeppelin-contracts/blob/master/contracts/utils/Address.sol\":8270:8282  errorMessage */\n      dup4\n        /* \"https://github.com/OpenZeppelin/openzeppelin-contracts/blob/master/contracts/utils/Address.sol\":8981:8998  returndata.length */\n      dup2\n      mload\n        /* \"https://github.com/OpenZeppelin/openzeppelin-contracts/blob/master/contracts/utils/Address.sol\":8981:9002  returndata.length > 0 */\n      iszero\n        /* \"https://github.com/OpenZeppelin/openzeppelin-contracts/blob/master/contracts/utils/Address.sol\":8977:9356  if (returndata.length > 0) {... */\n      tag_251\n      jumpi\n        /* \"https://github.com/OpenZeppelin/openzeppelin-contracts/blob/master/contracts/utils/Address.sol\":9209:9219  returndata */\n      dup2\n        /* \"https://github.com/OpenZeppelin/openzeppelin-contracts/blob/master/contracts/utils/Address.sol\":9203:9220  mload(returndata) */\n      mload\n        /* \"https://github.com/OpenZeppelin/openzeppelin-contracts/blob/master/contracts/utils/Address.sol\":9265:9280  returndata_size */\n      dup1\n        /* \"https://github.com/OpenZeppelin/openzeppelin-contracts/blob/master/contracts/utils/Address.sol\":9252:9262  returndata */\n      dup4\n        /* \"https://github.com/OpenZeppelin/openzeppelin-contracts/blob/master/contracts/utils/Address.sol\":9248:9250  32 */\n      0x20\n        /* \"https://github.com/OpenZeppelin/openzeppelin-contracts/blob/master/contracts/utils/Address.sol\":9244:9263  add(32, returndata) */\n      add\n        /* \"https://github.com/OpenZeppelin/openzeppelin-contracts/blob/master/contracts/utils/Address.sol\":9237:9281  revert(add(32, returndata), returndata_size) */\n      revert\n        /* \"https://github.com/OpenZeppelin/openzeppelin-contracts/blob/master/contracts/utils/Address.sol\":8977:9356  if (returndata.length > 0) {... */\n    tag_251:\n        /* \"https://github.com/OpenZeppelin/openzeppelin-contracts/blob/master/contracts/utils/Address.sol\":9332:9344  errorMessage */\n      dup1\n        /* \"https://github.com/OpenZeppelin/openzeppelin-contracts/blob/master/contracts/utils/Address.sol\":9325:9345  revert(errorMessage) */\n      mload(0x40)\n      shl(0xe5, 0x461bcd)\n      dup2\n      mstore\n      0x04\n      add\n      tag_135\n      swap2\n      swap1\n      tag_25\n      jump\t// in\n        /* \"#utility.yul\":14:264   */\n    tag_254:\n        /* \"#utility.yul\":99:100   */\n      0x00\n        /* \"#utility.yul\":109:222   */\n    tag_258:\n        /* \"#utility.yul\":123:129   */\n      dup4\n        /* \"#utility.yul\":120:121   */\n      dup2\n        /* \"#utility.yul\":117:130   */\n      lt\n        /* \"#utility.yul\":109:222   */\n      iszero\n      tag_260\n      jumpi\n        /* \"#utility.yul\":199:210   */\n      dup2\n      dup2\n      add\n        /* \"#utility.yul\":193:211   */\n      mload\n        /* \"#utility.yul\":180:191   */\n      dup4\n      dup3\n      add\n        /* \"#utility.yul\":173:212   */\n      mstore\n        /* \"#utility.yul\":145:147   */\n      0x20\n        /* \"#utility.yul\":138:148   */\n      add\n        /* \"#utility.yul\":109:222   */\n      jump(tag_258)\n    tag_260:\n      pop\n      pop\n        /* \"#utility.yul\":256:257   */\n      0x00\n        /* \"#utility.yul\":238:254   */\n      swap2\n      add\n        /* \"#utility.yul\":231:258   */\n      mstore\n        /* \"#utility.yul\":14:264   */\n      jump\t// out\n        /* \"#utility.yul\":269:665   */\n    tag_25:\n        /* \"#utility.yul\":418:420   */\n      0x20\n        /* \"#utility.yul\":407:416   */\n      dup2\n        /* \"#utility.yul\":400:421   */\n      mstore\n        /* \"#utility.yul\":381:385   */\n      0x00\n        /* \"#utility.yul\":450:456   */\n      dup3\n        /* \"#utility.yul\":444:457   */\n      mload\n        /* \"#utility.yul\":493:499   */\n      dup1\n        /* \"#utility.yul\":488:490   */\n      0x20\n        /* \"#utility.yul\":477:486   */\n      dup5\n        /* \"#utility.yul\":473:491   */\n      add\n        /* \"#utility.yul\":466:500   */\n      mstore\n        /* \"#utility.yul\":509:588   */\n      tag_262\n        /* \"#utility.yul\":581:587   */\n      dup2\n        /* \"#utility.yul\":576:578   */\n      0x40\n        /* \"#utility.yul\":565:574   */\n      dup6\n        /* \"#utility.yul\":561:579   */\n      add\n        /* \"#utility.yul\":556:558   */\n      0x20\n        /* \"#utility.yul\":548:554   */\n      dup8\n        /* \"#utility.yul\":544:559   */\n      add\n        /* \"#utility.yul\":509:588   */\n      tag_254\n      jump\t// in\n    tag_262:\n        /* \"#utility.yul\":649:651   */\n      0x1f\n        /* \"#utility.yul\":628:643   */\n      add\n      not(0x1f)\n        /* \"#utility.yul\":624:653   */\n      and\n        /* \"#utility.yul\":609:654   */\n      swap2\n      swap1\n      swap2\n      add\n        /* \"#utility.yul\":656:658   */\n      0x40\n        /* \"#utility.yul\":605:659   */\n      add\n      swap3\n        /* \"#utility.yul\":269:665   */\n      swap2\n      pop\n      pop\n      jump\t// out\n        /* \"#utility.yul\":670:843   */\n    tag_255:\n        /* \"#utility.yul\":738:758   */\n      dup1\n      calldataload\n      sub(shl(0xa0, 0x01), 0x01)\n        /* \"#utility.yul\":787:818   */\n      dup2\n      and\n        /* \"#utility.yul\":777:819   */\n      dup2\n      eq\n        /* \"#utility.yul\":767:837   */\n      tag_264\n      jumpi\n        /* \"#utility.yul\":833:834   */\n      0x00\n        /* \"#utility.yul\":830:831   */\n      dup1\n        /* \"#utility.yul\":823:835   */\n      revert\n        /* \"#utility.yul\":767:837   */\n    tag_264:\n        /* \"#utility.yul\":670:843   */\n      swap2\n      swap1\n      pop\n      jump\t// out\n        /* \"#utility.yul\":848:1102   */\n    tag_28:\n        /* \"#utility.yul\":916:922   */\n      0x00\n        /* \"#utility.yul\":924:930   */\n      dup1\n        /* \"#utility.yul\":977:979   */\n      0x40\n        /* \"#utility.yul\":965:974   */\n      dup4\n        /* \"#utility.yul\":956:963   */\n      dup6\n        /* \"#utility.yul\":952:975   */\n      sub\n        /* \"#utility.yul\":948:980   */\n      slt\n        /* \"#utility.yul\":945:997   */\n      iszero\n      tag_266\n      jumpi\n        /* \"#utility.yul\":993:994   */\n      0x00\n        /* \"#utility.yul\":990:991   */\n      dup1\n        /* \"#utility.yul\":983:995   */\n      revert\n        /* \"#utility.yul\":945:997   */\n    tag_266:\n        /* \"#utility.yul\":1016:1045   */\n      tag_267\n        /* \"#utility.yul\":1035:1044   */\n      dup4\n        /* \"#utility.yul\":1016:1045   */\n      tag_255\n      jump\t// in\n    tag_267:\n        /* \"#utility.yul\":1006:1045   */\n      swap5\n        /* \"#utility.yul\":1092:1094   */\n      0x20\n        /* \"#utility.yul\":1077:1095   */\n      swap4\n      swap1\n      swap4\n      add\n        /* \"#utility.yul\":1064:1096   */\n      calldataload\n      swap4\n      pop\n      pop\n      pop\n        /* \"#utility.yul\":848:1102   */\n      jump\t// out\n        /* \"#utility.yul\":1481:1809   */\n    tag_38:\n        /* \"#utility.yul\":1558:1564   */\n      0x00\n        /* \"#utility.yul\":1566:1572   */\n      dup1\n        /* \"#utility.yul\":1574:1580   */\n      0x00\n        /* \"#utility.yul\":1627:1629   */\n      0x60\n        /* \"#utility.yul\":1615:1624   */\n      dup5\n        /* \"#utility.yul\":1606:1613   */\n      dup7\n        /* \"#utility.yul\":1602:1625   */\n      sub\n        /* \"#utility.yul\":1598:1630   */\n      slt\n        /* \"#utility.yul\":1595:1647   */\n      iszero\n      tag_271\n      jumpi\n        /* \"#utility.yul\":1643:1644   */\n      0x00\n        /* \"#utility.yul\":1640:1641   */\n      dup1\n        /* \"#utility.yul\":1633:1645   */\n      revert\n        /* \"#utility.yul\":1595:1647   */\n    tag_271:\n        /* \"#utility.yul\":1666:1695   */\n      tag_272\n        /* \"#utility.yul\":1685:1694   */\n      dup5\n        /* \"#utility.yul\":1666:1695   */\n      tag_255\n      jump\t// in\n    tag_272:\n        /* \"#utility.yul\":1656:1695   */\n      swap3\n      pop\n        /* \"#utility.yul\":1714:1752   */\n      tag_273\n        /* \"#utility.yul\":1748:1750   */\n      0x20\n        /* \"#utility.yul\":1737:1746   */\n      dup6\n        /* \"#utility.yul\":1733:1751   */\n      add\n        /* \"#utility.yul\":1714:1752   */\n      tag_255\n      jump\t// in\n    tag_273:\n        /* \"#utility.yul\":1704:1752   */\n      swap2\n      pop\n        /* \"#utility.yul\":1799:1801   */\n      0x40\n        /* \"#utility.yul\":1788:1797   */\n      dup5\n        /* \"#utility.yul\":1784:1802   */\n      add\n        /* \"#utility.yul\":1771:1803   */\n      calldataload\n        /* \"#utility.yul\":1761:1803   */\n      swap1\n      pop\n        /* \"#utility.yul\":1481:1809   */\n      swap3\n      pop\n      swap3\n      pop\n      swap3\n      jump\t// out\n        /* \"#utility.yul\":2003:2189   */\n    tag_51:\n        /* \"#utility.yul\":2062:2068   */\n      0x00\n        /* \"#utility.yul\":2115:2117   */\n      0x20\n        /* \"#utility.yul\":2103:2112   */\n      dup3\n        /* \"#utility.yul\":2094:2101   */\n      dup5\n        /* \"#utility.yul\":2090:2113   */\n      sub\n        /* \"#utility.yul\":2086:2118   */\n      slt\n        /* \"#utility.yul\":2083:2135   */\n      iszero\n      tag_276\n      jumpi\n        /* \"#utility.yul\":2131:2132   */\n      0x00\n        /* \"#utility.yul\":2128:2129   */\n      dup1\n        /* \"#utility.yul\":2121:2133   */\n      revert\n        /* \"#utility.yul\":2083:2135   */\n    tag_276:\n        /* \"#utility.yul\":2154:2183   */\n      tag_277\n        /* \"#utility.yul\":2173:2182   */\n      dup3\n        /* \"#utility.yul\":2154:2183   */\n      tag_255\n      jump\t// in\n    tag_277:\n        /* \"#utility.yul\":2144:2183   */\n      swap4\n        /* \"#utility.yul\":2003:2189   */\n      swap3\n      pop\n      pop\n      pop\n      jump\t// out\n        /* \"#utility.yul\":2402:2582   */\n    tag_65:\n        /* \"#utility.yul\":2461:2467   */\n      0x00\n        /* \"#utility.yul\":2514:2516   */\n      0x20\n        /* \"#utility.yul\":2502:2511   */\n      dup3\n        /* \"#utility.yul\":2493:2500   */\n      dup5\n        /* \"#utility.yul\":2489:2512   */\n      sub\n        /* \"#utility.yul\":2485:2517   */\n      slt\n        /* \"#utility.yul\":2482:2534   */\n      iszero\n      tag_280\n      jumpi\n        /* \"#utility.yul\":2530:2531   */\n      0x00\n        /* \"#utility.yul\":2527:2528   */\n      dup1\n        /* \"#utility.yul\":2520:2532   */\n      revert\n        /* \"#utility.yul\":2482:2534   */\n    tag_280:\n      pop\n        /* \"#utility.yul\":2553:2576   */\n      calldataload\n      swap2\n        /* \"#utility.yul\":2402:2582   */\n      swap1\n      pop\n      jump\t// out\n        /* \"#utility.yul\":2587:2847   */\n    tag_77:\n        /* \"#utility.yul\":2655:2661   */\n      0x00\n        /* \"#utility.yul\":2663:2669   */\n      dup1\n        /* \"#utility.yul\":2716:2718   */\n      0x40\n        /* \"#utility.yul\":2704:2713   */\n      dup4\n        /* \"#utility.yul\":2695:2702   */\n      dup6\n        /* \"#utility.yul\":2691:2714   */\n      sub\n        /* \"#utility.yul\":2687:2719   */\n      slt\n        /* \"#utility.yul\":2684:2736   */\n      iszero\n      tag_282\n      jumpi\n        /* \"#utility.yul\":2732:2733   */\n      0x00\n        /* \"#utility.yul\":2729:2730   */\n      dup1\n        /* \"#utility.yul\":2722:2734   */\n      revert\n        /* \"#utility.yul\":2684:2736   */\n    tag_282:\n        /* \"#utility.yul\":2755:2784   */\n      tag_283\n        /* \"#utility.yul\":2774:2783   */\n      dup4\n        /* \"#utility.yul\":2755:2784   */\n      tag_255\n      jump\t// in\n    tag_283:\n        /* \"#utility.yul\":2745:2784   */\n      swap2\n      pop\n        /* \"#utility.yul\":2803:2841   */\n      tag_284\n        /* \"#utility.yul\":2837:2839   */\n      0x20\n        /* \"#utility.yul\":2826:2835   */\n      dup5\n        /* \"#utility.yul\":2822:2840   */\n      add\n        /* \"#utility.yul\":2803:2841   */\n      tag_255\n      jump\t// in\n    tag_284:\n        /* \"#utility.yul\":2793:2841   */\n      swap1\n      pop\n        /* \"#utility.yul\":2587:2847   */\n      swap3\n      pop\n      swap3\n      swap1\n      pop\n      jump\t// out\n        /* \"#utility.yul\":2852:3232   */\n    tag_88:\n        /* \"#utility.yul\":2931:2932   */\n      0x01\n        /* \"#utility.yul\":2927:2939   */\n      dup2\n      dup2\n      shr\n      swap1\n        /* \"#utility.yul\":2974:2986   */\n      dup3\n      and\n      dup1\n        /* \"#utility.yul\":2995:3056   */\n      tag_286\n      jumpi\n        /* \"#utility.yul\":3049:3053   */\n      0x7f\n        /* \"#utility.yul\":3041:3047   */\n      dup3\n        /* \"#utility.yul\":3037:3054   */\n      and\n        /* \"#utility.yul\":3027:3054   */\n      swap2\n      pop\n        /* \"#utility.yul\":2995:3056   */\n    tag_286:\n        /* \"#utility.yul\":3102:3104   */\n      0x20\n        /* \"#utility.yul\":3094:3100   */\n      dup3\n        /* \"#utility.yul\":3091:3105   */\n      lt\n        /* \"#utility.yul\":3071:3089   */\n      dup2\n        /* \"#utility.yul\":3068:3106   */\n      sub\n        /* \"#utility.yul\":3065:3226   */\n      tag_287\n      jumpi\n        /* \"#utility.yul\":3148:3158   */\n      0x4e487b71\n        /* \"#utility.yul\":3143:3146   */\n      0xe0\n        /* \"#utility.yul\":3139:3159   */\n      shl\n        /* \"#utility.yul\":3136:3137   */\n      0x00\n        /* \"#utility.yul\":3129:3160   */\n      mstore\n        /* \"#utility.yul\":3183:3187   */\n      0x22\n        /* \"#utility.yul\":3180:3181   */\n      0x04\n        /* \"#utility.yul\":3173:3188   */\n      mstore\n        /* \"#utility.yul\":3211:3215   */\n      0x24\n        /* \"#utility.yul\":3208:3209   */\n      0x00\n        /* \"#utility.yul\":3201:3216   */\n      revert\n        /* \"#utility.yul\":3065:3226   */\n    tag_287:\n      pop\n        /* \"#utility.yul\":2852:3232   */\n      swap2\n      swap1\n      pop\n      jump\t// out\n        /* \"#utility.yul\":3237:3459   */\n    tag_111:\n        /* \"#utility.yul\":3302:3311   */\n      dup1\n      dup3\n      add\n        /* \"#utility.yul\":3323:3333   */\n      dup1\n      dup3\n      gt\n        /* \"#utility.yul\":3320:3453   */\n      iszero\n      tag_93\n      jumpi\n        /* \"#utility.yul\":3375:3385   */\n      0x4e487b71\n        /* \"#utility.yul\":3370:3373   */\n      0xe0\n        /* \"#utility.yul\":3366:3386   */\n      shl\n        /* \"#utility.yul\":3363:3364   */\n      0x00\n        /* \"#utility.yul\":3356:3387   */\n      mstore\n        /* \"#utility.yul\":3410:3414   */\n      0x11\n        /* \"#utility.yul\":3407:3408   */\n      0x04\n        /* \"#utility.yul\":3400:3415   */\n      mstore\n        /* \"#utility.yul\":3438:3442   */\n      0x24\n        /* \"#utility.yul\":3435:3436   */\n      0x00\n        /* \"#utility.yul\":3428:3443   */\n      revert\n        /* \"#utility.yul\":3464:3648   */\n    tag_133:\n        /* \"#utility.yul\":3534:3540   */\n      0x00\n        /* \"#utility.yul\":3587:3589   */\n      0x20\n        /* \"#utility.yul\":3575:3584   */\n      dup3\n        /* \"#utility.yul\":3566:3573   */\n      dup5\n        /* \"#utility.yul\":3562:3585   */\n      sub\n        /* \"#utility.yul\":3558:3590   */\n      slt\n        /* \"#utility.yul\":3555:3607   */\n      iszero\n      tag_291\n      jumpi\n        /* \"#utility.yul\":3603:3604   */\n      0x00\n        /* \"#utility.yul\":3600:3601   */\n      dup1\n        /* \"#utility.yul\":3593:3605   */\n      revert\n        /* \"#utility.yul\":3555:3607   */\n    tag_291:\n      pop\n        /* \"#utility.yul\":3626:3642   */\n      mload\n      swap2\n        /* \"#utility.yul\":3464:3648   */\n      swap1\n      pop\n      jump\t// out\n        /* \"#utility.yul\":8299:8576   */\n    tag_220:\n        /* \"#utility.yul\":8366:8372   */\n      0x00\n        /* \"#utility.yul\":8419:8421   */\n      0x20\n        /* \"#utility.yul\":8407:8416   */\n      dup3\n        /* \"#utility.yul\":8398:8405   */\n      dup5\n        /* \"#utility.yul\":8394:8417   */\n      sub\n        /* \"#utility.yul\":8390:8422   */\n      slt\n        /* \"#utility.yul\":8387:8439   */\n      iszero\n      tag_305\n      jumpi\n        /* \"#utility.yul\":8435:8436   */\n      0x00\n        /* \"#utility.yul\":8432:8433   */\n      dup1\n        /* \"#utility.yul\":8425:8437   */\n      revert\n        /* \"#utility.yul\":8387:8439   */\n    tag_305:\n        /* \"#utility.yul\":8467:8476   */\n      dup2\n        /* \"#utility.yul\":8461:8477   */\n      mload\n        /* \"#utility.yul\":8520:8525   */\n      dup1\n        /* \"#utility.yul\":8513:8526   */\n      iszero\n        /* \"#utility.yul\":8506:8527   */\n      iszero\n        /* \"#utility.yul\":8499:8504   */\n      dup2\n        /* \"#utility.yul\":8496:8528   */\n      eq\n        /* \"#utility.yul\":8486:8546   */\n      tag_277\n      jumpi\n        /* \"#utility.yul\":8542:8543   */\n      0x00\n        /* \"#utility.yul\":8539:8540   */\n      dup1\n        /* \"#utility.yul\":8532:8544   */\n      revert\n        /* \"#utility.yul\":9399:9686   */\n    tag_232:\n        /* \"#utility.yul\":9528:9531   */\n      0x00\n        /* \"#utility.yul\":9566:9572   */\n      dup3\n        /* \"#utility.yul\":9560:9573   */\n      mload\n        /* \"#utility.yul\":9582:9648   */\n      tag_310\n        /* \"#utility.yul\":9641:9647   */\n      dup2\n        /* \"#utility.yul\":9636:9639   */\n      dup5\n        /* \"#utility.yul\":9629:9633   */\n      0x20\n        /* \"#utility.yul\":9621:9627   */\n      dup8\n        /* \"#utility.yul\":9617:9634   */\n      add\n        /* \"#utility.yul\":9582:9648   */\n      tag_254\n      jump\t// in\n    tag_310:\n        /* \"#utility.yul\":9664:9680   */\n      swap2\n      swap1\n      swap2\n      add\n      swap3\n        /* \"#utility.yul\":9399:9686   */\n      swap2\n      pop\n      pop\n      jump\t// out\n\n    auxdata: 0xa2646970667358221220069c1a316754c59f9b056e68c6f8547caf0cc0e9f5eb24f5fda2bb813e2d526864736f6c63430008130033\n}\n",
				"bytecode": {
					"linkReferences": {},
					"object": "60806040523480156200001157600080fd5b5060405180604001604052806008815260200167283937b821b7b4b760c11b81525060405180604001604052806004815260200163050524f560e41b81525081600390816200006191906200018e565b5060046200007082826200018e565b5050506200008d620000876200009360201b60201c565b62000097565b6200025a565b3390565b600580546001600160a01b038381166001600160a01b0319831681179093556040519116919082907f8be0079c531659141344cd1fd0a4f28419497f9722a3daafe3b4186f6b6457e090600090a35050565b634e487b7160e01b600052604160045260246000fd5b600181811c908216806200011457607f821691505b6020821081036200013557634e487b7160e01b600052602260045260246000fd5b50919050565b601f8211156200018957600081815260208120601f850160051c81016020861015620001645750805b601f850160051c820191505b81811015620001855782815560010162000170565b5050505b505050565b81516001600160401b03811115620001aa57620001aa620000e9565b620001c281620001bb8454620000ff565b846200013b565b602080601f831160018114620001fa5760008415620001e15750858301515b600019600386901b1c1916600185901b17855562000185565b600085815260208120601f198616915b828110156200022b578886015182559484019460019091019084016200020a565b50858210156200024a5787850151600019600388901b60f8161c191681555b5050505050600190811b01905550565b610f60806200026a6000396000f3fe608060405234801561001057600080fd5b50600436106101005760003560e01c80638da5cb5b11610097578063a9059cbb11610066578063a9059cbb14610209578063dd62ed3e1461021c578063e443b72a1461022f578063f2fde38b1461024257600080fd5b80638da5cb5b146101c057806395d89b41146101db578063a0712d68146101e3578063a457c2d7146101f657600080fd5b8063313ce567116100d3578063313ce5671461016b578063395093511461017a57806370a082311461018d578063715018a6146101b657600080fd5b806306fdde0314610105578063095ea7b31461012357806318160ddd1461014657806323b872dd14610158575b600080fd5b61010d610255565b60405161011a9190610d55565b60405180910390f35b610136610131366004610da4565b6102e7565b604051901515815260200161011a565b6002545b60405190815260200161011a565b610136610166366004610dce565b610301565b6040516012815260200161011a565b610136610188366004610da4565b610325565b61014a61019b366004610e0a565b6001600160a01b031660009081526020819052604090205490565b6101be610347565b005b6005546040516001600160a01b03909116815260200161011a565b61010d61035b565b6101be6101f1366004610e2c565b61036a565b610136610204366004610da4565b610469565b610136610217366004610da4565b6104e4565b61014a61022a366004610e45565b6104f2565b6101be61023d366004610e0a565b61051d565b6101be610250366004610e0a565b610547565b60606003805461026490610e78565b80601f016020809104026020016040519081016040528092919081815260200182805461029090610e78565b80156102dd5780601f106102b2576101008083540402835291602001916102dd565b820191906000526020600020905b8154815290600101906020018083116102c057829003601f168201915b5050505050905090565b6000336102f58185856105c0565b60019150505b92915050565b60003361030f8582856106e4565b61031a85858561075e565b506001949350505050565b6000336102f581858561033883836104f2565b6103429190610eb2565b6105c0565b61034f610902565b610359600061095c565b565b60606004805461026490610e78565b610372610902565b6006546040516370a0823160e01b81526001600160a01b0390911660048201527355d398326f99059ff775485246999027b319795590829082906370a0823190602401602060405180830381865afa1580156103d2573d6000803e3d6000fd5b505050506040513d601f19601f820116820180604052508101906103f69190610ed3565b10156104405760405162461bcd60e51b8152602060048201526014602482015273496e73756666696369656e74206261636b696e6760601b60448201526064015b60405180910390fd5b60065461045b906001600160a01b03838116911633856109ae565b6104653383610a08565b5050565b6000338161047782866104f2565b9050838110156104d75760405162461bcd60e51b815260206004820152602560248201527f45524332303a2064656372656173656420616c6c6f77616e63652062656c6f77604482015264207a65726f60d81b6064820152608401610437565b61031a82868684036105c0565b6000336102f581858561075e565b6001600160a01b03918216600090815260016020908152604080832093909416825291909152205490565b610525610902565b600680546001600160a01b0319166001600160a01b0392909216919091179055565b61054f610902565b6001600160a01b0381166105b45760405162461bcd60e51b815260206004820152602660248201527f4f776e61626c653a206e6577206f776e657220697320746865207a65726f206160448201526564647265737360d01b6064820152608401610437565b6105bd8161095c565b50565b6001600160a01b0383166106225760405162461bcd60e51b8152602060048201526024808201527f45524332303a20617070726f76652066726f6d20746865207a65726f206164646044820152637265737360e01b6064820152608401610437565b6001600160a01b0382166106835760405162461bcd60e51b815260206004820152602260248201527f45524332303a20617070726f766520746f20746865207a65726f206164647265604482015261737360f01b6064820152608401610437565b6001600160a01b0383811660008181526001602090815260408083209487168084529482529182902085905590518481527f8c5be1e5ebec7d5bd14f71427d1e84f3dd0314c0f7b2291e5b200ac8c7c3b925910160405180910390a3505050565b60006106f084846104f2565b90506000198114610758578181101561074b5760405162461bcd60e51b815260206004820152601d60248201527f45524332303a20696e73756666696369656e7420616c6c6f77616e63650000006044820152606401610437565b61075884848484036105c0565b50505050565b6001600160a01b0383166107c25760405162461bcd60e51b815260206004820152602560248201527f45524332303a207472616e736665722066726f6d20746865207a65726f206164604482015264647265737360d81b6064820152608401610437565b6001600160a01b0382166108245760405162461bcd60e51b815260206004820152602360248201527f45524332303a207472616e7366657220746f20746865207a65726f206164647260448201526265737360e81b6064820152608401610437565b6001600160a01b0383166000908152602081905260409020548181101561089c5760405162461bcd60e51b815260206004820152602660248201527f45524332303a207472616e7366657220616d6f756e7420657863656564732062604482015265616c616e636560d01b6064820152608401610437565b6001600160a01b03848116600081815260208181526040808320878703905593871680835291849020805487019055925185815290927fddf252ad1be2c89b69c2b068fc378daa952ba7f163c4a11628f55a4df523b3ef910160405180910390a3610758565b6005546001600160a01b031633146103595760405162461bcd60e51b815260206004820181905260248201527f4f776e61626c653a2063616c6c6572206973206e6f7420746865206f776e65726044820152606401610437565b600580546001600160a01b038381166001600160a01b0319831681179093556040519116919082907f8be0079c531659141344cd1fd0a4f28419497f9722a3daafe3b4186f6b6457e090600090a35050565b604080516001600160a01b0385811660248301528416604482015260648082018490528251808303909101815260849091019091526020810180516001600160e01b03166323b872dd60e01b179052610758908590610acc565b6001600160a01b038216610a5e5760405162461bcd60e51b815260206004820152601f60248201527f45524332303a206d696e7420746f20746865207a65726f2061646472657373006044820152606401610437565b8060026000828254610a709190610eb2565b90915550506001600160a01b038216600081815260208181526040808320805486019055518481527fddf252ad1be2c89b69c2b068fc378daa952ba7f163c4a11628f55a4df523b3ef910160405180910390a35050565b505050565b6000610b21826040518060400160405280602081526020017f5361666545524332303a206c6f772d6c6576656c2063616c6c206661696c6564815250856001600160a01b0316610ba19092919063ffffffff16565b9050805160001480610b42575080806020019051810190610b429190610eec565b610ac75760405162461bcd60e51b815260206004820152602a60248201527f5361666545524332303a204552433230206f7065726174696f6e20646964206e6044820152691bdd081cdd58d8d9595960b21b6064820152608401610437565b6060610bb08484600085610bb8565b949350505050565b606082471015610c195760405162461bcd60e51b815260206004820152602660248201527f416464726573733a20696e73756666696369656e742062616c616e636520666f6044820152651c8818d85b1b60d21b6064820152608401610437565b600080866001600160a01b03168587604051610c359190610f0e565b60006040518083038185875af1925050503d8060008114610c72576040519150601f19603f3d011682016040523d82523d6000602084013e610c77565b606091505b5091509150610c8887838387610c93565b979650505050505050565b60608315610d02578251600003610cfb576001600160a01b0385163b610cfb5760405162461bcd60e51b815260206004820152601d60248201527f416464726573733a2063616c6c20746f206e6f6e2d636f6e74726163740000006044820152606401610437565b5081610bb0565b610bb08383815115610d175781518083602001fd5b8060405162461bcd60e51b81526004016104379190610d55565b60005b83811015610d4c578181015183820152602001610d34565b50506000910152565b6020815260008251806020840152610d74816040850160208701610d31565b601f01601f19169190910160400192915050565b80356001600160a01b0381168114610d9f57600080fd5b919050565b60008060408385031215610db757600080fd5b610dc083610d88565b946020939093013593505050565b600080600060608486031215610de357600080fd5b610dec84610d88565b9250610dfa60208501610d88565b9150604084013590509250925092565b600060208284031215610e1c57600080fd5b610e2582610d88565b9392505050565b600060208284031215610e3e57600080fd5b5035919050565b60008060408385031215610e5857600080fd5b610e6183610d88565b9150610e6f60208401610d88565b90509250929050565b600181811c90821680610e8c57607f821691505b602082108103610eac57634e487b7160e01b600052602260045260246000fd5b50919050565b808201808211156102fb57634e487b7160e01b600052601160045260246000fd5b600060208284031215610ee557600080fd5b5051919050565b600060208284031215610efe57600080fd5b81518015158114610e2557600080fd5b60008251610f20818460208701610d31565b919091019291505056fea2646970667358221220069c1a316754c59f9b056e68c6f8547caf0cc0e9f5eb24f5fda2bb813e2d526864736f6c63430008130033",
					"opcodes": "PUSH1 0x80 PUSH1 0x40 MSTORE CALLVALUE DUP1 ISZERO PUSH3 0x11 JUMPI PUSH1 0x0 DUP1 REVERT JUMPDEST POP PUSH1 0x40 MLOAD DUP1 PUSH1 0x40 ADD PUSH1 0x40 MSTORE DUP1 PUSH1 0x8 DUP2 MSTORE PUSH1 0x20 ADD PUSH8 0x283937B821B7B4B7 PUSH1 0xC1 SHL DUP2 MSTORE POP PUSH1 0x40 MLOAD DUP1 PUSH1 0x40 ADD PUSH1 0x40 MSTORE DUP1 PUSH1 0x4 DUP2 MSTORE PUSH1 0x20 ADD PUSH4 0x50524F5 PUSH1 0xE4 SHL DUP2 MSTORE POP DUP2 PUSH1 0x3 SWAP1 DUP2 PUSH3 0x61 SWAP2 SWAP1 PUSH3 0x18E JUMP JUMPDEST POP PUSH1 0x4 PUSH3 0x70 DUP3 DUP3 PUSH3 0x18E JUMP JUMPDEST POP POP POP PUSH3 0x8D PUSH3 0x87 PUSH3 0x93 PUSH1 0x20 SHL PUSH1 0x20 SHR JUMP JUMPDEST PUSH3 0x97 JUMP JUMPDEST PUSH3 0x25A JUMP JUMPDEST CALLER SWAP1 JUMP JUMPDEST PUSH1 0x5 DUP1 SLOAD PUSH1 0x1 PUSH1 0x1 PUSH1 0xA0 SHL SUB DUP4 DUP2 AND PUSH1 0x1 PUSH1 0x1 PUSH1 0xA0 SHL SUB NOT DUP4 AND DUP2 OR SWAP1 SWAP4 SSTORE PUSH1 0x40 MLOAD SWAP2 AND SWAP2 SWAP1 DUP3 SWAP1 PUSH32 0x8BE0079C531659141344CD1FD0A4F28419497F9722A3DAAFE3B4186F6B6457E0 SWAP1 PUSH1 0x0 SWAP1 LOG3 POP POP JUMP JUMPDEST PUSH4 0x4E487B71 PUSH1 0xE0 SHL PUSH1 0x0 MSTORE PUSH1 0x41 PUSH1 0x4 MSTORE PUSH1 0x24 PUSH1 0x0 REVERT JUMPDEST PUSH1 0x1 DUP2 DUP2 SHR SWAP1 DUP3 AND DUP1 PUSH3 0x114 JUMPI PUSH1 0x7F DUP3 AND SWAP2 POP JUMPDEST PUSH1 0x20 DUP3 LT DUP2 SUB PUSH3 0x135 JUMPI PUSH4 0x4E487B71 PUSH1 0xE0 SHL PUSH1 0x0 MSTORE PUSH1 0x22 PUSH1 0x4 MSTORE PUSH1 0x24 PUSH1 0x0 REVERT JUMPDEST POP SWAP2 SWAP1 POP JUMP JUMPDEST PUSH1 0x1F DUP3 GT ISZERO PUSH3 0x189 JUMPI PUSH1 0x0 DUP2 DUP2 MSTORE PUSH1 0x20 DUP2 KECCAK256 PUSH1 0x1F DUP6 ADD PUSH1 0x5 SHR DUP2 ADD PUSH1 0x20 DUP7 LT ISZERO PUSH3 0x164 JUMPI POP DUP1 JUMPDEST PUSH1 0x1F DUP6 ADD PUSH1 0x5 SHR DUP3 ADD SWAP2 POP JUMPDEST DUP2 DUP2 LT ISZERO PUSH3 0x185 JUMPI DUP3 DUP2 SSTORE PUSH1 0x1 ADD PUSH3 0x170 JUMP JUMPDEST POP POP POP JUMPDEST POP POP POP JUMP JUMPDEST DUP2 MLOAD PUSH1 0x1 PUSH1 0x1 PUSH1 0x40 SHL SUB DUP2 GT ISZERO PUSH3 0x1AA JUMPI PUSH3 0x1AA PUSH3 0xE9 JUMP JUMPDEST PUSH3 0x1C2 DUP2 PUSH3 0x1BB DUP5 SLOAD PUSH3 0xFF JUMP JUMPDEST DUP5 PUSH3 0x13B JUMP JUMPDEST PUSH1 0x20 DUP1 PUSH1 0x1F DUP4 GT PUSH1 0x1 DUP2 EQ PUSH3 0x1FA JUMPI PUSH1 0x0 DUP5 ISZERO PUSH3 0x1E1 JUMPI POP DUP6 DUP4 ADD MLOAD JUMPDEST PUSH1 0x0 NOT PUSH1 0x3 DUP7 SWAP1 SHL SHR NOT AND PUSH1 0x1 DUP6 SWAP1 SHL OR DUP6 SSTORE PUSH3 0x185 JUMP JUMPDEST PUSH1 0x0 DUP6 DUP2 MSTORE PUSH1 0x20 DUP2 KECCAK256 PUSH1 0x1F NOT DUP7 AND SWAP2 JUMPDEST DUP3 DUP2 LT ISZERO PUSH3 0x22B JUMPI DUP9 DUP7 ADD MLOAD DUP3 SSTORE SWAP5 DUP5 ADD SWAP5 PUSH1 0x1 SWAP1 SWAP2 ADD SWAP1 DUP5 ADD PUSH3 0x20A JUMP JUMPDEST POP DUP6 DUP3 LT ISZERO PUSH3 0x24A JUMPI DUP8 DUP6 ADD MLOAD PUSH1 0x0 NOT PUSH1 0x3 DUP9 SWAP1 SHL PUSH1 0xF8 AND SHR NOT AND DUP2 SSTORE JUMPDEST POP POP POP POP POP PUSH1 0x1 SWAP1 DUP2 SHL ADD SWAP1 SSTORE POP JUMP JUMPDEST PUSH2 0xF60 DUP1 PUSH3 0x26A PUSH1 0x0 CODECOPY PUSH1 0x0 RETURN INVALID PUSH1 0x80 PUSH1 0x40 MSTORE CALLVALUE DUP1 ISZERO PUSH2 0x10 JUMPI PUSH1 0x0 DUP1 REVERT JUMPDEST POP PUSH1 0x4 CALLDATASIZE LT PUSH2 0x100 JUMPI PUSH1 0x0 CALLDATALOAD PUSH1 0xE0 SHR DUP1 PUSH4 0x8DA5CB5B GT PUSH2 0x97 JUMPI DUP1 PUSH4 0xA9059CBB GT PUSH2 0x66 JUMPI DUP1 PUSH4 0xA9059CBB EQ PUSH2 0x209 JUMPI DUP1 PUSH4 0xDD62ED3E EQ PUSH2 0x21C JUMPI DUP1 PUSH4 0xE443B72A EQ PUSH2 0x22F JUMPI DUP1 PUSH4 0xF2FDE38B EQ PUSH2 0x242 JUMPI PUSH1 0x0 DUP1 REVERT JUMPDEST DUP1 PUSH4 0x8DA5CB5B EQ PUSH2 0x1C0 JUMPI DUP1 PUSH4 0x95D89B41 EQ PUSH2 0x1DB JUMPI DUP1 PUSH4 0xA0712D68 EQ PUSH2 0x1E3 JUMPI DUP1 PUSH4 0xA457C2D7 EQ PUSH2 0x1F6 JUMPI PUSH1 0x0 DUP1 REVERT JUMPDEST DUP1 PUSH4 0x313CE567 GT PUSH2 0xD3 JUMPI DUP1 PUSH4 0x313CE567 EQ PUSH2 0x16B JUMPI DUP1 PUSH4 0x39509351 EQ PUSH2 0x17A JUMPI DUP1 PUSH4 0x70A08231 EQ PUSH2 0x18D JUMPI DUP1 PUSH4 0x715018A6 EQ PUSH2 0x1B6 JUMPI PUSH1 0x0 DUP1 REVERT JUMPDEST DUP1 PUSH4 0x6FDDE03 EQ PUSH2 0x105 JUMPI DUP1 PUSH4 0x95EA7B3 EQ PUSH2 0x123 JUMPI DUP1 PUSH4 0x18160DDD EQ PUSH2 0x146 JUMPI DUP1 PUSH4 0x23B872DD EQ PUSH2 0x158 JUMPI JUMPDEST PUSH1 0x0 DUP1 REVERT JUMPDEST PUSH2 0x10D PUSH2 0x255 JUMP JUMPDEST PUSH1 0x40 MLOAD PUSH2 0x11A SWAP2 SWAP1 PUSH2 0xD55 JUMP JUMPDEST PUSH1 0x40 MLOAD DUP1 SWAP2 SUB SWAP1 RETURN JUMPDEST PUSH2 0x136 PUSH2 0x131 CALLDATASIZE PUSH1 0x4 PUSH2 0xDA4 JUMP JUMPDEST PUSH2 0x2E7 JUMP JUMPDEST PUSH1 0x40 MLOAD SWAP1 ISZERO ISZERO DUP2 MSTORE PUSH1 0x20 ADD PUSH2 0x11A JUMP JUMPDEST PUSH1 0x2 SLOAD JUMPDEST PUSH1 0x40 MLOAD SWAP1 DUP2 MSTORE PUSH1 0x20 ADD PUSH2 0x11A JUMP JUMPDEST PUSH2 0x136 PUSH2 0x166 CALLDATASIZE PUSH1 0x4 PUSH2 0xDCE JUMP JUMPDEST PUSH2 0x301 JUMP JUMPDEST PUSH1 0x40 MLOAD PUSH1 0x12 DUP2 MSTORE PUSH1 0x20 ADD PUSH2 0x11A JUMP JUMPDEST PUSH2 0x136 PUSH2 0x188 CALLDATASIZE PUSH1 0x4 PUSH2 0xDA4 JUMP JUMPDEST PUSH2 0x325 JUMP JUMPDEST PUSH2 0x14A PUSH2 0x19B CALLDATASIZE PUSH1 0x4 PUSH2 0xE0A JUMP JUMPDEST PUSH1 0x1 PUSH1 0x1 PUSH1 0xA0 SHL SUB AND PUSH1 0x0 SWAP1 DUP2 MSTORE PUSH1 0x20 DUP2 SWAP1 MSTORE PUSH1 0x40 SWAP1 KECCAK256 SLOAD SWAP1 JUMP JUMPDEST PUSH2 0x1BE PUSH2 0x347 JUMP JUMPDEST STOP JUMPDEST PUSH1 0x5 SLOAD PUSH1 0x40 MLOAD PUSH1 0x1 PUSH1 0x1 PUSH1 0xA0 SHL SUB SWAP1 SWAP2 AND DUP2 MSTORE PUSH1 0x20 ADD PUSH2 0x11A JUMP JUMPDEST PUSH2 0x10D PUSH2 0x35B JUMP JUMPDEST PUSH2 0x1BE PUSH2 0x1F1 CALLDATASIZE PUSH1 0x4 PUSH2 0xE2C JUMP JUMPDEST PUSH2 0x36A JUMP JUMPDEST PUSH2 0x136 PUSH2 0x204 CALLDATASIZE PUSH1 0x4 PUSH2 0xDA4 JUMP JUMPDEST PUSH2 0x469 JUMP JUMPDEST PUSH2 0x136 PUSH2 0x217 CALLDATASIZE PUSH1 0x4 PUSH2 0xDA4 JUMP JUMPDEST PUSH2 0x4E4 JUMP JUMPDEST PUSH2 0x14A PUSH2 0x22A CALLDATASIZE PUSH1 0x4 PUSH2 0xE45 JUMP JUMPDEST PUSH2 0x4F2 JUMP JUMPDEST PUSH2 0x1BE PUSH2 0x23D CALLDATASIZE PUSH1 0x4 PUSH2 0xE0A JUMP JUMPDEST PUSH2 0x51D JUMP JUMPDEST PUSH2 0x1BE PUSH2 0x250 CALLDATASIZE PUSH1 0x4 PUSH2 0xE0A JUMP JUMPDEST PUSH2 0x547 JUMP JUMPDEST PUSH1 0x60 PUSH1 0x3 DUP1 SLOAD PUSH2 0x264 SWAP1 PUSH2 0xE78 JUMP JUMPDEST DUP1 PUSH1 0x1F ADD PUSH1 0x20 DUP1 SWAP2 DIV MUL PUSH1 0x20 ADD PUSH1 0x40 MLOAD SWAP1 DUP2 ADD PUSH1 0x40 MSTORE DUP1 SWAP3 SWAP2 SWAP1 DUP2 DUP2 MSTORE PUSH1 0x20 ADD DUP3 DUP1 SLOAD PUSH2 0x290 SWAP1 PUSH2 0xE78 JUMP JUMPDEST DUP1 ISZERO PUSH2 0x2DD JUMPI DUP1 PUSH1 0x1F LT PUSH2 0x2B2 JUMPI PUSH2 0x100 DUP1 DUP4 SLOAD DIV MUL DUP4 MSTORE SWAP2 PUSH1 0x20 ADD SWAP2 PUSH2 0x2DD JUMP JUMPDEST DUP3 ADD SWAP2 SWAP1 PUSH1 0x0 MSTORE PUSH1 0x20 PUSH1 0x0 KECCAK256 SWAP1 JUMPDEST DUP2 SLOAD DUP2 MSTORE SWAP1 PUSH1 0x1 ADD SWAP1 PUSH1 0x20 ADD DUP1 DUP4 GT PUSH2 0x2C0 JUMPI DUP3 SWAP1 SUB PUSH1 0x1F AND DUP3 ADD SWAP2 JUMPDEST POP POP POP POP POP SWAP1 POP SWAP1 JUMP JUMPDEST PUSH1 0x0 CALLER PUSH2 0x2F5 DUP2 DUP6 DUP6 PUSH2 0x5C0 JUMP JUMPDEST PUSH1 0x1 SWAP2 POP POP JUMPDEST SWAP3 SWAP2 POP POP JUMP JUMPDEST PUSH1 0x0 CALLER PUSH2 0x30F DUP6 DUP3 DUP6 PUSH2 0x6E4 JUMP JUMPDEST PUSH2 0x31A DUP6 DUP6 DUP6 PUSH2 0x75E JUMP JUMPDEST POP PUSH1 0x1 SWAP5 SWAP4 POP POP POP POP JUMP JUMPDEST PUSH1 0x0 CALLER PUSH2 0x2F5 DUP2 DUP6 DUP6 PUSH2 0x338 DUP4 DUP4 PUSH2 0x4F2 JUMP JUMPDEST PUSH2 0x342 SWAP2 SWAP1 PUSH2 0xEB2 JUMP JUMPDEST PUSH2 0x5C0 JUMP JUMPDEST PUSH2 0x34F PUSH2 0x902 JUMP JUMPDEST PUSH2 0x359 PUSH1 0x0 PUSH2 0x95C JUMP JUMPDEST JUMP JUMPDEST PUSH1 0x60 PUSH1 0x4 DUP1 SLOAD PUSH2 0x264 SWAP1 PUSH2 0xE78 JUMP JUMPDEST PUSH2 0x372 PUSH2 0x902 JUMP JUMPDEST PUSH1 0x6 SLOAD PUSH1 0x40 MLOAD PUSH4 0x70A08231 PUSH1 0xE0 SHL DUP2 MSTORE PUSH1 0x1 PUSH1 0x1 PUSH1 0xA0 SHL SUB SWAP1 SWAP2 AND PUSH1 0x4 DUP3 ADD MSTORE PUSH20 0x55D398326F99059FF775485246999027B3197955 SWAP1 DUP3 SWAP1 DUP3 SWAP1 PUSH4 0x70A08231 SWAP1 PUSH1 0x24 ADD PUSH1 0x20 PUSH1 0x40 MLOAD DUP1 DUP4 SUB DUP2 DUP7 GAS STATICCALL ISZERO DUP1 ISZERO PUSH2 0x3D2 JUMPI RETURNDATASIZE PUSH1 0x0 DUP1 RETURNDATACOPY RETURNDATASIZE PUSH1 0x0 REVERT JUMPDEST POP POP POP POP PUSH1 0x40 MLOAD RETURNDATASIZE PUSH1 0x1F NOT PUSH1 0x1F DUP3 ADD AND DUP3 ADD DUP1 PUSH1 0x40 MSTORE POP DUP2 ADD SWAP1 PUSH2 0x3F6 SWAP2 SWAP1 PUSH2 0xED3 JUMP JUMPDEST LT ISZERO PUSH2 0x440 JUMPI PUSH1 0x40 MLOAD PUSH3 0x461BCD PUSH1 0xE5 SHL DUP2 MSTORE PUSH1 0x20 PUSH1 0x4 DUP3 ADD MSTORE PUSH1 0x14 PUSH1 0x24 DUP3 ADD MSTORE PUSH20 0x496E73756666696369656E74206261636B696E67 PUSH1 0x60 SHL PUSH1 0x44 DUP3 ADD MSTORE PUSH1 0x64 ADD JUMPDEST PUSH1 0x40 MLOAD DUP1 SWAP2 SUB SWAP1 REVERT JUMPDEST PUSH1 0x6 SLOAD PUSH2 0x45B SWAP1 PUSH1 0x1 PUSH1 0x1 PUSH1 0xA0 SHL SUB DUP4 DUP2 AND SWAP2 AND CALLER DUP6 PUSH2 0x9AE JUMP JUMPDEST PUSH2 0x465 CALLER DUP4 PUSH2 0xA08 JUMP JUMPDEST POP POP JUMP JUMPDEST PUSH1 0x0 CALLER DUP2 PUSH2 0x477 DUP3 DUP7 PUSH2 0x4F2 JUMP JUMPDEST SWAP1 POP DUP4 DUP2 LT ISZERO PUSH2 0x4D7 JUMPI PUSH1 0x40 MLOAD PUSH3 0x461BCD PUSH1 0xE5 SHL DUP2 MSTORE PUSH1 0x20 PUSH1 0x4 DUP3 ADD MSTORE PUSH1 0x25 PUSH1 0x24 DUP3 ADD MSTORE PUSH32 0x45524332303A2064656372656173656420616C6C6F77616E63652062656C6F77 PUSH1 0x44 DUP3 ADD MSTORE PUSH5 0x207A65726F PUSH1 0xD8 SHL PUSH1 0x64 DUP3 ADD MSTORE PUSH1 0x84 ADD PUSH2 0x437 JUMP JUMPDEST PUSH2 0x31A DUP3 DUP7 DUP7 DUP5 SUB PUSH2 0x5C0 JUMP JUMPDEST PUSH1 0x0 CALLER PUSH2 0x2F5 DUP2 DUP6 DUP6 PUSH2 0x75E JUMP JUMPDEST PUSH1 0x1 PUSH1 0x1 PUSH1 0xA0 SHL SUB SWAP2 DUP3 AND PUSH1 0x0 SWAP1 DUP2 MSTORE PUSH1 0x1 PUSH1 0x20 SWAP1 DUP2 MSTORE PUSH1 0x40 DUP1 DUP4 KECCAK256 SWAP4 SWAP1 SWAP5 AND DUP3 MSTORE SWAP2 SWAP1 SWAP2 MSTORE KECCAK256 SLOAD SWAP1 JUMP JUMPDEST PUSH2 0x525 PUSH2 0x902 JUMP JUMPDEST PUSH1 0x6 DUP1 SLOAD PUSH1 0x1 PUSH1 0x1 PUSH1 0xA0 SHL SUB NOT AND PUSH1 0x1 PUSH1 0x1 PUSH1 0xA0 SHL SUB SWAP3 SWAP1 SWAP3 AND SWAP2 SWAP1 SWAP2 OR SWAP1 SSTORE JUMP JUMPDEST PUSH2 0x54F PUSH2 0x902 JUMP JUMPDEST PUSH1 0x1 PUSH1 0x1 PUSH1 0xA0 SHL SUB DUP2 AND PUSH2 0x5B4 JUMPI PUSH1 0x40 MLOAD PUSH3 0x461BCD PUSH1 0xE5 SHL DUP2 MSTORE PUSH1 0x20 PUSH1 0x4 DUP3 ADD MSTORE PUSH1 0x26 PUSH1 0x24 DUP3 ADD MSTORE PUSH32 0x4F776E61626C653A206E6577206F776E657220697320746865207A65726F2061 PUSH1 0x44 DUP3 ADD MSTORE PUSH6 0x646472657373 PUSH1 0xD0 SHL PUSH1 0x64 DUP3 ADD MSTORE PUSH1 0x84 ADD PUSH2 0x437 JUMP JUMPDEST PUSH2 0x5BD DUP2 PUSH2 0x95C JUMP JUMPDEST POP JUMP JUMPDEST PUSH1 0x1 PUSH1 0x1 PUSH1 0xA0 SHL SUB DUP4 AND PUSH2 0x622 JUMPI PUSH1 0x40 MLOAD PUSH3 0x461BCD PUSH1 0xE5 SHL DUP2 MSTORE PUSH1 0x20 PUSH1 0x4 DUP3 ADD MSTORE PUSH1 0x24 DUP1 DUP3 ADD MSTORE PUSH32 0x45524332303A20617070726F76652066726F6D20746865207A65726F20616464 PUSH1 0x44 DUP3 ADD MSTORE PUSH4 0x72657373 PUSH1 0xE0 SHL PUSH1 0x64 DUP3 ADD MSTORE PUSH1 0x84 ADD PUSH2 0x437 JUMP JUMPDEST PUSH1 0x1 PUSH1 0x1 PUSH1 0xA0 SHL SUB DUP3 AND PUSH2 0x683 JUMPI PUSH1 0x40 MLOAD PUSH3 0x461BCD PUSH1 0xE5 SHL DUP2 MSTORE PUSH1 0x20 PUSH1 0x4 DUP3 ADD MSTORE PUSH1 0x22 PUSH1 0x24 DUP3 ADD MSTORE PUSH32 0x45524332303A20617070726F766520746F20746865207A65726F206164647265 PUSH1 0x44 DUP3 ADD MSTORE PUSH2 0x7373 PUSH1 0xF0 SHL PUSH1 0x64 DUP3 ADD MSTORE PUSH1 0x84 ADD PUSH2 0x437 JUMP JUMPDEST PUSH1 0x1 PUSH1 0x1 PUSH1 0xA0 SHL SUB DUP4 DUP2 AND PUSH1 0x0 DUP2 DUP2 MSTORE PUSH1 0x1 PUSH1 0x20 SWAP1 DUP2 MSTORE PUSH1 0x40 DUP1 DUP4 KECCAK256 SWAP5 DUP8 AND DUP1 DUP5 MSTORE SWAP5 DUP3 MSTORE SWAP2 DUP3 SWAP1 KECCAK256 DUP6 SWAP1 SSTORE SWAP1 MLOAD DUP5 DUP2 MSTORE PUSH32 0x8C5BE1E5EBEC7D5BD14F71427D1E84F3DD0314C0F7B2291E5B200AC8C7C3B925 SWAP2 ADD PUSH1 0x40 MLOAD DUP1 SWAP2 SUB SWAP1 LOG3 POP POP POP JUMP JUMPDEST PUSH1 0x0 PUSH2 0x6F0 DUP5 DUP5 PUSH2 0x4F2 JUMP JUMPDEST SWAP1 POP PUSH1 0x0 NOT DUP2 EQ PUSH2 0x758 JUMPI DUP2 DUP2 LT ISZERO PUSH2 0x74B JUMPI PUSH1 0x40 MLOAD PUSH3 0x461BCD PUSH1 0xE5 SHL DUP2 MSTORE PUSH1 0x20 PUSH1 0x4 DUP3 ADD MSTORE PUSH1 0x1D PUSH1 0x24 DUP3 ADD MSTORE PUSH32 0x45524332303A20696E73756666696369656E7420616C6C6F77616E6365000000 PUSH1 0x44 DUP3 ADD MSTORE PUSH1 0x64 ADD PUSH2 0x437 JUMP JUMPDEST PUSH2 0x758 DUP5 DUP5 DUP5 DUP5 SUB PUSH2 0x5C0 JUMP JUMPDEST POP POP POP POP JUMP JUMPDEST PUSH1 0x1 PUSH1 0x1 PUSH1 0xA0 SHL SUB DUP4 AND PUSH2 0x7C2 JUMPI PUSH1 0x40 MLOAD PUSH3 0x461BCD PUSH1 0xE5 SHL DUP2 MSTORE PUSH1 0x20 PUSH1 0x4 DUP3 ADD MSTORE PUSH1 0x25 PUSH1 0x24 DUP3 ADD MSTORE PUSH32 0x45524332303A207472616E736665722066726F6D20746865207A65726F206164 PUSH1 0x44 DUP3 ADD MSTORE PUSH5 0x6472657373 PUSH1 0xD8 SHL PUSH1 0x64 DUP3 ADD MSTORE PUSH1 0x84 ADD PUSH2 0x437 JUMP JUMPDEST PUSH1 0x1 PUSH1 0x1 PUSH1 0xA0 SHL SUB DUP3 AND PUSH2 0x824 JUMPI PUSH1 0x40 MLOAD PUSH3 0x461BCD PUSH1 0xE5 SHL DUP2 MSTORE PUSH1 0x20 PUSH1 0x4 DUP3 ADD MSTORE PUSH1 0x23 PUSH1 0x24 DUP3 ADD MSTORE PUSH32 0x45524332303A207472616E7366657220746F20746865207A65726F2061646472 PUSH1 0x44 DUP3 ADD MSTORE PUSH3 0x657373 PUSH1 0xE8 SHL PUSH1 0x64 DUP3 ADD MSTORE PUSH1 0x84 ADD PUSH2 0x437 JUMP JUMPDEST PUSH1 0x1 PUSH1 0x1 PUSH1 0xA0 SHL SUB DUP4 AND PUSH1 0x0 SWAP1 DUP2 MSTORE PUSH1 0x20 DUP2 SWAP1 MSTORE PUSH1 0x40 SWAP1 KECCAK256 SLOAD DUP2 DUP2 LT ISZERO PUSH2 0x89C JUMPI PUSH1 0x40 MLOAD PUSH3 0x461BCD PUSH1 0xE5 SHL DUP2 MSTORE PUSH1 0x20 PUSH1 0x4 DUP3 ADD MSTORE PUSH1 0x26 PUSH1 0x24 DUP3 ADD MSTORE PUSH32 0x45524332303A207472616E7366657220616D6F756E7420657863656564732062 PUSH1 0x44 DUP3 ADD MSTORE PUSH6 0x616C616E6365 PUSH1 0xD0 SHL PUSH1 0x64 DUP3 ADD MSTORE PUSH1 0x84 ADD PUSH2 0x437 JUMP JUMPDEST PUSH1 0x1 PUSH1 0x1 PUSH1 0xA0 SHL SUB DUP5 DUP2 AND PUSH1 0x0 DUP2 DUP2 MSTORE PUSH1 0x20 DUP2 DUP2 MSTORE PUSH1 0x40 DUP1 DUP4 KECCAK256 DUP8 DUP8 SUB SWAP1 SSTORE SWAP4 DUP8 AND DUP1 DUP4 MSTORE SWAP2 DUP5 SWAP1 KECCAK256 DUP1 SLOAD DUP8 ADD SWAP1 SSTORE SWAP3 MLOAD DUP6 DUP2 MSTORE SWAP1 SWAP3 PUSH32 0xDDF252AD1BE2C89B69C2B068FC378DAA952BA7F163C4A11628F55A4DF523B3EF SWAP2 ADD PUSH1 0x40 MLOAD DUP1 SWAP2 SUB SWAP1 LOG3 PUSH2 0x758 JUMP JUMPDEST PUSH1 0x5 SLOAD PUSH1 0x1 PUSH1 0x1 PUSH1 0xA0 SHL SUB AND CALLER EQ PUSH2 0x359 JUMPI PUSH1 0x40 MLOAD PUSH3 0x461BCD PUSH1 0xE5 SHL DUP2 MSTORE PUSH1 0x20 PUSH1 0x4 DUP3 ADD DUP2 SWAP1 MSTORE PUSH1 0x24 DUP3 ADD MSTORE PUSH32 0x4F776E61626C653A2063616C6C6572206973206E6F7420746865206F776E6572 PUSH1 0x44 DUP3 ADD MSTORE PUSH1 0x64 ADD PUSH2 0x437 JUMP JUMPDEST PUSH1 0x5 DUP1 SLOAD PUSH1 0x1 PUSH1 0x1 PUSH1 0xA0 SHL SUB DUP4 DUP2 AND PUSH1 0x1 PUSH1 0x1 PUSH1 0xA0 SHL SUB NOT DUP4 AND DUP2 OR SWAP1 SWAP4 SSTORE PUSH1 0x40 MLOAD SWAP2 AND SWAP2 SWAP1 DUP3 SWAP1 PUSH32 0x8BE0079C531659141344CD1FD0A4F28419497F9722A3DAAFE3B4186F6B6457E0 SWAP1 PUSH1 0x0 SWAP1 LOG3 POP POP JUMP JUMPDEST PUSH1 0x40 DUP1 MLOAD PUSH1 0x1 PUSH1 0x1 PUSH1 0xA0 SHL SUB DUP6 DUP2 AND PUSH1 0x24 DUP4 ADD MSTORE DUP5 AND PUSH1 0x44 DUP3 ADD MSTORE PUSH1 0x64 DUP1 DUP3 ADD DUP5 SWAP1 MSTORE DUP3 MLOAD DUP1 DUP4 SUB SWAP1 SWAP2 ADD DUP2 MSTORE PUSH1 0x84 SWAP1 SWAP2 ADD SWAP1 SWAP2 MSTORE PUSH1 0x20 DUP2 ADD DUP1 MLOAD PUSH1 0x1 PUSH1 0x1 PUSH1 0xE0 SHL SUB AND PUSH4 0x23B872DD PUSH1 0xE0 SHL OR SWAP1 MSTORE PUSH2 0x758 SWAP1 DUP6 SWAP1 PUSH2 0xACC JUMP JUMPDEST PUSH1 0x1 PUSH1 0x1 PUSH1 0xA0 SHL SUB DUP3 AND PUSH2 0xA5E JUMPI PUSH1 0x40 MLOAD PUSH3 0x461BCD PUSH1 0xE5 SHL DUP2 MSTORE PUSH1 0x20 PUSH1 0x4 DUP3 ADD MSTORE PUSH1 0x1F PUSH1 0x24 DUP3 ADD MSTORE PUSH32 0x45524332303A206D696E7420746F20746865207A65726F206164647265737300 PUSH1 0x44 DUP3 ADD MSTORE PUSH1 0x64 ADD PUSH2 0x437 JUMP JUMPDEST DUP1 PUSH1 0x2 PUSH1 0x0 DUP3 DUP3 SLOAD PUSH2 0xA70 SWAP2 SWAP1 PUSH2 0xEB2 JUMP JUMPDEST SWAP1 SWAP2 SSTORE POP POP PUSH1 0x1 PUSH1 0x1 PUSH1 0xA0 SHL SUB DUP3 AND PUSH1 0x0 DUP2 DUP2 MSTORE PUSH1 0x20 DUP2 DUP2 MSTORE PUSH1 0x40 DUP1 DUP4 KECCAK256 DUP1 SLOAD DUP7 ADD SWAP1 SSTORE MLOAD DUP5 DUP2 MSTORE PUSH32 0xDDF252AD1BE2C89B69C2B068FC378DAA952BA7F163C4A11628F55A4DF523B3EF SWAP2 ADD PUSH1 0x40 MLOAD DUP1 SWAP2 SUB SWAP1 LOG3 POP POP JUMP JUMPDEST POP POP POP JUMP JUMPDEST PUSH1 0x0 PUSH2 0xB21 DUP3 PUSH1 0x40 MLOAD DUP1 PUSH1 0x40 ADD PUSH1 0x40 MSTORE DUP1 PUSH1 0x20 DUP2 MSTORE PUSH1 0x20 ADD PUSH32 0x5361666545524332303A206C6F772D6C6576656C2063616C6C206661696C6564 DUP2 MSTORE POP DUP6 PUSH1 0x1 PUSH1 0x1 PUSH1 0xA0 SHL SUB AND PUSH2 0xBA1 SWAP1 SWAP3 SWAP2 SWAP1 PUSH4 0xFFFFFFFF AND JUMP JUMPDEST SWAP1 POP DUP1 MLOAD PUSH1 0x0 EQ DUP1 PUSH2 0xB42 JUMPI POP DUP1 DUP1 PUSH1 0x20 ADD SWAP1 MLOAD DUP2 ADD SWAP1 PUSH2 0xB42 SWAP2 SWAP1 PUSH2 0xEEC JUMP JUMPDEST PUSH2 0xAC7 JUMPI PUSH1 0x40 MLOAD PUSH3 0x461BCD PUSH1 0xE5 SHL DUP2 MSTORE PUSH1 0x20 PUSH1 0x4 DUP3 ADD MSTORE PUSH1 0x2A PUSH1 0x24 DUP3 ADD MSTORE PUSH32 0x5361666545524332303A204552433230206F7065726174696F6E20646964206E PUSH1 0x44 DUP3 ADD MSTORE PUSH10 0x1BDD081CDD58D8D95959 PUSH1 0xB2 SHL PUSH1 0x64 DUP3 ADD MSTORE PUSH1 0x84 ADD PUSH2 0x437 JUMP JUMPDEST PUSH1 0x60 PUSH2 0xBB0 DUP5 DUP5 PUSH1 0x0 DUP6 PUSH2 0xBB8 JUMP JUMPDEST SWAP5 SWAP4 POP POP POP POP JUMP JUMPDEST PUSH1 0x60 DUP3 SELFBALANCE LT ISZERO PUSH2 0xC19 JUMPI PUSH1 0x40 MLOAD PUSH3 0x461BCD PUSH1 0xE5 SHL DUP2 MSTORE PUSH1 0x20 PUSH1 0x4 DUP3 ADD MSTORE PUSH1 0x26 PUSH1 0x24 DUP3 ADD MSTORE PUSH32 0x416464726573733A20696E73756666696369656E742062616C616E636520666F PUSH1 0x44 DUP3 ADD MSTORE PUSH6 0x1C8818D85B1B PUSH1 0xD2 SHL PUSH1 0x64 DUP3 ADD MSTORE PUSH1 0x84 ADD PUSH2 0x437 JUMP JUMPDEST PUSH1 0x0 DUP1 DUP7 PUSH1 0x1 PUSH1 0x1 PUSH1 0xA0 SHL SUB AND DUP6 DUP8 PUSH1 0x40 MLOAD PUSH2 0xC35 SWAP2 SWAP1 PUSH2 0xF0E JUMP JUMPDEST PUSH1 0x0 PUSH1 0x40 MLOAD DUP1 DUP4 SUB DUP2 DUP6 DUP8 GAS CALL SWAP3 POP POP POP RETURNDATASIZE DUP1 PUSH1 0x0 DUP2 EQ PUSH2 0xC72 JUMPI PUSH1 0x40 MLOAD SWAP2 POP PUSH1 0x1F NOT PUSH1 0x3F RETURNDATASIZE ADD AND DUP3 ADD PUSH1 0x40 MSTORE RETURNDATASIZE DUP3 MSTORE RETURNDATASIZE PUSH1 0x0 PUSH1 0x20 DUP5 ADD RETURNDATACOPY PUSH2 0xC77 JUMP JUMPDEST PUSH1 0x60 SWAP2 POP JUMPDEST POP SWAP2 POP SWAP2 POP PUSH2 0xC88 DUP8 DUP4 DUP4 DUP8 PUSH2 0xC93 JUMP JUMPDEST SWAP8 SWAP7 POP POP POP POP POP POP POP JUMP JUMPDEST PUSH1 0x60 DUP4 ISZERO PUSH2 0xD02 JUMPI DUP3 MLOAD PUSH1 0x0 SUB PUSH2 0xCFB JUMPI PUSH1 0x1 PUSH1 0x1 PUSH1 0xA0 SHL SUB DUP6 AND EXTCODESIZE PUSH2 0xCFB JUMPI PUSH1 0x40 MLOAD PUSH3 0x461BCD PUSH1 0xE5 SHL DUP2 MSTORE PUSH1 0x20 PUSH1 0x4 DUP3 ADD MSTORE PUSH1 0x1D PUSH1 0x24 DUP3 ADD MSTORE PUSH32 0x416464726573733A2063616C6C20746F206E6F6E2D636F6E7472616374000000 PUSH1 0x44 DUP3 ADD MSTORE PUSH1 0x64 ADD PUSH2 0x437 JUMP JUMPDEST POP DUP2 PUSH2 0xBB0 JUMP JUMPDEST PUSH2 0xBB0 DUP4 DUP4 DUP2 MLOAD ISZERO PUSH2 0xD17 JUMPI DUP2 MLOAD DUP1 DUP4 PUSH1 0x20 ADD REVERT JUMPDEST DUP1 PUSH1 0x40 MLOAD PUSH3 0x461BCD PUSH1 0xE5 SHL DUP2 MSTORE PUSH1 0x4 ADD PUSH2 0x437 SWAP2 SWAP1 PUSH2 0xD55 JUMP JUMPDEST PUSH1 0x0 JUMPDEST DUP4 DUP2 LT ISZERO PUSH2 0xD4C JUMPI DUP2 DUP2 ADD MLOAD DUP4 DUP3 ADD MSTORE PUSH1 0x20 ADD PUSH2 0xD34 JUMP JUMPDEST POP POP PUSH1 0x0 SWAP2 ADD MSTORE JUMP JUMPDEST PUSH1 0x20 DUP2 MSTORE PUSH1 0x0 DUP3 MLOAD DUP1 PUSH1 0x20 DUP5 ADD MSTORE PUSH2 0xD74 DUP2 PUSH1 0x40 DUP6 ADD PUSH1 0x20 DUP8 ADD PUSH2 0xD31 JUMP JUMPDEST PUSH1 0x1F ADD PUSH1 0x1F NOT AND SWAP2 SWAP1 SWAP2 ADD PUSH1 0x40 ADD SWAP3 SWAP2 POP POP JUMP JUMPDEST DUP1 CALLDATALOAD PUSH1 0x1 PUSH1 0x1 PUSH1 0xA0 SHL SUB DUP2 AND DUP2 EQ PUSH2 0xD9F JUMPI PUSH1 0x0 DUP1 REVERT JUMPDEST SWAP2 SWAP1 POP JUMP JUMPDEST PUSH1 0x0 DUP1 PUSH1 0x40 DUP4 DUP6 SUB SLT ISZERO PUSH2 0xDB7 JUMPI PUSH1 0x0 DUP1 REVERT JUMPDEST PUSH2 0xDC0 DUP4 PUSH2 0xD88 JUMP JUMPDEST SWAP5 PUSH1 0x20 SWAP4 SWAP1 SWAP4 ADD CALLDATALOAD SWAP4 POP POP POP JUMP JUMPDEST PUSH1 0x0 DUP1 PUSH1 0x0 PUSH1 0x60 DUP5 DUP7 SUB SLT ISZERO PUSH2 0xDE3 JUMPI PUSH1 0x0 DUP1 REVERT JUMPDEST PUSH2 0xDEC DUP5 PUSH2 0xD88 JUMP JUMPDEST SWAP3 POP PUSH2 0xDFA PUSH1 0x20 DUP6 ADD PUSH2 0xD88 JUMP JUMPDEST SWAP2 POP PUSH1 0x40 DUP5 ADD CALLDATALOAD SWAP1 POP SWAP3 POP SWAP3 POP SWAP3 JUMP JUMPDEST PUSH1 0x0 PUSH1 0x20 DUP3 DUP5 SUB SLT ISZERO PUSH2 0xE1C JUMPI PUSH1 0x0 DUP1 REVERT JUMPDEST PUSH2 0xE25 DUP3 PUSH2 0xD88 JUMP JUMPDEST SWAP4 SWAP3 POP POP POP JUMP JUMPDEST PUSH1 0x0 PUSH1 0x20 DUP3 DUP5 SUB SLT ISZERO PUSH2 0xE3E JUMPI PUSH1 0x0 DUP1 REVERT JUMPDEST POP CALLDATALOAD SWAP2 SWAP1 POP JUMP JUMPDEST PUSH1 0x0 DUP1 PUSH1 0x40 DUP4 DUP6 SUB SLT ISZERO PUSH2 0xE58 JUMPI PUSH1 0x0 DUP1 REVERT JUMPDEST PUSH2 0xE61 DUP4 PUSH2 0xD88 JUMP JUMPDEST SWAP2 POP PUSH2 0xE6F PUSH1 0x20 DUP5 ADD PUSH2 0xD88 JUMP JUMPDEST SWAP1 POP SWAP3 POP SWAP3 SWAP1 POP JUMP JUMPDEST PUSH1 0x1 DUP2 DUP2 SHR SWAP1 DUP3 AND DUP1 PUSH2 0xE8C JUMPI PUSH1 0x7F DUP3 AND SWAP2 POP JUMPDEST PUSH1 0x20 DUP3 LT DUP2 SUB PUSH2 0xEAC JUMPI PUSH4 0x4E487B71 PUSH1 0xE0 SHL PUSH1 0x0 MSTORE PUSH1 0x22 PUSH1 0x4 MSTORE PUSH1 0x24 PUSH1 0x0 REVERT JUMPDEST POP SWAP2 SWAP1 POP JUMP JUMPDEST DUP1 DUP3 ADD DUP1 DUP3 GT ISZERO PUSH2 0x2FB JUMPI PUSH4 0x4E487B71 PUSH1 0xE0 SHL PUSH1 0x0 MSTORE PUSH1 0x11 PUSH1 0x4 MSTORE PUSH1 0x24 PUSH1 0x0 REVERT JUMPDEST PUSH1 0x0 PUSH1 0x20 DUP3 DUP5 SUB SLT ISZERO PUSH2 0xEE5 JUMPI PUSH1 0x0 DUP1 REVERT JUMPDEST POP MLOAD SWAP2 SWAP1 POP JUMP JUMPDEST PUSH1 0x0 PUSH1 0x20 DUP3 DUP5 SUB SLT ISZERO PUSH2 0xEFE JUMPI PUSH1 0x0 DUP1 REVERT JUMPDEST DUP2 MLOAD DUP1 ISZERO ISZERO DUP2 EQ PUSH2 0xE25 JUMPI PUSH1 0x0 DUP1 REVERT JUMPDEST PUSH1 0x0 DUP3 MLOAD PUSH2 0xF20 DUP2 DUP5 PUSH1 0x20 DUP8 ADD PUSH2 0xD31 JUMP JUMPDEST SWAP2 SWAP1 SWAP2 ADD SWAP3 SWAP2 POP POP JUMP INVALID LOG2 PUSH5 0x6970667358 0x22 SLT KECCAK256 MOD SWAP13 BYTE BALANCE PUSH8 0x54C59F9B056E68C6 0xF8 SLOAD PUSH29 0xAF0CC0E9F5EB24F5FDA2BB813E2D526864736F6C634300081300330000 "
				},
				"gasEstimates": {
					"creation": {
						"codeDepositCost": "787200",
						"executionCost": "infinite",
						"totalCost": "infinite"
					},
					"external": {
						"allowance(address,address)": "infinite",
						"approve(address,uint256)": "24651",
						"balanceOf(address)": "2607",
						"decimals()": "200",
						"decreaseAllowance(address,uint256)": "27039",
						"increaseAllowance(address,uint256)": "infinite",
						"mint(uint256)": "infinite",
						"name()": "infinite",
						"owner()": "2324",
						"renounceOwnership()": "infinite",
						"setBackingWallet(address)": "26801",
						"symbol()": "infinite",
						"totalSupply()": "2349",
						"transfer(address,uint256)": "51072",
						"transferFrom(address,address,uint256)": "infinite",
						"transferOwnership(address)": "28424"
					}
				},
				"methodIdentifiers": {
					"allowance(address,address)": "dd62ed3e",
					"approve(address,uint256)": "095ea7b3",
					"balanceOf(address)": "70a08231",
					"decimals()": "313ce567",
					"decreaseAllowance(address,uint256)": "a457c2d7",
					"increaseAllowance(address,uint256)": "39509351",
					"mint(uint256)": "a0712d68",
					"name()": "06fdde03",
					"owner()": "8da5cb5b",
					"renounceOwnership()": "715018a6",
					"setBackingWallet(address)": "e443b72a",
					"symbol()": "95d89b41",
					"totalSupply()": "18160ddd",
					"transfer(address,uint256)": "a9059cbb",
					"transferFrom(address,address,uint256)": "23b872dd",
					"transferOwnership(address)": "f2fde38b"
				}
			},
			"storageLayout": {
				"storage": [
					{
						"astId": 207,
						"contract": "contracts/PropCoin.sol:PropCoin",
						"label": "_balances",
						"offset": 0,
						"slot": "0",
						"type": "t_mapping(t_address,t_uint256)"
					},
					{
						"astId": 213,
						"contract": "contracts/PropCoin.sol:PropCoin",
						"label": "_allowances",
						"offset": 0,
						"slot": "1",
						"type": "t_mapping(t_address,t_mapping(t_address,t_uint256))"
					},
					{
						"astId": 215,
						"contract": "contracts/PropCoin.sol:PropCoin",
						"label": "_totalSupply",
						"offset": 0,
						"slot": "2",
						"type": "t_uint256"
					},
					{
						"astId": 217,
						"contract": "contracts/PropCoin.sol:PropCoin",
						"label": "_name",
						"offset": 0,
						"slot": "3",
						"type": "t_string_storage"
					},
					{
						"astId": 219,
						"contract": "contracts/PropCoin.sol:PropCoin",
						"label": "_symbol",
						"offset": 0,
						"slot": "4",
						"type": "t_string_storage"
					},
					{
						"astId": 86,
						"contract": "contracts/PropCoin.sol:PropCoin",
						"label": "_owner",
						"offset": 0,
						"slot": "5",
						"type": "t_address"
					},
					{
						"astId": 14,
						"contract": "contracts/PropCoin.sol:PropCoin",
						"label": "backingWallet",
						"offset": 0,
						"slot": "6",
						"type": "t_address"
					}
				],
				"types": {
					"t_address": {
						"encoding": "inplace",
						"label": "address",
						"numberOfBytes": "20"
					},
					"t_mapping(t_address,t_mapping(t_address,t_uint256))": {
						"encoding": "mapping",
						"key": "t_address",
						"label": "mapping(address => mapping(address => uint256))",
						"numberOfBytes": "32",
						"value": "t_mapping(t_address,t_uint256)"
					},
					"t_mapping(t_address,t_uint256)": {
						"encoding": "mapping",
						"key": "t_address",
						"label": "mapping(address => uint256)",
						"numberOfBytes": "32",
						"value": "t_uint256"
					},
					"t_string_storage": {
						"encoding": "bytes",
						"label": "string",
						"numberOfBytes": "32"
					},
					"t_uint256": {
						"encoding": "inplace",
						"label": "uint256",
						"numberOfBytes": "32"
					}
				}
			},
			"userdoc": {
				"kind": "user",
				"methods": {},
				"version": 1
			}
		}
	}
}